S02B0000433A2F55736572732F6D696B68612F4465736B746F702F3234335F66696E616C5F70726F6A6563744D
S21400002004FDFFDE150000D9150140D9150280D960
S2140000303A3109004C0000211E01002006E20000B3
S21400004004F9FFDE1500C0D9150100DA150240DA02
S214000050150380DA1504C0DA150500DB150640DB4B
S21400006034C8BF0104408031C43AC0013500C031F5
S214000070843EC001370000320C00604226FD3F4837
S214000080CC3F40421EFBFF493401C00104BCF73997
S214000090C4000002040040022608404237008032B6
S2140000A00C00E05226FC3F58CC3FC0523A885B3AE0
S2140000B00500C06A4400404A06F73F0034010001CC
S2140000C004BC37213401400104BD772900430000F9
S2140000D03401000104BC3721070040214C004029B0
S2140000E0260800283401000204BD374217000041EC
S2140000F017014041B401800104558E31840CC001C3
S214000100C03D0100B401000104550E21840C4001DD
S21400011000230100B401000104550E21840C4001A7
S21400012080E80000B401000104550E21840C400153
S21400013080E80000B401000104EB0E2144014001F8
S2140001408407800180D90000B401000104EB0E2171
S214000150440140018407800180D9000034018001F9
S21400016004BFB7310700C03126010038064500003D
S21400017034C8BF01040084313401C00104BFF7391C
S21400018004080002370040320C00A04A2613005034
S214000190CC3F804A1E110052B401000104EB0E2130
S2140001A044014001B401800104558E31840CC00125
S2140001B004FFFFDEB401000204FD0E42150000DA63
S2140001C0C0FA00000401C0DE260400103401C0019D
S2140001D004BFF739840200020500003A34C8BF01A4
S2140001E004008431370040320C00A04A1EFB3F500A
S2140001F0B401000104EB0E2144014001B40180016A
S21400020004558E31840CC00104FFFFDEB4010002E9
S21400021004FD0E42150000DA405101000401C0DE64
S214000220B401000104EB0E2144014001B401800139
S21400023004558E31840CC00104FFFFDEB4010002B9
S21400024004FD0E42150000DA405101000401C0DE34
S214000250B401000104EB0E2144014001B401800109
S21400026004558E31840CC00104FFFFDEB401000289
S21400027004FD0E42150000DA405101000401C0DE04
S214000280060A00003401800104BFB7310700C03100
S214000290C4FFFF390500C031B401800104FD8E3172
S2140002A01701C03184FFFF391501C0313401000148
S2140002B004C037213401400184BF77290F0040294C
S2140002C004508001260780290050000034014001B8
S2140002D084BF77290F008029440080310D008029D3
S2140002E0060500003401400184BF77290D00002870
S2140002F00400400106F43F003A8811004401400221
S214000300B401800204EB8E52260A4042B40100017A
S21400031004D20D2117014051170080511702C05119
S2140003203A888F39405A0000040380524400004245
S21400033006F53F003401000104BC372134014001BA
S21400034004BD772917000029170140290400800101
S214000350C07F0000B401C0010455CE39840C0002F1
S214000360040040022607004A1700003917014039EA
S21400037004008001C07F00000403C0394400404AE6
S21400038006F83F00B401C00104FDCE39B4010001F7
S21400039004F30D211700403917018039C0640000AE
S2140003A006000000408900001700C0D9170100DAD7
S2140003B0170240DA170380DA1704C0DA170500DBE5
S2140003C0170640DB0407C0DE170000D9170140D926
S2140003D0170280D90403C0DE04FF7FEF3A0880EFDF
S2140004003400C1060400C0DE3A30F6DED401C0DE99
S2140004103A30F6DEF4018006040CB0D6B4010006CD
S214000420041510C63400800004E585103A680010F4
S21400043004F9FFDE150000DC150140DC150280DC47
S2140004401503C0DC150400DD150540DD150680DD4E
S2140004500700002447004024870080241700C02C93
S2140004601701002D7AD023887AD025900C3040854D
S2140004701E1A00A80C0440851E0400A83A88E38CC7
S214000480C44F8005160440B4060600003A88E38C84
S2140004901603008806030000C44F4004060100004F
S2140004A03A8823001500402C0C0840851E0300A83F
S2140004B03AC8A5A416070090060700003AC8A5A4E7
S2140004C0C43B8005160180B406030000C43B8004CC
S2140004D0060100003A8825001501802C170000DC74
S2140004E0170140DC170280DC1703C0DC170400DDB0
S2140004F0170540DD170680DD0407C0DE3A2800F841
S21400050004FAFFDE150000DC150140DC150280DC75
S2140005101503C0DC150400DD150540DD34C83F04B6
S21400052004080C843701408404508004043CC00452
S2140005302614009026110028C4FFBF94C4FF7F290C
S214000540260C0098C4FFFF9C7A9228983AB0A8A47C
S2140005507A9028A03A8869A43A38AB993A886BA969
S2140005607A902AA83A882BA98F0D40AD2D0040A579
S21400057006F33F00043CC00406ED3F003A880B300B
S21400058006EB3F00170000DC170140DC170280DC9A
S2140005901703C0DC170400DD170540DD0406C0DEC7
S2140005A03A2800F804FAFFDE150000DC150140DCEE
S2140005B0150280DC1503C0DC150400DD150540DDE2
S2140005C034C83F0404080C843701408404018004C6
S2140005D00401C0042615C03126120090260D00988E
S2140005E03A88E92C7A9228A03AB0A8A17A9028A056
S2140005F03A8869A46401409D3A88ABAC7A902AA8F0
S2140006003A882BA90F0F40AD2D0040A5C4FFFF9CD4
S21400061006F23F000401C004C4FFBF9444008031CA
S21400062006EC3F000401800406EA3F00170000DCE9
S214000630170140DC170280DC1703C0DC170400DD5E
S214000640170540DD0406C0DE3A2800F804FAFFDE8F
S214000650150000DC150140DC150280DC1503C0DC4B
S214000660150400DD150540DD34C83F0404080C847D
S21400067037014084040280040405C004261200905A
S214000680C4FFBF94260E0098C4FFFF9C3A88A99921
S2140006907A9228A03A886B913AB068A57A9028A0FA
S2140006A03A8869A42402409D3A88ABAC7A902AA87E
S2140006B03A882BA98F1140AD2D0040A506F13F00CA
S2140006C00405C00406ED3F00170000DC170140DCFF
S2140006D0170280DC1703C0DC170400DD170540DDB9
S2140006E00406C0DE3A2800F804FBFFDE150000DC36
S2140006F0150140DC150280DC1503C0DC150400DDA6
S21400070034C83F0404080C84370140840450800435
S214000710043CC004260B0090C4FFBF942607009834
S214000720C4FFFF9C7A9228983AB0A8A47A9028A092
S2140007303A8869A42D0000A106F83F00043CC004D6
S21400074006F43F00170000DC170140DC170280DCCF
S2140007501703C0DC170400DD0405C0DE3A2800F8E5
S21400076004F8FFDE150000DC150140DC150280DC15
S2140007701503C0DC150400DD150540DD150680DD1B
S2140007801507C0DD34C83F0404080C8437004084D5
S214000790370180840450C004043C0005260D0098F0
S2140007A0C4FFFF9C260900A0C4FF3FA57A922AA09A
S2140007B03AB0EAAC7A902AA83A886DAC2F0080B599
S2140007C03A88AFAC2D0080BD06F63F00043C00051D
S2140007D006F23F00170000DC170140DC170280DC41
S2140007E01703C0DC170400DD170540DD170680DDA3
S2140007F01707C0DD0408C0DE3A2800F804FDFFDE57
S214000800150000DC150140DC150280DC34C83F040E
S21400081004080C84370140843A8825287A9224906C
S2140008203AB024917A9024903A8865942D0080916D
S2140008304400802C7A9224903AB024917A902490A6
S2140008403A8865942D0080913A8825287A922490DB
S2140008503AB02491440080947A9024903A88659423
S2140008602D0080914400802C7A9224903AB02491F6
S214000870440080947A9024903A8865942D00809164
S214000880170000DC170140DC170280DC0403C0DE22
S2140008903A2800F804FEFFDE150000DC150040DCF8
S2140008A034C83F0404080C844400400435004084E7
S2140008B0370340844C00408C1EFD3F88170000DC48
S2140008C0170040DC0402C0DE3A2800F83400C106F7
S2140008D0C4FFFFDE34C8BF0104088C3134000002B8
S2140008E004BC06423501003204000001806E0000A0
S2140008F04089000034C8BF0104408031843EC001F6
S214000900043C000235000032370000320C00604222
S21400091026FD3F48CC3F40421EFBFF49043A0002FA
S21400092035000032370000320C00604226FD3F489A
S214000930CC3F40421EFBFF49040000023500003257
S214000940370000320C00604226FD3F48CC3F404254
S2140009501EFBFF49043D000235000032370000321E
S2140009600C00604226FD3F48CC3F40421EFBFF493C
S214000970B401800104558E310496C0012604003867
S21400098004FDFF393A8891391500004006FB3F0008
S214000990B401800104EB8E3134C8BF0104008831F5
S2140009A004190001BA900820246A18213A882320E6
S2140009B0CCFF7F8C350240343A8823203AD42288F4
S2140009C035034034C401400435014034440000027D
S2140009D0FA700140440000023A70014006FF3F00F2
S2140009E004FEFFDE150000DC150140DC34C83F04C1
S2140009F0040008847400400444F1698C36014024E5
S214000A003A880988BA900820246A18213A88232050
S214000A10CCFF7F8C350240843A8823203AD4228843
S214000A203503408404014004350140843700408487
S214000A308C00408C1EFD3F8835000080170000DCCF
S214000A40170140DC0402C0DE3A2800F804FBFFDE93
S214000A50150000DC150140DC150280DC1503C0DC47
S214000A60150400DDB401800404028F943A88659171
S214000A7036030001C40F0004050000940648000079
S214000A80440000043603008184010004050000943D
S214000A90064300008400000436030081C4160004E8
S214000AA005000094063E0000C400000436030081E2
S214000AB0C413000405000094063900000401000475
S214000AC036030081841900040500009406340000F3
S214000AD04401000436030081441B00040500009412
S214000AE0062F00008401000436030081441F000422
S214000AF005000094062A0000C401000436030081A5
S214000B00C401000405000094062500000402000449
S214000B1036030081C41F0004050000940620000070
S214000B204402000436030081C41900040500009442
S214000B30061B00008402000436030081C41D000466
S214000B400500009406160000C40200043603008167
S214000B50041F0004050000940611000004030004AE
S214000B6036030081440E000405000094060C0000C5
S214000B704403000436030081841700040500009433
S214000B80060700008403000436030081441E0004A8
S214000B900500009406020000441C000405000094B2
S214000BA005000094C40040043605408934C87F041C
S214000BB00408408CB4018004C4028F94060D000023
S214000BC0440140043606408934C87F04040C408C37
S214000BD0B401800444038F948400809406050000CA
S214000BE034C87F04040C408CB401800444038F9402
S214000BF08400809404000001040140013A88290022
S214000C00260640210700C0943A9228A03AB0E8A4ED
S214000C1044000021C4FFBF9406F93F003500008D54
S214000C20170000DC170140DC170280DC1703C0DC6D
S214000C30170400DD0405C0DE3A2800F83A880500EF
S214000C40260700204C00C0207AD008202601001875
S214000C503A8845113A884B291EFA3F203A2800F870
S214000C603A2800F804F6FFDE150680DD150540DD9F
S214000C70150140DCCCFF7F353AD42220CCFFBF25BF
S214000C801503C0DC150280DC3A8827203A88252820
S214000C903A8809B03A880BA81509C0DF150800DFA6
S214000CA01507C0DD3A8839383AD42E30150400DDF1
S214000CB0150000DC3A882930C0C300003A880BA82B
S214000CC03A8809883A882110C0C300003A88098803
S214000CD03A880BB83A882B10C0C300003A880BB885
S214000CE03A8809B03A882310C0C300003AD4068078
S214000CF03A8845153A8885182E0240157400C000BB
S214000D003A88E3883AD406103A9404103A880BE0FE
S214000D103A880998CCFF3F843A88631C3A882114A5
S214000D20C0C300003A880B903A8809A03A8827107A
S214000D30C0C300003A8885983A8847143A880580E8
S214000D401709C0DF170800DF1707C0DD170680DDAC
S214000D50170540DD170400DD1703C0DC170280DC32
S214000D60170140DC170000DC040AC0DE3A2800F851
S214000D7004FEFFDE1501C0DF150000DF3A8839D813
S214000D80C07201003A8837E01701C0DF170000DFA5
S214000D900402C0DE3A2800F804F9FFDE1506C0DFBC
S214000DA0150500DF150400DC040500DF15FC3FE137
S214000DB015FD7FE115FEBFE115FB3FE006280000AC
S214000DC017FBBFE0040340013A880910C0C30000C7
S214000DD03A88071017FCBFE03A88C5101700801045
S214000DE01E0B001017FBBFE0040340013A880910F1
S214000DF0C0C300003A88071017FCBFE03A88C51049
S214000E00C44FC00084F8FF181500C010061100007B
S214000E1017FBBFE0040340013A880910C0C3000076
S214000E203A88071017FCBFE03A88E11017FBBFE0CE
S214000E30040340013A880910C0C300003A8807102E
S214000E4017FCBFE03A88C51017008010C4FFBF101B
S214000E501500808017FBBFE04400801015FBBFE044
S214000E6017FBFFE017FDBFE016D5BF183A88010054
S214000E7004FFFFE61702C0DF170100DF170000DCE3
S214000E800403C0DE3A2800F804FAFFDE1505C0DFCA
S214000E90150400DF150300DC040400DF15FD3FE148
S214000EA015FE7FE115FC3FE00636000017FCBFE0AC
S214000EB0040340013A880910C0C300003A880710AE
S214000EC017FDBFE03A88C510170080100E1280008C
S214000ED017FCBFE0040340013A880910C0C30000B5
S214000EE03A88071017FDBFE03A88E11017FCBFE00C
S214000EF0040340013A880910C0C300003A8807106E
S214000F0017FDBFE03A88C51017008010C4FFBF1059
S214000F10150080800618000017FCBFE0040340019F
S214000F203A880910C0C300003A88071017FDBFE0D2
S214000F303A88C5101502001017FCBFE004034001F4
S214000F403A880910C0C300003A88071017FDBFE0B2
S214000F503A88C5101500001017FCBFE004034001D6
S214000F603A880910C0C300003A88071017FDBFE092
S214000F703A88C5101501001017FCBFE04400801029
S214000F8015FCBFE017FCFFE017FEBFE016C7BF1852
S214000F903A88010004FFFFE61702C0DF170100DFF2
S214000FA0170000DC0403C0DE3A2800F804F6FFDE73
S214000FB01509C0DF150800DF150740DC150600DC44
S214000FC0040800DF15FA3FE115FB7FE115FCBFE1E1
S214000FD015FDFFE115F83FE006350000170280E03A
S214000FE01700C010170280E0170380103A88A11877
S214000FF017F8BFE0040340013A880910C0C3000098
S2140010003A88071017FABFE03A88C5101700801014
S21400101016248080170280E01700001417F8BFE03F
S214001020040340013A880910C0C300003A8807103C
S21400103017FABFE03A88C5101700401417F8BFE04B
S214001040040340013A880910C0C300003A8807101C
S21400105017FABFE03A88C510170280103A888588CC
S21400106016100014170280E01701C010170280E067
S214001070170280103A88A11817F8BFE00403400151
S2140010803A880910C0C300003A88071017FABFE074
S2140010903A88C510170180101E0280804400800028
S2140010A0065C000017F8BFE04400801015F8BFE0AB
S2140010B017F8FFE017FBBFE016C8BF1815F93FE0AA
S2140010C00647000017F9BFE0040340013A880910FC
S2140010D0C0C300003A88071017FCBFE03A88C51066
S2140010E01700C010170280E017008010160E801838
S2140010F017F9BFE0040340013A880910C0C3000096
S2140011003A88071017FCBFE03A88C5101700801011
S2140011101702C0E0170000191702C0E01703C01836
S2140011203A88C7200E1B801817F9BFE00403400159
S2140011303A880910C0C300003A88071017FCBFE0C1
S2140011403A88C51017008010440080101702C0E0CF
S2140011501700C0180E1F801817F9BFE004034001DF
S2140011603A880910C0C300003A88071017FCBFE091
S2140011703A88C51017008010440080101702C0E09F
S214001180170000191702C0E01703C0183A88C720D6
S21400119016108018170280E01701C010170280E0B2
S2140011A0170280103A88A11817F9BFE0040340011F
S2140011B03A880910C0C300003A88071017FCBFE041
S2140011C03A88C510170180101E02808044008000F7
S2140011D00610000017F9BFE04400801015F9BFE0C4
S2140011E017F9FFE017FDBFE016B6BF18170280E03C
S2140011F01701C010170280E0170280103A88851881
S214001200D03B80101E020010440080000601000043
S2140012103A88050004FEFFE61703C0DF170200DF6A
S214001220170140DC170000DC0404C0DE3A2800F892
S21400123004FBFFDE1504C0DF150300DF040300DF38
S21400124015FE3FE115FF7FE115FD3FE0065A000061
S21400125017FDBFE0040340013A880910C0C3000030
S2140012603A88071017FEBFE03A88C51017028010AC
S2140012700E36800017FDBFE0040340013A880910CF
S214001280C0C300003A88071017FEBFE03A88C510B2
S214001290170080101609001017FDBFE00403400178
S2140012A03A880910C0C300003A88071017FEBFE04E
S2140012B03A88C510170180100E19001017FDBFE000
S2140012C0040340013A880910C0C300003A8807109A
S2140012D017FEBFE03A88C5101502001017FDBFE0E4
S2140012E0040340013A880910C0C300003A8807107A
S2140012F017FEBFE03A88C5101500001017FDBFE0C6
S214001300040340013A880910C0C300003A88071059
S21400131017FEBFE03A88C51015010010062300002E
S21400132017FDBFE0040340013A880910C0C300005F
S2140013303A88071017FEBFE03A88C5101702C0109B
S214001340C4FFFF181502C0100618000017FDBFE006
S214001350040340013A880910C0C300003A88071009
S21400136017FEBFE03A88C5101502001017FDBFE053
S214001370040340013A880910C0C300003A880710E9
S21400138017FEBFE03A88C5101500001017FDBFE035
S214001390040340013A880910C0C300003A880710C9
S2140013A017FEBFE03A88C5101501001017FDBFE014
S2140013B04400801015FDBFE017FDFFE017FFBFE0FB
S2140013C016A3BF183A8801003A8837E01701C0DF35
S2140013D0170000DF0402C0DE3A2800F804F8FFDE3B
S2140013E01507C0DF150600DF150500DC040600DF64
S2140013F015FB3FE115FC7FE115FDBFE115FEFFE1A2
S21400140015FA3FE0063A000017FABFE00403400171
S2140014103A880910C0C300003A88071017FDBFE0DD
S2140014203A88C5101700001417FABFE004034001FD
S2140014303A880910C0C300003A88071017FDBFE0BD
S2140014403A88C510170180103A88A18017FABFE0C5
S214001450040340013A880910C0C300003A88071008
S21400146017FDBFE03A88C510170280103A888580BD
S2140014701E1C001017FABFE0040340013A8809104A
S214001480C0C300003A88071017FDBFE03A88C510B1
S21400149017FBFFE01500C01017FABFE00403400179
S2140014A03A880910C0C300003A88071017FDBFE04D
S2140014B03A88C51017FCFFE01501C01017FABFE008
S2140014C0040340013A880910C0C300003A88071098
S2140014D017FDBFE03A88C510C403C0001502C0104F
S2140014E00606000017FABFE04400801015FABFE0B9
S2140014F017FAFFE017FEBFE016C3BF1804FFFFE6AB
S2140015001702C0DF170100DF170000DC0403C0DE8F
S2140015103A2800F804F9FFDE1506C0DF150500DFDF
S214001520040500DF15FC3FE115FD7FE115FEBFE178
S21400153015FFFFE1170280E0150080D817FFFFE1D6
S21400154017FEBFE117FD7FE117FC3FE1C0FA000080
S2140015501E0C0010170280E01701C010170280E072
S214001560170280103A888518083C80101E05001067
S214001570170280E0170180104400C010170280E0B8
S2140015801501C0103A8801003A8837E01701C0DF1D
S214001590170000DF0402C0DE3A2800F804FEFFDE73
S2140015A01501C0DF150000DF3A8839D8C08C00006E
S2140015B03A8805003A8837E01701C0DF170000DFD9
S2140015C00402C0DE3A2800F804FAFFDE150500DF44
S2140015D0040500DF15FD3FE115FE7FE115FFBFE1C5
S2140015E017FEBFE015FCBFE015FB3FE0061300004A
S2140015F03A88010034C8BF00040184103700801008
S214001600ECFFBF1026FB3F1017FCBFE04400C010E5
S21400161015FCFFE003008010CC3FC0101C20C01853
S21400162004E0FF1834C8BF00040084103500C01062
S21400163017FBBFE04400801015FBBFE017FBFFE080
S21400164017FFBFE036EABF1817FFBFE03A8837E05B
S214001650170000DF0401C0DE3A2800F804F7FFDEBA
S214001660150800DF040800DF15FD3FE115FE7FE1E9
S21400167015FFBFE117FEBFE015FABFE034C8BF0094
S214001680040084103700801015F9BFE017F9BFE09A
S2140016900C00A01026F93F1017F9BFE03AD4051049
S2140016A04400801015FBBFE017FBBFE017FFFFE00C
S2140016B02E0180183A88051815FCBFE015F83FE0A3
S2140016C0060C000017FABFE04400C01015FAFFE051
S2140016D017F9FFE00500C01034C8BF0004008410EE
S2140016E03700801015F9BFE017F8BFE044008010FF
S2140016F015F8BFE017F8FFE017FCBFE016F1BF18BB
S21400170017FCBFE03A8837E0170000DF0401C0DEB0
S2140017103A2800F8B40180000414901017008010D6
S21400172015290011152A00103A2800F8B401800087
S21400173004FEFFDE04149010150000DC17000014F1
S2140017401501C0DF7425930117290081172A4081EF
S214001750B414D60144CB9F31440BFD3940C600007B
S214001760440000113A8085203A88C7103400A00053
S214001770C4FFBF103A70841815290081152AC0804E
S2140017801701C0DF170000DC0402C0DE3A2800F8AC
S2140017903A2800F8B4018000B401800104159010C6
S2140017A00415903104FFFFDE3A880B003A880910D2
S2140017B03AC88D301500C0DF807D01000079010039
S2140017C03A8809003A880D003A880B00C059010093
S2140017D03A880910C07D01004181010004FEFFDE49
S2140017E03A880B00150000DC1501C0DF3A8821207E
S2140017F0C0930100B401800004139010170000117C
S214001800170F8020260100103AE83E103A8809801B
S21400181000AC0100CC00C0203A8805202644001801
S214001820C4FFFF31264000303A8813283A880D203E
S2140018303A88072006040000C4FF3F3A440080317F
S214001840263900383A880F404400C0180500403258
S214001850CC00001A1EF83F40C40000012E2DC02107
S214001860CC3F00293A920C203AB008313A940C202A
S2140018703AB08C21C40300012E18C02104FC3F3B63
S2140018803AD118600401001A0402C01A3A9108609E
S2140018900403801A3A881318040500213A880919A7
S2140018A015008049150080411500805915008051AB
S2140018B0040400420404404A0404C05A040480524B
S2140018C01EF73F41440000633A911860CC03C039CC
S2140018D0C40000013A88071B2E0EC0213A88131850
S2140018E03A881138C40000011500804904FF3F42C1
S2140018F00401404A36FC3F2204FF3F39BAD0082094
S214001900CC00C039440000213A8809213A880921D0
S2140019103A880719260500383A88CF190500401975
S2140019204400C0181EFDFF383A2800F83A2800F890
S2140019303A8807203A880F3006C73F0004F5FFDED6
S214001940150900DF150640DD150380DC150AC0DF2B
S2140019501508C0DD150780DD150500DD1504C0DCA3
S214001960150240DC150100DC150000D93A8839283C
S21400197044008004C4FF7F05B40180000413901067
S21400198017000012175200450452C044261C00A03F
S214001990170180A0C4FFFF15160D00B84400001400
S2140019A03A8821843A882184042040843A8863A4B3
S2140019B03A8821A4261E00E017408080261C80E07E
S2140019C0C4FFFFBD04FF3F8404FF7F8C1EF97FBD6C
S2140019D0340080000400801026090010170180A043
S2140019E01E300010170080A0263200103A8809A08A
S2140019F015008098000000001700009D1EE43FA020
S214001A00170AC0DF170900DF1708C0DD170780DDDB
S214001A10170640DD170500DD1704C0DC170380DC61
S214001A20170240DC170100DC040BC0DE3A2800F881
S214001A30170180A01700C080C4FFBF102614C01571
S214001A401500008026DE3F183A98C895176280A0D9
S214001A50170180A53A708420260B0010176380A01B
S214001A603A7088201E0C002017004089170000D905
S214001A703AE83E18170180A01EBFBF1517008098D1
S214001A8026CF3F1506BC3F003AE83E1806F93F0051
S214001A901501C0A506EB3F00170000893AE83E187E
S214001AA006F43F00170080A03A8827A03A8829103D
S214001AB006B63F003A88050006FB3F003A2800F8C5
S214001AC004FEFFDE150000DC1501C0DF3A88212089
S214001AD0C0AB01003A88058006FF3F001701C0DF53
S210001AE0170000DC0402C0DE3A2800F804
S208001AEC43000000AE
S214001AF000000000000000000000000000000000E1
S214001B0000000000000000000000000000000000D0
S214001B1000000000000000000000000000000000C0
S214001B2000000000000000000000000000000000B0
S21403DF00424D48580200000000004600000038005A
S21403DF1000004001000010FFFFFF01001000030097
S21403DF20000002580200120B0000120B0000000053
S21403DF3000000000000000F80000E00700001F00DB
S21403DF40000000000000F943B933B933B933B933DD
S21403DF50B933B933B933B933B933B933B933B93359
S21403DF60B933B933B933B933B933B933B933B93349
S21403DF70B933B933B933B933B933B933B933B93339
S21403DF80B933B933B933B933B933B933B933B93329
S21403E1C0B933B933F9439933592359235923592377
S21403E1D05923592359235923592359235923592357
S21403E1E05923592359235923592359235923592347
S21403E1F05923592359235923592359235923592337
S21403E2005923592359235923592359235923592326
S21403E440592359239933B933592359235923592324
S21403E45059235923592359235923592359235923D4
S21403E46059235923592359235923592359235923C4
S21403E47059235923592359235923592359235923B4
S21403E48059235923592359235923592359235923A4
S21403E6C059235923B933B933592359235923592382
S21403E6D05923592359235923592359235923592352
S21403E6E05923592359235923592359235923592342
S21403E6F05923592359235923592359235923592332
S21403E7005923592359235923592359235923592321
S21403E94059235923B933B9335923592359235923FF
S21403E95059235923592359235923592359235923CF
S21403E96059235923592359235923592359235923BF
S21403E97059235923592359235923592359235923AF
S21403E980592359235923592359235923592359239F
S21403EBC059235923B933B93359235923592359237D
S21403EBD0592359235923592359235923592359234D
S21403EBE0592359235923592359235923592359233D
S21403EBF0592359235923592359235923592359232D
S21403EC00592359235923592359235923592359231C
S21403EE4059235923B933B9335923592359235923FA
S21403EE5059235923592359235923592359235923CA
S21403EE6059235923592359235923592359235923BA
S21403EE7059235923592359235923592359235923AA
S21403EE80592359235923592359235923592359239A
S21403F0C059235923B933B933592359235923592378
S21403F0D05923592359235923592359235923592348
S21403F0E05923592359235923592359235923592338
S21403F0F05923592359235923592359235923592328
S21403F1005923592359235923592359235923592317
S21403F34059235923B933B9335923592359235923F5
S21403F35059235923592359235923592359235923C5
S21403F36059235923592359235923592359235923B5
S21403F37059235923592359235923592359235923A5
S21403F3805923592359235923592359235923592395
S21403F5C059235923B933B933592359235923592373
S21403F5D05923592359235923592359235923592343
S21403F5E05923592359235923592359235923592333
S21403F5F05923592359235923592359235923592323
S21403F6005923592359235923592359235923592312
S21403F84059235923B933B9335923592359235923F0
S21403F85059235923592359235923592359235923C0
S21403F86059235923592359235923592359235923B0
S21403F87059235923592359235923592359235923A0
S21403F8805923592359235923592359235923592390
S21403FAC059235923B933B93359235923592359236E
S21403FAD0592359235923592359235923592359233E
S21403FAE0592359235923592359235923592359232E
S21403FAF0592359235923592359235923592359231E
S21403FB00592359235923592359235923592359230D
S21403FD4059235923B933B9335923592359235923EB
S21403FD5059235923592359235923592359235923BB
S21403FD6059235923592359235923592359235923AB
S21403FD70592359235923592359235923592359239B
S21403FD80592359235923592359235923592359238B
S21403FFC059235923B933B933592359235923592369
S21403FFD05923592359235923592359235923592339
S21403FFE05923592359235923592359235923592329
S21403FFF05923592359235923592359235923592319
S2140400005923592359235923592359235923592307
S21404024059235923B933B9335923592359235923E5
S21404025059235923592359235923592359235923B5
S21404026059235923592359235923592359235923A5
S2140402705923592359235923592359235923592395
S2140402805923592359235923592359235923592385
S2140404C059235923B933B933592359235923592363
S2140404D05923592359235923592359235923592333
S2140404E05923592359235923592359235923592323
S2140404F05923592359235923592359235923592313
S2140405005923592359235923592359235923592302
S21404074059235923B933B9335923592359235923E0
S21404075059235923592359235923592359235923B0
S21404076059235923592359235923592359235923A0
S2140407705923592359235923592359235923592390
S2140407805923592359235923592359235923592380
S2140409C059235923B933B93359235923592359235E
S2140409D0592359235923592359235923592359232E
S2140409E0592359235923592359235923592359231E
S2140409F0592359235923592359235923592359230E
S214040A0059235923592359235923592359235923FD
S214040C4059235923B933B9335923592359235923DB
S214040C5059235923592359235923592359235923AB
S214040C60592359235923592359235923592359239B
S214040C70592359235923592359235923592359238B
S214040C80592359235923592359235923592359237B
S214040EC059235923B933B933592359235923592359
S214040ED05923592359235923592359235923592329
S214040EE05923592359235923592359235923592319
S214040EF05923592359235923592359235923592309
S214040F0059235923592359235923592359235923F8
S21404114059235923B933B9335923592359235923D6
S21404115059235923592359235923592359235923A6
S2140411605923592359235923592359235923592396
S2140411705923592359235923592359235923592386
S2140411805923592359235923592359235923592376
S2140413C059235923B933B933592359235923592354
S2140413D05923592359235923592359235923592324
S2140413E05923592359235923592359235923592314
S2140413F05923592359235923592359235923592304
S21404140059235923592359235923592359235923F3
S21404164059235923B933B9335923592359235923D1
S21404165059235923592359235923592359235923A1
S2140416605923592359235923592359235923592391
S2140416705923592359235923592359235923592381
S2140416805923592359235923592359235923592371
S2140418C059235923B933B93359235923592359234F
S2140418D0592359235923592359235923592359231F
S2140418E0592359235923592359235923592359230F
S2140418F059235923592359235923592359235923FF
S21404190059235923592359235923592359235923EE
S214041B4059235923B933B9335923592359235923CC
S214041B50592359235923592359235923592359239C
S214041B60592359235923592359235923592359238C
S214041B70592359235923592359235923592359237C
S214041B80592359235923592359235923592359236C
S214041DC059235923B933B93359235923592359234A
S214041DD0592359235923592359235923592359231A
S214041DE0592359235923592359235923592359230A
S214041DF059235923592359235923592359235923FA
S214041E0059235923592359235923592359235923E9
S21404204059235923B933B9335923592359235923C7
S2140420505923592359235923592359235923592397
S2140420605923592359235923592359235923592387
S2140420705923592359235923592359235923592377
S2140420805923592359235923592359235923592367
S2140422C059235923B933B933592359235923592345
S2140422D05923592359235923592359235923592315
S2140422E05923592359235923592359235923592305
S2140422F059235923592359235923592359235923F5
S21404230059235923592359235923592359235923E4
S21404254059235923B933B9335923592359235923C2
S2140425505923592359235923592359235923592392
S2140425605923592359235923592359235923592382
S2140425705923592359235923592359235923592372
S2140425805923592359235923592359235923592362
S2140427C059235923B933B933592359235923592340
S2140427D05923592359235923592359235923592310
S2140427E05923592359235923592359235923592300
S2140427F059235923592359235923592359235923F0
S21404280059235923592359235923592359235923DF
S214042A4059235923B933B9335923592359235923BD
S214042A50592359235923592359235923592359238D
S214042A60592359235923592359235923592359237D
S214042A70592359235923592359235923592359236D
S214042A80592359235923592359235923592359235D
S214042CC059235923B933B93359235923592359233B
S214042CD0592359235923592359235923592359230B
S214042CE059235923592359235923592359235923FB
S214042CF059235923592359235923592359235923EB
S214042D0059235923592359235923592359235923DA
S214042F4059235923B933B9335923592359235923B8
S214042F505923592359235923592359235923592388
S214042F605923592359235923592359235923592378
S214042F705923592359235923592359235923592368
S214042F805923592359235923592359235923592358
S2140431C059235923B933B933592359235923592336
S2140431D05923592359235923592359235923592306
S2140431E059235923592359235923592359235923F6
S2140431F059235923592359235923592359235923E6
S21404320059235923592359235923592359235923D5
S21404344059235923B933B9335923592359235923B3
S2140434505923592359235923592359235923592383
S2140434605923592359235923592359235923592373
S2140434705923592359235923592359235923592363
S2140434805923592359235923592359235923592353
S2140436C059235923B933B933592359235923592331
S2140436D05923592359235923592359235923592301
S2140436E059235923592359235923592359235923F1
S2140436F059235923592359235923592359235923E1
S21404370059235923592359235923592359235923D0
S21404394059235923B933B9335923592359235923AE
S214043950592359235923592359235923592359237E
S214043960592359235923592359235923592359236E
S214043970592359235923592359235923592359235E
S214043980592359235923592359235923592359234E
S214043BC059235923B933B93359235923592359232C
S214043BD059235923592359235923592359235923FC
S214043BE059235923592359235923592359235923EC
S214043BF059235923592359235923592359235923DC
S214043C0059235923592359235923592359235923CB
S214043E4059235923B933B9335923592359235923A9
S214043E505923592359235923592359235923592379
S214043E605923592359235923592359235923592369
S214043E705923592359235923592359235923592359
S214043E805923592359235923592359235923592349
S2140440C059235923B933B933592359235923592327
S2140440D059235923592359235923592359235923F7
S2140440E059235923592359235923592359235923E7
S2140440F059235923592359235923592359235923D7
S21404410059235923592359235923592359235923C6
S21404434059235923B933B9335923592359235923A4
S2140443505923592359235923592359235923592374
S2140443605923592359235923592359235923592364
S2140443705923592359235923592359235923592354
S2140443805923592359235923592359235923592344
S2140445C059235923B933B933592359235923592322
S2140445D059235923592359235923592359235923F2
S2140445E059235923592359235923592359235923E2
S2140445F059235923592359235923592359235923D2
S21404460059235923592359235923592359235923C1
S21404484059235923B933B93359235923592359239F
S214044850592359235923592359235923592359236F
S214044860592359235923592359235923592359235F
S214044870592359235923592359235923592359234F
S214044880592359235923592359235923592359233F
S214044AC059235923B933B93359235923592359231D
S214044AD059235923592359235923592359235923ED
S214044AE059235923592359235923592359235923DD
S214044AF059235923592359235923592359235923CD
S214044B0059235923592359235923592359235923BC
S214044D4059235923B933B93359235923592359239A
S214044D50592359235923592359235923592359236A
S214044D60592359235923592359235923592359235A
S214044D70592359235923592359235923592359234A
S214044D80592359235923592359235923592359233A
S214044FC059235923B933B933592359235923592318
S214044FD059235923592359235923592359235923E8
S214044FE059235923592359235923592359235923D8
S214044FF059235923592359235923592359235923C8
S21404500059235923592359235923592359235923B7
S21404524059235923B933B933592359235923592395
S2140452505923592359235923592359235923592365
S2140452605923592359235923592359235923592355
S2140452705923592359235923592359235923592345
S2140452805923592359235923592359235923592335
S2140454C059235923B933B933592359235923592313
S2140454D059235923592359235923592359235923E3
S2140454E059235923592359235923592359235923D3
S2140454F059235923592359235923592359235923C3
S21404550059235923592359235923592359235923B2
S21404574059235923B933B933592359235923592390
S2140457505923592359235923592359235923592360
S2140457605923592359235923592359235923592350
S2140457705923592359235923592359235923592340
S2140457805923592359235923592359235923592330
S2140459C059235923B933B93359235923592359230E
S2140459D059235923592359235923592359235923DE
S2140459E059235923592359235923592359235923CE
S2140459F059235923592359235923592359235923BE
S214045A0059235923592359235923592359235923AD
S214045C4059235923B933B93359235923592359238B
S214045C50592359235923592359235923592359235B
S214045C60592359235923592359235923592359234B
S214045C70592359235923592359235923592359233B
S214045C80592359235923592359235923592359232B
S214045EC059235923B933B933592359235923592309
S214045ED059235923592359235923592359235923D9
S214045EE059235923592359235923592359235923C9
S214045EF059235923592359235923592359235923B9
S214045F0059235923592359235923592359235923A8
S21404614059235923B933B933592359235923592386
S2140461505923592359235923592359235923592356
S2140461605923592359235923592359235923592346
S2140461705923592359235923592359235923592336
S2140461805923592359235923592359235923592326
S2140463C059235923B933B933592359235923592304
S2140463D059235923592359235923592359235923D4
S2140463E059235923592359235923592359235923C4
S2140463F059235923592359235923592359235923B4
S21404640059235923592359235923592359235923A3
S21404664059235923B933B933592359235923592381
S2140466505923592359235923592359235923592351
S2140466605923592359235923592359235923592341
S2140466705923592359235923592359235923592331
S2140466805923592359235923592359235923592321
S2140468C059235923B933B9335923592359235923FF
S2140468D059235923592359235923592359235923CF
S2140468E059235923592359235923592359235923BF
S2140468F059235923592359235923592359235923AF
S214046900592359235923592359235923592359239E
S214046B4059235923B933B93359235923592359237C
S214046B50592359235923592359235923592359234C
S214046B60592359235923592359235923592359233C
S214046B70592359235923592359235923592359232C
S214046B80592359235923592359235923592359231C
S214046DC059235923B933B9335923592359235923FA
S214046DD059235923592359235923592359235923CA
S214046DE059235923592359235923592359235923BA
S214046DF059235923592359235923592359235923AA
S214046E005923592359235923592359235923592399
S21404704059235923B933B933592359235923592377
S2140470505923592359235923592359235923592347
S2140470605923592359235923592359235923592337
S2140470705923592359235923592359235923592327
S2140470805923592359235923592359235923592317
S2140472C059235923B933B9335923592359235923F5
S2140472D059235923592359235923592359235923C5
S2140472E059235923592359235923592359235923B5
S2140472F059235923592359235923592359235923A5
S2140473005923592359235923592359235923592394
S21404754059235923B933B9337923792379237923F2
S2140475507923792379237923792379237923792342
S2140475607923792379237923792379237923792332
S2140475707923792379237923792379237923792322
S2140475807923792379237923792379237923792312
S2140477C079237923B933B933792379237923792330
S2140477D079237923792379237923792379237923C0
S2140477E079237923792379237923792379237923B0
S2140477F079237923792379237923792379237923A0
S214047800792379237923792379237923792379238F
S214047A4079237923B933B9337923792379237923AD
S214047A50792379237923792379237923792379233D
S214047A60792379237923792379237923792379232D
S214047A70792379237923792379237923792379231D
S214047A80792379237923792379237923792379230D
S214047CC079237923B933B93379237923792379232B
S214047CD079237923792379237923792379237923BB
S214047CE079237923792379237923792379237923AB
S214047CF0792379237923792379237923792379239B
S214047D00792379237923792379237923792379238A
S214047F4079237923B933B9337923792379237923A8
S214047F507923792379237923792379237923792338
S214047F607923792379237923792379237923792328
S214047F707923792379237923792379237923792318
S214047F807923792379237923792379237923792308
S2140481C079237923B933B933792379237923792326
S2140481D079237923792379237923792379237923B6
S2140481E079237923792379237923792379237923A6
S2140481F07923792379237923792379237923792396
S2140482007923792379237923792379237923792385
S21404844079237923B933D933992399239923992303
S2140484509923992399239923992399239923992333
S2140484609923992399239923992399239923992323
S2140484709923992399239923992399239923992313
S2140484809923992399239923992399239923992303
S21404849099239923992399239923992399239923F3
S2140484A099239923992399239923992399239923E3
S2140484B099239923992399239923992399239923D3
S2140484C099239923992399239923992399239923C3
S2140484D099239923992399239923992399239923B3
S2140484E099239923992399239923992399239923A3
S2140484F09923992399239923992399239923992393
S2140485009923992399239823982B9823982B992376
S2140485109923782B9923992398239823982399238E
S2140485209923992399239923992399239923992362
S2140485309923992399239923992399239923992352
S2140485409923992399239923992399239923992342
S2140485509923992399239923992399239923992332
S2140485609923992399239923992399239923992322
S2140485709923992399239923992399239923992312
S2140485809923992399239923992399239923992302
S21404859099239923992399239923992399239923F2
S2140485A099239923992399239923992399239923E2
S2140485B099239923992399239923992399239923D2
S2140485C099239923992399239923992399239923C2
S2140485D099239923992399239923992399239923B2
S2140485E099239923992399239923992399239923A2
S2140485F09923992399239923992399239923992392
S2140486009923992399239923992399239923992381
S2140486109923992399239923992399239923992371
S2140486209923992399239923992399239923992361
S2140486309923992399239923992399239923992351
S2140486409923992399239923992399239923992341
S2140486509923992399239923992399239923992331
S2140486609923992399239923992399239923992321
S2140486709923992399239923992399239923992311
S2140486809923992399239923992399239923992301
S21404869099239923992399239923992399239923F1
S2140486A099239923992399239923992399239923E1
S2140486B099239923992399239923992399239923D1
S2140486C099239923D933D933982398239823982325
S2140486D098239823982398239823982398239823B9
S2140486E098239823982398239823982398239823A9
S2140486F09823982398239823982398239823982399
S2140487009823982398239823982398239823982388
S2140487109823982398239823982398239823982378
S2140487209823982398239823982398239823982368
S2140487309823982398239823982398239823982358
S2140487409823982398239823982398239823982348
S2140487509823982398239823982398239823982338
S2140487609823982398239823982398239823982328
S2140487709823982398239823982398239823982318
S21404878098239823B923B823B823B9239823982386
S214048790B923992B9823B823992B992B9923B9237A
S2140487A0B82B982B982398239823982398239823B8
S2140487B098239823982398239823982398239823D8
S2140487C098239823982398239823982398239823C8
S2140487D098239823982398239823982398239823B8
S2140487E098239823982398239823982398239823A8
S2140487F09823982398239823982398239823982398
S2140488009823982398239823982398239823982387
S2140488109823982398239823982398239823982377
S2140488209823982398239823982398239823982367
S2140488309823982398239823982398239823982357
S2140488409823982398239823982398239823982347
S2140488509823982398239823982398239823982337
S2140488609823982398239823982398239823982327
S2140488709823982398239823982398239823982317
S2140488809823982398239823982398239823982307
S21404889098239823982398239823982398239823F7
S2140488A098239823982398239823982398239823E7
S2140488B098239823982398239823982398239823D7
S2140488C098239823982398239823982398239823C7
S2140488D098239823982398239823982398239823B7
S2140488E098239823982398239823982398239823A7
S2140488F09823982398239823982398239823982397
S2140489009823982398239823982398239823982386
S2140489109823982398239823982398239823982376
S2140489209823982398239823982398239823982366
S2140489309823982398239823982398239823982356
S21404894098239823D933D9339823982398239823A4
S2140489509823982398239823982398239823982336
S2140489609823982398239823982398239823982326
S2140489709823982398239823982398239823982316
S2140489809823982398239823982398239823982306
S21404899098239823982398239823982398239823F6
S2140489A098239823982398239823982398239823E6
S2140489B098239823982398239823982398239823D6
S2140489C098239823982398239823982398239823C6
S2140489D098239823982398239823982398239823B6
S2140489E098239823982398239823982398239823A6
S2140489F09823982398239823982398239823982396
S214048A009823982398239823982399239923992382
S214048A10992399239823992B9823B7239923B8232A
S214048A209823982398239823982398239823982365
S214048A309823982398239823982398239823982355
S214048A409823982398239823982398239823982345
S214048A509823982398239823982398239823982335
S214048A609823982398239823982398239823982325
S214048A709823982398239823982398239823982315
S214048A809823982398239823982398239823982305
S214048A9098239823982398239823982398239823F5
S214048AA098239823982398239823982398239823E5
S214048AB098239823982398239823982398239823D5
S214048AC098239823982398239823982398239823C5
S214048AD098239823982398239823982398239823B5
S214048AE098239823982398239823982398239823A5
S214048AF09823982398239823982398239823982395
S214048B009823982398239823982398239823982384
S214048B109823982398239823982398239823982374
S214048B209823982398239823982398239823982364
S214048B309823982398239823982398239823982354
S214048B409823982398239823982398239823982344
S214048B509823982398239823982398239823982334
S214048B609823982398239823982398239823982324
S214048B709823982398239823982398239823982314
S214048B809823982398239823982398239823982304
S214048B9098239823982398239823982398239823F4
S214048BA098239823982398239823982398239823E4
S214048BB098239823982398239823982398239823D4
S214048BC098239823D933D933982398239823982322
S214048BD098239823982398239823982398239823B4
S214048BE098239823982398239823982398239823A4
S214048BF09823982398239823982398239823982394
S214048C009823982398239823982398239823982383
S214048C109823982398239823982398239823982373
S214048C209823982398239823982398239823982363
S214048C309823982398239823982398239823982353
S214048C409823982398239823982398239823982343
S214048C509823982398239823982398239823982333
S214048C609823982398239823982398239823982323
S214048C709823982398239823982398239823982313
S214048C80982398239923982B972BB9237823581B3A
S214048C907913581B791B591B991BB823792B782BEE
S214048CA09923B823B82398239823982398239823A2
S214048CB098239823982398239823982398239823D3
S214048CC098239823982398239823982398239823C3
S214048CD098239823982398239823982398239823B3
S214048CE098239823982398239823982398239823A3
S214048CF09823982398239823982398239823982393
S214048D009823982398239823982398239823982382
S214048D109823982398239823982398239823982372
S214048D209823982398239823982398239823982362
S214048D309823982398239823982398239823982352
S214048D409823982398239823982398239823982342
S214048D509823982398239823982398239823982332
S214048D609823982398239823982398239823982322
S214048D709823982398239823982398239823982312
S214048D809823982398239823982398239823982302
S214048D9098239823982398239823982398239823F2
S214048DA098239823982398239823982398239823E2
S214048DB098239823982398239823982398239823D2
S214048DC098239823982398239823982398239823C2
S214048DD098239823982398239823982398239823B2
S214048DE098239823982398239823982398239823A2
S214048DF09823982398239823982398239823982392
S214048E009823982398239823982398239823982381
S214048E109823982398239823982398239823982371
S214048E209823982398239823982398239823982361
S214048E309823982398239823982398239823982351
S214048E4098239823D933F933B823B823B823B823FF
S214048E50B823B823B823B823B823B823B823B82331
S214048E60B823B823B823B823B823B823B823B82321
S214048E70B823B823B823B823B823B823B823B82311
S214048E80B823B823B823B823B823B823B823B82301
S214048E90B823B823B823B823B823B823B823B823F1
S214048EA0B823B823B823B823B823B823B823B823E1
S214048EB0B823B823B823B823B823B823B823B823D1
S214048EC0B823B823B823B823B823B823B823B823C1
S214048ED0B823B823B823B823B823B823B823B823B1
S214048EE0B823B823B823B823B823B823B823B823A1
S214048EF0B823B823B823B823B823B823B823B82391
S214048F00B823B823B823B823B823B91339851AAEBF
S214048F10FBA5FAADFAA51AAE5954991BD823D72344
S214048F20B823B923B823B823B823B823B823B8235F
S214048F30B823B823B823B823B823B823B823B82350
S214048F40B823B823B823B823B823B823B823B82340
S214048F50B823B823B823B823B823B823B823B82330
S214048F60B823B823B823B823B823B823B823B82320
S214048F70B823B823B823B823B823B823B823B82310
S214048F80B823B823B823B823B823B823B823B82300
S214048F90B823B823B823B823B823B823B823B823F0
S214048FA0B823B823B823B823B823B823B823B823E0
S214048FB0B823B823B823B823B823B823B823B823D0
S214048FC0B823B823B823B823B823B823B823B823C0
S214048FD0B823B823B823B823B823B823B823B823B0
S214048FE0B823B823B823B823B823B823B823B823A0
S214048FF0B823B823B823B823B823B823B823B82390
S214049000B823B823B823B823B823B823B823B8237F
S214049010B823B823B823B823B823B823B823B8236F
S214049020B823B823B823B823B823B823B823B8235F
S214049030B823B823B823B823B823B823B823B8234F
S214049040B823B823B823B823B823B823B823B8233F
S214049050B823B823B823B823B823B823B823B8232F
S214049060B823B823B823B823B823B823B823B8231F
S214049070B823B823B823B823B823B823B823B8230F
S214049080B823B823B823B823B823B823B823B823FF
S214049090B823B823B823B823B823B823B823B823EF
S2140490A0B823B823B823B823B823B823B823B823DF
S2140490B0B823B823B823B823B823B823B823B823CF
S2140490C0B823B823F933F933B823B823B823B8231D
S2140490D0B823B823B823B823B823B823B823B823AF
S2140490E0B823B823B823B823B823B823B823B8239F
S2140490F0B823B823B823B823B823B823B823B8238F
S214049100B823B823B823B823B823B823B823B8237E
S214049110B823B823B823B823B823B823B823B8236E
S214049120B823B823B823B823B823B823B823B8235E
S214049130B823B823B823B823B823B823B823B8234E
S214049140B823B823B823B823B823B823B823B8233E
S214049150B823B823B823B823B823B823B823B8232E
S214049160B823B823B823B823B823B823B823B8231E
S214049170B823B823B823B823B823B823B823B8230E
S214049180B823B823981B9813981B78035ABEBBFFC2
S2140491909BFF7BFF9BFFDBFFD974771BF723D7234B
S2140491A0D823B92BB823B823B823B823B823B823B5
S2140491B0B823B823B823B823B823B823B823B823CE
S2140491C0B823B823B823B823B823B823B823B823BE
S2140491D0B823B823B823B823B823B823B823B823AE
S2140491E0B823B823B823B823B823B823B823B8239E
S2140491F0B823B823B823B823B823B823B823B8238E
S214049200B823B823B823B823B823B823B823B8237D
S214049210B823B823B823B823B823B823B823B8236D
S214049220B823B823B823B823B823B823B823B8235D
S214049230B823B823B823B823B823B823B823B8234D
S214049240B823B823B823B823B823B823B823B8233D
S214049250B823B823B823B823B823B823B823B8232D
S214049260B823B823B823B823B823B823B823B8231D
S214049270B823B823B823B823B823B823B823B8230D
S214049280B823B823B823B823B823B823B823B823FD
S214049290B823B823B823B823B823B823B823B823ED
S2140492A0B823B823B823B823B823B823B823B823DD
S2140492B0B823B823B823B823B823B823B823B823CD
S2140492C0B823B823B823B823B823B823B823B823BD
S2140492D0B823B823B823B823B823B823B823B823AD
S2140492E0B823B823B823B823B823B823B823B8239D
S2140492F0B823B823B823B823B823B823B823B8238D
S214049300B823B823B823B823B823B823B823B8237C
S214049310B823B823B823B823B823B823B823B8236C
S214049320B823B823B823B823B823B823B823B8235C
S214049330B823B823B823B823B823B823B823B8234C
S214049340B823B823F933F933B823B823B823B8239A
S214049350B823B823B823B823B823B823B823B8232C
S214049360B823B823B823B823B823B823B823B8231C
S214049370B823B823B823B823B823B823B823B8230C
S214049380B823B823B823B823B823B823B823B823FC
S214049390B823B823B823B823B823B823B823B823EC
S2140493A0B823B823B823B823B823B823B823B823DC
S2140493B0B823B823B823B823B823B823B823B823CC
S2140493C0B823B823B823B823B823B823B823B823BC
S2140493D0B823B823B823B823B823B823B823B823AC
S2140493E0B823B823B823B823B823B823B823B8239C
S2140493F0B823B823B823B823B823B823B823B8238C
S214049400B823981B9A955AB639B63AAEFAE65AFF76
S2140494103BFF3AFF1BEF3AEFB9751735572CB923C4
S214049420D923D823B823B823B823B823B823B8231A
S214049430B823B823B823B823B823B823B823B8234B
S214049440B823B823B823B823B823B823B823B8233B
S214049450B823B823B823B823B823B823B823B8232B
S214049460B823B823B823B823B823B823B823B8231B
S214049470B823B823B823B823B823B823B823B8230B
S214049480B823B823B823B823B823B823B823B823FB
S214049490B823B823B823B823B823B823B823B823EB
S2140494A0B823B823B823B823B823B823B823B823DB
S2140494B0B823B823B823B823B823B823B823B823CB
S2140494C0B823B823B823B823B823B823B823B823BB
S2140494D0B823B823B823B823B823B823B823B823AB
S2140494E0B823B823B823B823B823B823B823B8239B
S2140494F0B823B823B823B823B823B823B823B8238B
S214049500B823B823B823B823B823B823B823B8237A
S214049510B823B823B823B823B823B823B823B8236A
S214049520B823B823B823B823B823B823B823B8235A
S214049530B823B823B823B823B823B823B823B8234A
S214049540B823B823B823B823B823B823B823B8233A
S214049550B823B823B823B823B823B823B823B8232A
S214049560B823B823B823B823B823B823B823B8231A
S214049570B823B823B823B823B823B823B823B8230A
S214049580B823B823B823B823B823B823B823B823FA
S214049590B823B823B823B823B823B823B823B823EA
S2140495A0B823B823B823B823B823B823B823B823DA
S2140495B0B823B823B823B823B823B823B823B823CA
S2140495C0B823B823F933F933B823B823B823B82318
S2140495D0B823B823B823B823B823B823B823B823AA
S2140495E0B823B823B823B823B823B823B823B8239A
S2140495F0B823B823B823B823B823B823B823B8238A
S214049600B823B823B823B823B823B823B823B82379
S214049610B823B823B823B823B823B823B823B82369
S214049620981B981B981B981B981B981B981B981B99
S214049630981B981BB823B823B823981BB823B823C1
S214049640B823B823B823B823981B981B981B981BD9
S214049650981B981B981B981B981B981B981B981B69
S214049660B823B823B823B823B823B823B823B82319
S214049670B823B823B823B823B823B823B823D823E9
S214049680B81B580B5AC6BBFF7CFF7AFF5CF73BFF40
S2140496903BFF5BFF1BE7DAE63976F645792C7A233F
S2140496A0D723B823B823B823B823B823B823B823BA
S2140496B0B823B823B823B823B823B823B823B823C9
S2140496C0B823B823B823B823B823B823B823B823B9
S2140496D0B823B823B823B823B823B823B823B823A9
S2140496E0B823B823B823B823B823B823B823B82399
S2140496F0B823B823B823B823B823B823B823B82389
S214049700B823B823B823B823B823B823B823B82378
S214049710B823B823B823B823B823B823B823B82368
S214049720B823B823B823B823B823B823B823B82358
S214049730B823B823B823B823B823B823B823B82348
S214049740B823B823B823B823B823B823B823B82338
S214049750B823B823B823B823B823B823B823B82328
S214049760B823B823B823B823B823B823B823B82318
S214049770B823B823B823B823B823B823B823B82308
S214049780B823B823B823B823B823B823B823B823F8
S214049790B823B823B823B823B823B823B823B823E8
S2140497A0B823B823B823B823B823B823B823B823D8
S2140497B0B823B823B823B823B823B823B823B823C8
S2140497C0B823B823B823B823B823B823B823B823B8
S2140497D0B823B823B823B823B823B823B823B823A8
S2140497E0B823B823B823B823B823B823B823B82398
S2140497F0B823B823B823B823B823B823B823B82388
S214049800B823B823B823B823B823B823B823B82377
S214049810B823B823B823B823B823B823B823B82367
S214049820B823B823B823B823B823B823B823B82357
S214049830B823B823B823B823B823B823B823B82347
S214049840B823B823F933F933B823B823B823B82395
S214049850B823B823B823B823B823B823B823B82327
S214049860B823B823B823B82BD823D82BD823B82B9F
S214049870D823D823B823B823B823B823B823B823C7
S214049880B823B823B823B82BD823D823D823B82B87
S214049890D823D823B92BBA23B723B823B81BB823A5
S2140498A01AB69AC65BC69AC6199EF995F99DFA9594
S2140498B0FA9D39963834982379851B9E3934B81B1B
S2140498C0B923B823B8239823F9A59AC67AC679C6C5
S2140498D07BC67BC63BBE39B6F99D18961896189E6D
S2140498E058449823D823B823B723B823B82BB923CE
S2140498F0B923B823D923B823B823B823B823981B8D
S214049900BA9D9AC61AEF5BFF3BFF3BFF1BE7FBE6DD
S214049910DACEBAC6B9C6BAC6F875D7451725D61C60
S214049920F614F61C381CB823B923B923B923B82374
S214049930B823D723B823D823DA1BD823D923D8238C
S214049940B72BD923D823B823B823B823B823B823EE
S214049950B823B823D823B823B823B823B823B82306
S214049960B823B823B823B823B823B823B823B82316
S214049970B823B823B823B823B823B823B823B82306
S214049980B823B823B823B823B823B823B823B823F6
S214049990B823B823B823B823B823B823B823B823E6
S2140499A0B823B823B823B823B823B823B823B823D6
S2140499B0B823B823B823B823B823B823B823B823C6
S2140499C0B823B823B823B823B823B823B823B823B6
S2140499D0B823B823B823B823B823B823B823B823A6
S2140499E0B823B823B823B823B823B823B823B82396
S2140499F0B823B823B823B823B823B823B823B82386
S214049A00B823B823B823B823B823B823B823B82375
S214049A10B823B823B823B823B823B823B823B82365
S214049A20B823B823B823B823B823B823B823B82355
S214049A30B823B823B823B823B823B823B823B82345
S214049A40B823B823B823B823B823B823B823B82335
S214049A50B823B823B823B823B823B823B823B82325
S214049A60B823B823B823B823B823B823B823B82315
S214049A70B823B823B823B823B823B823B823B82305
S214049A80B823B823B823B823B823B823B823B823F5
S214049A90B823B823B823B823B823B823B823B823E5
S214049AA0B823B823B823B823B823B823B823B823D5
S214049AB0B823B823B823B823B823B823B823B823C5
S214049AC0B823B823F9331834D823D823D823D82373
S214049AD0D823D823D823D823D823D823D823D823A5
S214049AE0D823D823D823B823D823B82BD823B92BE4
S214049AF0D823D823D823D823D823D823D823D82385
S214049B00D823D823D823B823D823B82BD823B92BC3
S214049B10D823D823D823D823D823B8239823991B0B
S214049B20DBE69CFF5CFF9BFFFACEDABEF8BED9BE2E
S214049B30D9C6D9C6583C981B58A6FAD65744971B7C
S214049B40B823B81BB81B981BBBD69CFF7BFF79FFBA
S214049B507BFF7BFF3AEF1AE7DAC6D9B6DABE19BF3F
S214049B60794C9823D81BBA1B9923B923B823D72B2F
S214049B70F81BB923982BB823B91BBA1BB91B771B40
S214049B805BBEBCFF5BFF3BFF3BFF3BFFFAE6FBDE37
S214049B90BABE99AE99B6BBBEF86DD73D76253515D7
S214049BA05515551D571CB823B823B82BB823D823EE
S214049BB0B823B823B82BB82BB82BB72BB823D82385
S214049BC0D823B823B823B823B823B823B823B82394
S214049BD0B823B823B823D823D823D823D823D82304
S214049BE0D823D823D823D823D823D823D823D82394
S214049BF0D823D823D823D823D823D823D823D82384
S214049C00D823D823D823D823D823D823D823D82373
S214049C10D823D823D823D823D823D823D823D82363
S214049C20D823D823D823D823D823D823D823D82353
S214049C30D823D823D823D823D823D823D823D82343
S214049C40D823D823D823D823D823D823D823D82333
S214049C50D823D823D823D823D823D823D823D82323
S214049C60D823D823D823D823D823D823D823D82313
S214049C70D823D823D823D823D823D823D823D82303
S214049C80D823D823D823D823D823D823D823D823F3
S214049C90D823D823D823D823D823D823D823D823E3
S214049CA0D823D823D823D823D823D823D823D823D3
S214049CB0D823D823D823D823D823D823D823D823C3
S214049CC0D823D823D823D823D823D823D823D823B3
S214049CD0D823D823D823D823D823D823D823D823A3
S214049CE0D823D823D823D823D823D823D823D82393
S214049CF0D823D823D823D823D823D823D823D82383
S214049D00D823D823D823D823D823D823D823D82372
S214049D10D823D823D823D823D823D823D823D82362
S214049D20D823D823D823D823D823D823D823D82352
S214049D30D823D823D823D823D823D823D823D82342
S214049D40D823D82318341934D823D823D823D8238F
S214049D50D823D823F823F823F823F823F823F82362
S214049D60F823F823D823D823F71BD723F81BD823A4
S214049D70D823D823F823F823F823F823F823F82342
S214049D80F823F823D823D823F71BD723F81BD82384
S214049D90D823D823F623F71B59BEBBD69BD6BBD6EF
S214049DA099CEB9C6B9C6D9BE597E19761876197E23
S214049DB0773D772D171DD61C562D772DF98D1AA6AF
S214049DC09BCEBACEBACEBBCEF9F63BFFFBEEFBDE9D
S214049DD0FBDE1ADFDAE6DBDEDADEFAD69ABEB9C6D0
S214049DE09944B80BB7853AA619AE59A67A3CD81347
S214049DF0F71BB81BD9ADDBD6BACEBACEBBCEBACE1D
S214049E00D9E6FAE63BF73BFF1AE71ADFD9C6B9B636
S214049E10B9B6B9BE1776D85D7735361D371D3615F3
S214049E2036153615161DD624D61CD61CF614F60C76
S214049E30F614F6143724D81BD823F81BF823F82373
S214049E40F823F823F823F823F823F823F823F82331
S214049E50F823F823F823D823D823D823D823D823C1
S214049E60D823D823D823D823D823D823D823D82311
S214049E70D823D823D823D823D823D823D823D82301
S214049E80D823D823D823D823D823D823D823D823F1
S214049E90D823D823D823D823D823D823D823D823E1
S214049EA0D823D823D823D823D823D823D823D823D1
S214049EB0D823D823D823D823D823D823D823D823C1
S214049EC0D823D823D823D823D823D823D823D823B1
S214049ED0D823D823D823D823D823D823D823D823A1
S214049EE0D823D823D823D823D823D823D823D82391
S214049EF0D823D823D823D823D823D823D823D82381
S214049F00D823D823D823D823D823D823D823D82370
S214049F10D823D823D823D823D823D823D823D82360
S214049F20D823D823D823D823D823D823D823D82350
S214049F30D823D823D823D823D823D823D823D82340
S214049F40D823D823D823D823D823D823D823D82330
S214049F50D823D823D823D823D823D823D823D82320
S214049F60D823D823D823D823D823D823D823D82310
S214049F70D823D823D823D823D823D823D823D82300
S214049F80D823D823D823D823D823D823D823D823F0
S214049F90D823D823D823D823D823D823D823D823E0
S214049FA0D823D823D823D823D823D823D823D823D0
S214049FB0D823D823D823D823D823D823D823D823C0
S214049FC0D823D82319343834F823F823F823F8236D
S214049FD0F823F823F823F823F823F823F823F823A0
S214049FE0F823F823F823D82BF823D82BF91BF923C6
S214049FF0191CF923F823F823F823F823F823F82365
S21404A000F823F823F823D82BF823D82BF91BF923A5
S21404A010F91BF923F923F923DBDE7CFF5BFF7BFFC7
S21404A020B9C6B9AEB9AEB9AE1976F85D375E18667C
S21404A030551D160D3615361D550D3605599E9BCEE7
S21404A0403AF77BFF7BFF7CFF3BFF3BF7FBE6FBD649
S21404A050DADEFADED9E6F9DED9E6FADEBABEBABE4A
S21404A060994CB81B1896FABEDAB619BFB74CD81B6B
S21404A070F62BD71B7AC69CFF5BFF5BFF7CFF7CFF3F
S21404A080FAEEDADE3BF73BFF1BDFFAD6B9C699B623
S21404A09099BE99C6375EB73D561D1615161D161D74
S21404A0A0361536153615561556155515351D361DE1
S21404A0B0361D56155724F923F923F82BF923F91BD3
S21404A0C0D82BD923F823F723F723F723F723F723EB
S21404A0D0F723F723F823F823F823F823F823F823A1
S21404A0E0F823F823F823F823F823F823F823F8238F
S21404A0F0F823F823F823F823F823F823F823F8237F
S21404A100F823F823F823F823F823F823F823F8236E
S21404A110F823F823F823F823F823F823F823F8235E
S21404A120F823F823F823F823F823F823F823F8234E
S21404A130F823F823F823F823F823F823F823F8233E
S21404A140F823F823F823F823F823F823F823F8232E
S21404A150F823F823F823F823F823F823F823F8231E
S21404A160F823F823F823F823F823F823F823F8230E
S21404A170F823F823F823F823F823F823F823F823FE
S21404A180F823F823F823F823F823F823F823F823EE
S21404A190F823F823F823F823F823F823F823F823DE
S21404A1A0F823F823F823F823F823F823F823F823CE
S21404A1B0F823F823F823F823F823F823F823F823BE
S21404A1C0F823F823F823F823F823F823F823F823AE
S21404A1D0F823F823F823F823F823F823F823F8239E
S21404A1E0F823F823F823F823F823F823F823F8238E
S21404A1F0F823F823F823F823F823F823F823F8237E
S21404A200F823F823F823F823F823F823F823F8236D
S21404A210F823F823F823F823F823F823F823F8235D
S21404A220F823F823F823F823F823F823F823F8234D
S21404A230F823F823F823F823F823F823F823F8233D
S21404A240F823F82338343834F823F823F823F8238B
S21404A250F823F823D81BD81BD81BD81BD81BD81B0D
S21404A260D81BF923BBCEFBDEB9CE9ACE79AE59AE57
S21404A27079A659A6382CD81BD81BD81BD81BD81B94
S21404A280D81BF91B9BC6FBDEB9CE9ACE59AE59AE87
S21404A29079A659AE59A659AEB9BEB9C6BABEDBB68A
S21404A2A099BEB9B6587E186E373516255625362506
S21404A2B03515F614370D1615360DF514D8CE5CF78D
S21404A2C05AF75CF7FBE6D9E6FAE6FADEFADEFADED9
S21404A2D0FADEFAE6FBDEFBDE9AA6599E798E988EA7
S21404A2E079A679A699B6BAC6D954F823D98D7AA68A
S21404A2F059AE5B9EDBCEFAE6FAE6F9E6FAE61ADF34
S21404A3001BDF1BDF1ADFFAE6D9C699BE99B6BAB6C2
S21404A3109AB6BABE387EF965762D350D360D360DED
S21404A320361536151615150DB73DF65D59A6DACE53
S21404A330B9CED9CEB9C6BAC699CEB8DEF864D80BAB
S21404A340F723D723F823D923D823D823D823D823ED
S21404A350D823D823F823F823F823F823F823F8235C
S21404A360F823F823F823F823F823F823F823F8230C
S21404A370F823F823F823F823F823F823F823F823FC
S21404A380F823F823F823F823F823F823F823F823EC
S21404A390F823F823F823F823F823F823F823F823DC
S21404A3A0F823F823F823F823F823F823F823F823CC
S21404A3B0F823F823F823F823F823F823F823F823BC
S21404A3C0F823F823F823F823F823F823F823F823AC
S21404A3D0F823F823F823F823F823F823F823F8239C
S21404A3E0F823F823F823F823F823F823F823F8238C
S21404A3F0F823F823F823F823F823F823F823F8237C
S21404A400F823F823F823F823F823F823F823F8236B
S21404A410F823F823F823F823F823F823F823F8235B
S21404A420F823F823F823F823F823F823F823F8234B
S21404A430F823F823F823F823F823F823F823F8233B
S21404A440F823F823F823F823F823F823F823F8232B
S21404A450F823F823F823F823F823F823F823F8231B
S21404A460F823F823F823F823F823F823F823F8230B
S21404A470F823F823F823F823F823F823F823F823FB
S21404A480F823F823F823F823F823F823F823F823EB
S21404A490F823F823F823F823F823F823F823F823DB
S21404A4A0F823F823F823F823F823F823F823F823CB
S21404A4B0F823F823F823F823F823F823F823F823BB
S21404A4C0F823F82338343834F823F823F823F82309
S21404A4D0F823F823182C182C182C182C182C182CA5
S21404A4E0182C3834FBEE5BFFF9EEFAE6B9BEB9B6C3
S21404A4F0D9B6B9B6583C182C182C182C182C182C6D
S21404A500182C182CFBE65BFFF9EEFAE6B9BEB9B6D2
S21404A510D9B6D9B6BAB6BAB6B9AEB9AEB9AE9AAEB7
S21404A52099B699B6176EF85D362515153615360D97
S21404A530551D5525571D362537253725F9CE7BFF5E
S21404A5405AF73BF7FAE6D9E6FADEFAD6F9DEF9E682
S21404A550FAD6DADEFAD6FADE799E38967986797EE7
S21404A56099B699BE99B6B9B6D744981B1896DAC662
S21404A5709AC6B9BEFBCED9E6FAD6FADEDADEFADE3B
S21404A580DAD6B9DEDADEFBDEB9BE99B6B9B6BAB645
S21404A5909AB69AB6397EF96D76353515361D361D5A
S21404A5A0361D361D371D561DF84D186E9AB61BDF20
S21404A5B0FAE619DF1ADF1ADFFAE63AF7396DF91BFD
S21404A5C0182C182C182C182C182C182C182C182C62
S21404A5D0182C182CF823F823F823F823F823F82348
S21404A5E0F823F823F823F823F823F823F823F8238A
S21404A5F0F823F823F823F823F823F823F823F8237A
S21404A600F823F823F823F823F823F823F823F82369
S21404A610F823F823F823F823F823F823F823F82359
S21404A620F823F823F823F823F823F823F823F82349
S21404A630F823F823F823F823F823F823F823F82339
S21404A640F823F823F823F823F823F823F823F82329
S21404A650F823F823F823F823F823F823F823F82319
S21404A660F823F823F823F823F823F823F823F82309
S21404A670F823F823F823F823F823F823F823F823F9
S21404A680F823F823F823F823F823F823F823F823E9
S21404A690F823F823F823F823F823F823F823F823D9
S21404A6A0F823F823F823F823F823F823F823F823C9
S21404A6B0F823F823F823F823F823F823F823F823B9
S21404A6C0F823F823F823F823F823F823F823F823A9
S21404A6D0F823F823F823F823F823F823F823F82399
S21404A6E0F823F823F823F823F823F823F823F82389
S21404A6F0F823F823F823F823F823F823F823F82379
S21404A700F823F823F823F823F823F823F823F82368
S21404A710F823F823F823F823F823F823F823F82358
S21404A720F823F823F823F823F823F823F823F82348
S21404A730F823F823F823F823F823F823F823F82338
S21404A740F823F82338343834F823F823F823F82386
S21404A750F823182C9ACEDADEBAD6BAD6BAD6BAD631
S21404A760BAD6BAD6BABE9ABEDAB6DBAE3876186EA3
S21404A7703966196EBACEDADEBAD6BAD6BAD6BAD62A
S21404A780BAD6BAD6BABE9ABEBABEDBB6387E186E8B
S21404A7903966196E196E1876196E386E176E186E3D
S21404A7A018663966562516151715360D160D350D09
S21404A7B079AEDBDEDACED9CED9D6D9D6FAD6DBDE7A
S21404A7C0FADEFADEFBD61AD7FBDEFADEFADEF9E6A6
S21404A7D09A9E5A8E59967896788E5896576E3866FC
S21404A7E0176E176E19661866989679B699BEBABE2D
S21404A7F09ABED9B6DAB6B9BEB9BEB9BEB9C6DBC654
S21404A800F954F81BF98DDABEB9B699BEB9BEBABE0C
S21404A810388E176E3766176E385E185EF865F865FC
S21404A820F85DF84D99A6D9D6FAD6FAD6B9CE99BE19
S21404A830B9BEB9BEBABEBABEBABEB9BE9AB67AB6C2
S21404A84079B67AB679B699B699B699B699B699B6E6
S21404A85099B6B9BE1865B81BF823F823F823F8236D
S21404A860F823F823F823F823F823F823F823F82307
S21404A870F823F823F823F823F823F823F823F823F7
S21404A880F823F823F823F823F823F823F823F823E7
S21404A890F823F823F823F823F823F823F823F823D7
S21404A8A0F823F823F823F823F823F823F823F823C7
S21404A8B0F823F823F823F823F823F823F823F823B7
S21404A8C0F823F823F823F823F823F823F823F823A7
S21404A8D0F823F823F823F823F823F823F823F82397
S21404A8E0F823F823F823F823F823F823F823F82387
S21404A8F0F823F823F823F823F823F823F823F82377
S21404A900F823F823F823F823F823F823F823F82366
S21404A910F823F823F823F823F823F823F823F82356
S21404A920F823F823F823F823F823F823F823F82346
S21404A930F823F823F823F823F823F823F823F82336
S21404A940F823F823F823F823F823F823F823F82326
S21404A950F823F823F823F823F823F823F823F82316
S21404A960F823F823F823F823F823F823F823F82306
S21404A970F823F823F823F823F823F823F823F823F6
S21404A980F823F823F823F823F823F823F823F823E6
S21404A990F823F823F823F823F823F823F823F823D6
S21404A9A0F823F823F823F823F823F823F823F823C6
S21404A9B0F823F823F823F823F823F823F823F823B6
S21404A9C0F823F82338343934F823F823F823F82303
S21404A9D0F823182C7AC6DAD6FAD6FAD6FAD6FAD6DF
S21404A9E0FAD6FAD6B9BE99B679A69A9EF765D85D10
S21404A9F0F85DD8659AC6BAD6FAD6FAD6FAD6FAD68C
S21404AA00FAD6FAD6B9BE99B679A69A9EF76DD85DE7
S21404AA10F85DD865D75DF75DF855F855186E187665
S21404AA201876386E763556255725762D372D5625C5
S21404AA309AC61AE7FADE19DFDAE6FADEFADEDADEB4
S21404AA40FADEDADEF9DEF9DEDBDEDBD6DBD6D9DEED
S21404AA5099967886788659867886598E196E185E01
S21404AA60F86D18661766F865599E99AE7BA678AE9B
S21404AA707A9E79A657AE79AE79A67AA67AA679B6DC
S21404AA809844980BB98DBAB699AE99B699A69AA673
S21404AA9018761756175ED76D185E186618761876E9
S21404AAA0186E1866B9B6DAEEDAE6DBE6D9BEB9AEE3
S21404AAB0B9A679A679AE98A678AE9A9E99AE99AEBE
S21404AAC09AA699AE79AE79AE79AE79AE79AE79AE0C
S21404AAD079AEBAB6195DD81BF823F823F823F82301
S21404AAE0F823F823F823F823F823F823F823F82385
S21404AAF0F823F823F823F823F823F823F823F82375
S21404AB00F823F823F823F823F823F823F823F82364
S21404AB10F823F823F823F823F823F823F823F82354
S21404AB20F823F823F823F823F823F823F823F82344
S21404AB30F823F823F823F823F823F823F823F82334
S21404AB40F823F823F823F823F823F823F823F82324
S21404AB50F823F823F823F823F823F823F823F82314
S21404AB60F823F823F823F823F823F823F823F82304
S21404AB70F823F823F823F823F823F823F823F823F4
S21404AB80F823F823F823F823F823F823F823F823E4
S21404AB90F823F823F823F823F823F823F823F823D4
S21404ABA0F823F823F823F823F823F823F823F823C4
S21404ABB0F823F823F823F823F823F823F823F823B4
S21404ABC0F823F823F823F823F823F823F823F823A4
S21404ABD0F823F823F823F823F823F823F823F82394
S21404ABE0F823F823F823F823F823F823F823F82384
S21404ABF0F823F823F823F823F823F823F823F82374
S21404AC00F823F823F823F823F823F823F823F82363
S21404AC10F823F823F823F823F823F823F823F82353
S21404AC20F823F823F823F823F823F823F823F82343
S21404AC30F823F823F823F823F823F823F823F82333
S21404AC40F823F8233934582C1724172417241724E8
S21404AC50172418241924572CF965386E186E386E84
S21404AC60386E386E99BEBBB6563C37243824392421
S21404AC70372418241924572CF95D386E386E386E2C
S21404AC80386E386E99BEDBB67644172438243924D9
S21404AC9037241724382436241824381C99C619EF68
S21404ACA01BDFFADEFADEFADEFADEFADEFADEFADEB9
S21404ACB01AE71AE7FBE61AE719E719E7FBE6DBE605
S21404ACC0FADE19DFF9E61ADF98A6588E798E5996B9
S21404ACD0598E988E386E186637663866186E186EF3
S21404ACE0186E38663766386E762D351D561D571D18
S21404ACF0972438243824382437243824382437240E
S21404AD001724F71B7855386E186E5966763536153F
S21404AD105615561556153615B855186E789ED9B666
