S02B0000433A2F55736572732F6D696B68612F4465736B746F702F3234335F66696E616C5F70726F6A6563744D
S21400002004FDFFDE150000D9150140D9150280D960
S2140000303A3109004C0000211E010020068E000007
S21400004004F9FFDE1500C0D9150100DA150240DA02
S214000050150380DA1504C0DA150500DB150640DB4B
S21400006034C8BF01040084313401C001C47EF339B2
S21400007004080002C4064002C4168002840CC002B3
S214000080C41200033500409A3500809A3500C09AA5
S2140000903500009B0412C002350040323500803225
S2140000A03500C032370040320C00A04A260500500A
S2140000B0CC3F804A1E030052440C00020500003A62
S2140000C006020000040C00020500003A0700003A91
S2140000D035000032370040320C00A04A1EFD3F506B
S2140000E034C8BF0104408031C43AC0013500C03175
S2140000F0843EC001370000320C00604226FD3F48B7
S214000100CC3F40421EFBFF493401C001047EF33958
S214000110C400000204004002260840423700803235
S2140001200C00E05226FC3F58CC3FC0523A885B3A5F
S2140001300500C06A4400404A06F73F00340100014B
S214000140047E332134014001047F7329003000000F
S2140001503401C001047FF3391700003ACC03004194
S21400016004004001808000003AD10840CC03002102
S21400017044004001808000003AD20840CC030021B1
S21400018084004001808000001701003ACC03004143
S214000190C4004001808000003AD10840CC03002112
S2140001A004014001808000003AD20840CC030021C0
S2140001B04401400180800000340100018481332125
S2140001C034014001048173290F0040290450800146
S2140001D026078029003D0000340140010481732970
S2140001E00F008029440080310D008029060500009C
S2140001F034014001048173290D00002804004001E9
S21400020006F43F00B401000184930921041940015B
S214000210041980010432C001404700003401000187
S214000220047E332134014001047F73290700C02275
S2140002308C00005B1E0600604C00005B260500601C
S2140002401700002917014029D4FFBF01060100004E
S21400025004000001806700001700C0D9170100DA0B
S214000260170240DA170380DA1704C0DA170500DB36
S214000270170640DB0407C0DE170000D9170140D977
S214000280170280D90403C0DE04FF7FEF3A0880EF30
S21400030004F9FFDE150000DC150140DC150280DC78
S2140003101503C0DC150400DD150540DD150680DD7F
S2140003200700002447004024870080241700C02CC4
S2140003301701002D7AD023887AD025900C3040857E
S2140003401E1A00A80C0440851E0400A83A88E38CF8
S214000350C44F8005160440B4060600003A88E38CB5
S2140003601603008806030000C44F40040601000080
S2140003703A8823001500402C0C0840851E0300A870
S2140003803AC8A5A416070090060700003AC8A5A418
S214000390C43B8005160180B406030000C43B8004FD
S2140003A0060100003A8825001501802C170000DCA5
S2140003B0170140DC170280DC1703C0DC170400DDE1
S2140003C0170540DD170680DD0407C0DE3A2800F872
S2140003D004FAFFDE150000DC150140DC150280DCA7
S2140003E01503C0DC150400DD150540DD34C83F04E8
S2140003F004080C843701408404508004043CC00484
S2140004002614009026110028C4FFBF94C4FF7F293D
S214000410260C0098C4FFFF9C7A9228983AB0A8A4AD
S2140004207A9028A03A8869A43A38AB993A886BA99A
S2140004307A902AA83A882BA98F0D40AD2D0040A5AA
S21400044006F33F00043CC00406ED3F003A880B303C
S21400045006EB3F00170000DC170140DC170280DCCB
S2140004601703C0DC170400DD170540DD0406C0DEF8
S2140004703A2800F804FAFFDE150000DC150140DC1F
S214000480150280DC1503C0DC150400DD150540DD13
S21400049034C83F0404080C843701408404018004F7
S2140004A00401C0042615C03126120090260D0098BF
S2140004B03A88E92C7A9228A03AB0A8A17A9028A087
S2140004C03A8869A46401409D3A88ABAC7A902AA821
S2140004D03A882BA90F1040AD2D0040A5C4FFFF9C05
S2140004E006F23F000401C004C4FFBF9444008031FC
S2140004F006EC3F000401800406EA3F00170000DC1B
S214000500170140DC170280DC1703C0DC170400DD8F
S214000510170540DD0406C0DE3A2800F804FBFFDEBF
S214000520150000DC150140DC150280DC1503C0DC7C
S214000530150400DD34C83F0404080C8437014084E9
S21400054004508004043CC004260B0090C4FFBF94F3
S21400055026070098C4FFFF9C7A9228983AB0A8A471
S2140005607A9028A03A8869A42D0000A106F83F00DA
S214000570043CC00406F43F00170000DC170140DC12
S214000580170280DC1703C0DC170400DD0405C0DE9C
S2140005903A2800F804F8FFDE150000DC150140DC00
S2140005A0150280DC1503C0DC150400DD150540DDF2
S2140005B0150680DD1507C0DD34C83F0404080C842A
S2140005C037004084370180840450C004043C000592
S2140005D0260D0098C4FFFF9C260900A0C4FF3FA577
S2140005E07A922AA03AB0EAAC7A902AA83A886DACF9
S2140005F02F0080B53A88AFAC2D0080BD06F63F00D0
S214000600043C000506F23F00170000DC170140DC42
S214000610170280DC1703C0DC170400DD170540DD79
S214000620170680DD1707C0DD0408C0DE3A2800F88C
S21400063004FDFFDE150000DC150140DC150280DC41
S21400064034C83F0404080C84370140843A882528BF
S2140006507A9224903AB024917A9024903A886594BD
S2140006602D008091170000DC170140DC170280DCAB
S2140006700403C0DE3A2800F804FEFFDE150000DCA6
S214000680150040DC34C83F0404080C8444004004D1
S21400069035004084370340844C00408C1EFD3F8864
S2140006A0170000DC170040DC0402C0DE3A2800F821
S2140006B03400C106C4FFFFDE34C8BF0104088C3115
S2140006C034000002047E02423501003204000001BC
S2140006D0C05100008067000034C8BF01044080316C
S2140006E0843EC001043C0002350000323700003270
S2140006F00C00604226FD3F48CC3F40421EFBFF49AF
S214000700043A000235000032370000320C00604226
S21400071026FD3F48CC3F40421EFBFF490400000236
S21400072035000032370000320C00604226FD3F489C
S214000730CC3F40421EFBFF49043D0002350000321C
S214000740370000320C00604226FD3F48CC3F404256
S2140007501EFBFF4934C8BF0104008831840C000129
S214000760BA900820246A18213A882320CCFF7F8C70
S214000770350240343A8823203AD422883503403460
S214000780C40140043501403444000002FA700140C0
S214000790440000023A70014006FF3F0004FEFFDE00
S2140007A0150000DC150140DC34C83F040400088452
S2140007B07400400444F1698C360140243A88098864
S2140007C0BA900820246A18213A882320CCFF7F8C10
S2140007D0350240843A8823203AD422883503408460
S2140007E00401400435014084370040848C00408C6E
S2140007F01EFD3F8835000080170000DC170140DC36
S2140008000402C0DE3A2800F804FBFFDE150000DC18
S214000810150140DC150280DC1503C0DC150400DD84
S214000820B4018004045F8A943A8865913603000117
S214000830C40F0004050000940648000044000004AD
S214000840360300818401000405000094064300007E
S2140008508400000436030081C416000405000094DA
S214000860063E0000C400000436030081C4130004E2
S21400087005000094063900000401000436030081D8
S21400088084190004050000940634000044010004A6
S21400089036030081441B000405000094062F000068
S2140008A08401000436030081441F00040500009400
S2140008B0062A0000C401000436030081C4010004B7
S2140008C0050000940625000004020004360300819B
S2140008D0C41F000405000094062000004402000423
S2140008E036030081C419000405000094061B0000AE
S2140008F08402000436030081C41D00040500009431
S21400090006160000C402000436030081041F00041B
S214000910050000940611000004030004360300815D
S214000920440E000405000094060C00004403000476
S21400093036030081841700040500009406070000B3
S2140009408403000436030081441E0004050000945E
S21400095006020000441C00040500009405000094F4
S214000960C40040043605408934C87F040408408C1F
S214000970B4018004C45F8A94060D0000440140045C
S2140009803606408934C87F04040C408CB4018004C9
S21400099044608A94840080940605000034C87F046E
S2140009A0040C408CB401800444608A9484008094D3
S2140009B004000001040140013A882900260640216F
S2140009C00700C0943A9228A03AB0E8A44400002158
S2140009D0C4FFBF9406F93F003500008D170000DC09
S2140009E0170140DC170280DC1703C0DC170400DDAB
S20C0009F00405C0DE3A2800F8F9
S2140009F800000000000000000000000000000000EA
S214000A0800000000000000000000000000000000D9
S214000A1800000000000000000000000000000000C9
S214000A2800000000000000000000000000000000B9
S21403CDF80000000000000000000000000000424D94
S21403CE0848580200000000004600000038000000F2
S21403CE184001000010FFFFFF0100100003000000A0
S21403CE2802580200120B0000120B0000000000005C
S21403CE380000000000F80000E00700001F000000E4
S21403CE4800000000F943B933B933B933B933B933FA
S21403CE58B933B933B933B933B933B933B933B93362
S21403CE68B933B933B933B933B933B933B933B93352
S21403CE78B933B933B933B933B933B933B933B93342
S21403CE88B933B933B933B933B933B933B933B93332
S21403D0C8B933F943993359235923592359235923F0
S21403D0D85923592359235923592359235923592360
S21403D0E85923592359235923592359235923592350
S21403D0F85923592359235923592359235923592340
S21403D108592359235923592359235923592359232F
S21403D34859239933B933592359235923592359232D
S21403D35859235923592359235923592359235923DD
S21403D36859235923592359235923592359235923CD
S21403D37859235923592359235923592359235923BD
S21403D38859235923592359235923592359235923AD
S21403D5C85923B933B933592359235923592359238B
S21403D5D8592359235923592359235923592359235B
S21403D5E8592359235923592359235923592359234B
S21403D5F8592359235923592359235923592359233B
S21403D608592359235923592359235923592359232A
S21403D8485923B933B9335923592359235923592308
S21403D85859235923592359235923592359235923D8
S21403D86859235923592359235923592359235923C8
S21403D87859235923592359235923592359235923B8
S21403D88859235923592359235923592359235923A8
S21403DAC85923B933B9335923592359235923592386
S21403DAD85923592359235923592359235923592356
S21403DAE85923592359235923592359235923592346
S21403DAF85923592359235923592359235923592336
S21403DB085923592359235923592359235923592325
S21403DD485923B933B9335923592359235923592303
S21403DD5859235923592359235923592359235923D3
S21403DD6859235923592359235923592359235923C3
S21403DD7859235923592359235923592359235923B3
S21403DD8859235923592359235923592359235923A3
S21403DFC85923B933B9335923592359235923592381
S21403DFD85923592359235923592359235923592351
S21403DFE85923592359235923592359235923592341
S21403DFF85923592359235923592359235923592331
S21403E0085923592359235923592359235923592320
S21403E2485923B933B93359235923592359235923FE
S21403E25859235923592359235923592359235923CE
S21403E26859235923592359235923592359235923BE
S21403E27859235923592359235923592359235923AE
S21403E288592359235923592359235923592359239E
S21403E4C85923B933B933592359235923592359237C
S21403E4D8592359235923592359235923592359234C
S21403E4E8592359235923592359235923592359233C
S21403E4F8592359235923592359235923592359232C
S21403E508592359235923592359235923592359231B
S21403E7485923B933B93359235923592359235923F9
S21403E75859235923592359235923592359235923C9
S21403E76859235923592359235923592359235923B9
S21403E77859235923592359235923592359235923A9
S21403E7885923592359235923592359235923592399
S21403E9C85923B933B9335923592359235923592377
S21403E9D85923592359235923592359235923592347
S21403E9E85923592359235923592359235923592337
S21403E9F85923592359235923592359235923592327
S21403EA085923592359235923592359235923592316
S21403EC485923B933B93359235923592359235923F4
S21403EC5859235923592359235923592359235923C4
S21403EC6859235923592359235923592359235923B4
S21403EC7859235923592359235923592359235923A4
S21403EC885923592359235923592359235923592394
S21403EEC85923B933B9335923592359235923592372
S21403EED85923592359235923592359235923592342
S21403EEE85923592359235923592359235923592332
S21403EEF85923592359235923592359235923592322
S21403EF085923592359235923592359235923592311
S21403F1485923B933B93359235923592359235923EF
S21403F15859235923592359235923592359235923BF
S21403F16859235923592359235923592359235923AF
S21403F178592359235923592359235923592359239F
S21403F188592359235923592359235923592359238F
S21403F3C85923B933B933592359235923592359236D
S21403F3D8592359235923592359235923592359233D
S21403F3E8592359235923592359235923592359232D
S21403F3F8592359235923592359235923592359231D
S21403F408592359235923592359235923592359230C
S21403F6485923B933B93359235923592359235923EA
S21403F65859235923592359235923592359235923BA
S21403F66859235923592359235923592359235923AA
S21403F678592359235923592359235923592359239A
S21403F688592359235923592359235923592359238A
S21403F8C85923B933B9335923592359235923592368
S21403F8D85923592359235923592359235923592338
S21403F8E85923592359235923592359235923592328
S21403F8F85923592359235923592359235923592318
S21403F9085923592359235923592359235923592307
S21403FB485923B933B93359235923592359235923E5
S21403FB5859235923592359235923592359235923B5
S21403FB6859235923592359235923592359235923A5
S21403FB785923592359235923592359235923592395
S21403FB885923592359235923592359235923592385
S21403FDC85923B933B9335923592359235923592363
S21403FDD85923592359235923592359235923592333
S21403FDE85923592359235923592359235923592323
S21403FDF85923592359235923592359235923592313
S21403FE085923592359235923592359235923592302
S2140400485923B933B93359235923592359235923DF
S21404005859235923592359235923592359235923AF
S214040068592359235923592359235923592359239F
S214040078592359235923592359235923592359238F
S214040088592359235923592359235923592359237F
S2140402C85923B933B933592359235923592359235D
S2140402D8592359235923592359235923592359232D
S2140402E8592359235923592359235923592359231D
S2140402F8592359235923592359235923592359230D
S21404030859235923592359235923592359235923FC
S2140405485923B933B93359235923592359235923DA
S21404055859235923592359235923592359235923AA
S214040568592359235923592359235923592359239A
S214040578592359235923592359235923592359238A
S214040588592359235923592359235923592359237A
S2140407C85923B933B9335923592359235923592358
S2140407D85923592359235923592359235923592328
S2140407E85923592359235923592359235923592318
S2140407F85923592359235923592359235923592308
S21404080859235923592359235923592359235923F7
S214040A485923B933B93359235923592359235923D5
S214040A5859235923592359235923592359235923A5
S214040A685923592359235923592359235923592395
S214040A785923592359235923592359235923592385
S214040A885923592359235923592359235923592375
S214040CC85923B933B9335923592359235923592353
S214040CD85923592359235923592359235923592323
S214040CE85923592359235923592359235923592313
S214040CF85923592359235923592359235923592303
S214040D0859235923592359235923592359235923F2
S214040F485923B933B93359235923592359235923D0
S214040F5859235923592359235923592359235923A0
S214040F685923592359235923592359235923592390
S214040F785923592359235923592359235923592380
S214040F885923592359235923592359235923592370
S2140411C85923B933B933592359235923592359234E
S2140411D8592359235923592359235923592359231E
S2140411E8592359235923592359235923592359230E
S2140411F859235923592359235923592359235923FE
S21404120859235923592359235923592359235923ED
S2140414485923B933B93359235923592359235923CB
S214041458592359235923592359235923592359239B
S214041468592359235923592359235923592359238B
S214041478592359235923592359235923592359237B
S214041488592359235923592359235923592359236B
S2140416C85923B933B9335923592359235923592349
S2140416D85923592359235923592359235923592319
S2140416E85923592359235923592359235923592309
S2140416F859235923592359235923592359235923F9
S21404170859235923592359235923592359235923E8
S2140419485923B933B93359235923592359235923C6
S2140419585923592359235923592359235923592396
S2140419685923592359235923592359235923592386
S2140419785923592359235923592359235923592376
S2140419885923592359235923592359235923592366
S214041BC85923B933B9335923592359235923592344
S214041BD85923592359235923592359235923592314
S214041BE85923592359235923592359235923592304
S214041BF859235923592359235923592359235923F4
S214041C0859235923592359235923592359235923E3
S214041E485923B933B93359235923592359235923C1
S214041E585923592359235923592359235923592391
S214041E685923592359235923592359235923592381
S214041E785923592359235923592359235923592371
S214041E885923592359235923592359235923592361
S2140420C85923B933B933592359235923592359233F
S2140420D8592359235923592359235923592359230F
S2140420E859235923592359235923592359235923FF
S2140420F859235923592359235923592359235923EF
S21404210859235923592359235923592359235923DE
S2140423485923B933B93359235923592359235923BC
S214042358592359235923592359235923592359238C
S214042368592359235923592359235923592359237C
S214042378592359235923592359235923592359236C
S214042388592359235923592359235923592359235C
S2140425C85923B933B933592359235923592359233A
S2140425D8592359235923592359235923592359230A
S2140425E859235923592359235923592359235923FA
S2140425F859235923592359235923592359235923EA
S21404260859235923592359235923592359235923D9
S2140428485923B933B93359235923592359235923B7
S2140428585923592359235923592359235923592387
S2140428685923592359235923592359235923592377
S2140428785923592359235923592359235923592367
S2140428885923592359235923592359235923592357
S214042AC85923B933B9335923592359235923592335
S214042AD85923592359235923592359235923592305
S214042AE859235923592359235923592359235923F5
S214042AF859235923592359235923592359235923E5
S214042B0859235923592359235923592359235923D4
S214042D485923B933B93359235923592359235923B2
S214042D585923592359235923592359235923592382
S214042D685923592359235923592359235923592372
S214042D785923592359235923592359235923592362
S214042D885923592359235923592359235923592352
S214042FC85923B933B9335923592359235923592330
S214042FD85923592359235923592359235923592300
S214042FE859235923592359235923592359235923F0
S214042FF859235923592359235923592359235923E0
S21404300859235923592359235923592359235923CF
S2140432485923B933B93359235923592359235923AD
S214043258592359235923592359235923592359237D
S214043268592359235923592359235923592359236D
S214043278592359235923592359235923592359235D
S214043288592359235923592359235923592359234D
S2140434C85923B933B933592359235923592359232B
S2140434D859235923592359235923592359235923FB
S2140434E859235923592359235923592359235923EB
S2140434F859235923592359235923592359235923DB
S21404350859235923592359235923592359235923CA
S2140437485923B933B93359235923592359235923A8
S2140437585923592359235923592359235923592378
S2140437685923592359235923592359235923592368
S2140437785923592359235923592359235923592358
S2140437885923592359235923592359235923592348
S2140439C85923B933B9335923592359235923592326
S2140439D859235923592359235923592359235923F6
S2140439E859235923592359235923592359235923E6
S2140439F859235923592359235923592359235923D6
S214043A0859235923592359235923592359235923C5
S214043C485923B933B93359235923592359235923A3
S214043C585923592359235923592359235923592373
S214043C685923592359235923592359235923592363
S214043C785923592359235923592359235923592353
S214043C885923592359235923592359235923592343
S214043EC85923B933B9335923592359235923592321
S214043ED859235923592359235923592359235923F1
S214043EE859235923592359235923592359235923E1
S214043EF859235923592359235923592359235923D1
S214043F0859235923592359235923592359235923C0
S2140441485923B933B933592359235923592359239E
S214044158592359235923592359235923592359236E
S214044168592359235923592359235923592359235E
S214044178592359235923592359235923592359234E
S214044188592359235923592359235923592359233E
S2140443C85923B933B933592359235923592359231C
S2140443D859235923592359235923592359235923EC
S2140443E859235923592359235923592359235923DC
S2140443F859235923592359235923592359235923CC
S21404440859235923592359235923592359235923BB
S2140446485923B933B9335923592359235923592399
S2140446585923592359235923592359235923592369
S2140446685923592359235923592359235923592359
S2140446785923592359235923592359235923592349
S2140446885923592359235923592359235923592339
S2140448C85923B933B9335923592359235923592317
S2140448D859235923592359235923592359235923E7
S2140448E859235923592359235923592359235923D7
S2140448F859235923592359235923592359235923C7
S21404490859235923592359235923592359235923B6
S214044B485923B933B9335923592359235923592394
S214044B585923592359235923592359235923592364
S214044B685923592359235923592359235923592354
S214044B785923592359235923592359235923592344
S214044B885923592359235923592359235923592334
S214044DC85923B933B9335923592359235923592312
S214044DD859235923592359235923592359235923E2
S214044DE859235923592359235923592359235923D2
S214044DF859235923592359235923592359235923C2
S214044E0859235923592359235923592359235923B1
S2140450485923B933B933592359235923592359238F
S214045058592359235923592359235923592359235F
S214045068592359235923592359235923592359234F
S214045078592359235923592359235923592359233F
S214045088592359235923592359235923592359232F
S2140452C85923B933B933592359235923592359230D
S2140452D859235923592359235923592359235923DD
S2140452E859235923592359235923592359235923CD
S2140452F859235923592359235923592359235923BD
S21404530859235923592359235923592359235923AC
S2140455485923B933B933592359235923592359238A
S214045558592359235923592359235923592359235A
S214045568592359235923592359235923592359234A
S214045578592359235923592359235923592359233A
S214045588592359235923592359235923592359232A
S2140457C85923B933B9335923592359235923592308
S2140457D859235923592359235923592359235923D8
S2140457E859235923592359235923592359235923C8
S2140457F859235923592359235923592359235923B8
S21404580859235923592359235923592359235923A7
S214045A485923B933B9335923592359235923592385
S214045A585923592359235923592359235923592355
S214045A685923592359235923592359235923592345
S214045A785923592359235923592359235923592335
S214045A885923592359235923592359235923592325
S214045CC85923B933B9335923592359235923592303
S214045CD859235923592359235923592359235923D3
S214045CE859235923592359235923592359235923C3
S214045CF859235923592359235923592359235923B3
S214045D0859235923592359235923592359235923A2
S214045F485923B933B9335923592359235923592380
S214045F585923592359235923592359235923592350
S214045F685923592359235923592359235923592340
S214045F785923592359235923592359235923592330
S214045F885923592359235923592359235923592320
S2140461C85923B933B93359235923592359235923FE
S2140461D859235923592359235923592359235923CE
S2140461E859235923592359235923592359235923BE
S2140461F859235923592359235923592359235923AE
S214046208592359235923592359235923592359239D
S2140464485923B933B93379237923792379237923DB
S214046458792379237923792379237923792379234B
S214046468792379237923792379237923792379233B
S214046478792379237923792379237923792379232B
S214046488792379237923792379237923792379231B
S2140466C87923B933B9337923792379237923792339
S2140466D879237923792379237923792379237923C9
S2140466E879237923792379237923792379237923B9
S2140466F879237923792379237923792379237923A9
S2140467087923792379237923792379237923792398
S2140469487923B933B93379237923792379237923B6
S2140469587923792379237923792379237923792346
S2140469687923792379237923792379237923792336
S2140469787923792379237923792379237923792326
S2140469887923792379237923792379237923792316
S214046BC87923B933B9337923792379237923792334
S214046BD879237923792379237923792379237923C4
S214046BE879237923792379237923792379237923B4
S214046BF879237923792379237923792379237923A4
S214046C087923792379237923792379237923792393
S214046E487923B933B93379237923792379237923B1
S214046E587923792379237923792379237923792341
S214046E687923792379237923792379237923792331
S214046E787923792379237923792379237923792321
S214046E887923792379237923792379237923792311
S2140470C87923B933B933792379237923792379232F
S2140470D879237923792379237923792379237923BF
S2140470E879237923792379237923792379237923AF
S2140470F8792379237923792379237923792379239F
S214047108792379237923792379237923792379238E
S2140473487923B933D93399239923992399239923EC
S214047358992399239923992399239923992399233C
S214047368992399239923992399239923992399232C
S214047378992399239923992399239923992399231C
S214047388992399239923992399239923992399230C
S21404739899239923992399239923992399239923FC
S2140473A899239923992399239923992399239923EC
S2140473B899239923992399239923992399239923DC
S2140473C899239923992399239923992399239923CC
S2140473D899239923992399239923992399239923BC
S2140473E899239923992399239923992399239923AC
S2140473F8992399239923992399239923992399239C
S214047408992399239823982B9823982B992399237F
S214047418782B992399239823982398239923992397
S214047428992399239923992399239923992399236B
S214047438992399239923992399239923992399235B
S214047448992399239923992399239923992399234B
S214047458992399239923992399239923992399233B
S214047468992399239923992399239923992399232B
S214047478992399239923992399239923992399231B
S214047488992399239923992399239923992399230B
S21404749899239923992399239923992399239923FB
S2140474A899239923992399239923992399239923EB
S2140474B899239923992399239923992399239923DB
S2140474C899239923992399239923992399239923CB
S2140474D899239923992399239923992399239923BB
S2140474E899239923992399239923992399239923AB
S2140474F8992399239923992399239923992399239B
S214047508992399239923992399239923992399238A
S214047518992399239923992399239923992399237A
S214047528992399239923992399239923992399236A
S214047538992399239923992399239923992399235A
S214047548992399239923992399239923992399234A
S214047558992399239923992399239923992399233A
S214047568992399239923992399239923992399232A
S214047578992399239923992399239923992399231A
S214047588992399239923992399239923992399230A
S21404759899239923992399239923992399239923FA
S2140475A899239923992399239923992399239923EA
S2140475B899239923992399239923992399239923DA
S2140475C89923D933D933982398239823982398232F
S2140475D898239823982398239823982398239823C2
S2140475E898239823982398239823982398239823B2
S2140475F898239823982398239823982398239823A2
S2140476089823982398239823982398239823982391
S2140476189823982398239823982398239823982381
S2140476289823982398239823982398239823982371
S2140476389823982398239823982398239823982361
S2140476489823982398239823982398239823982351
S2140476589823982398239823982398239823982341
S2140476689823982398239823982398239823982331
S2140476789823982398239823982398239823982321
S2140476889823B923B823B823B92398239823B9236E
S214047698992B9823B823992B992B9923B923B82B7C
S2140476A8982B9823982398239823982398239823E9
S2140476B898239823982398239823982398239823E1
S2140476C898239823982398239823982398239823D1
S2140476D898239823982398239823982398239823C1
S2140476E898239823982398239823982398239823B1
S2140476F898239823982398239823982398239823A1
S2140477089823982398239823982398239823982390
S2140477189823982398239823982398239823982380
S2140477289823982398239823982398239823982370
S2140477389823982398239823982398239823982360
S2140477489823982398239823982398239823982350
S2140477589823982398239823982398239823982340
S2140477689823982398239823982398239823982330
S2140477789823982398239823982398239823982320
S2140477889823982398239823982398239823982310
S2140477989823982398239823982398239823982300
S2140477A898239823982398239823982398239823F0
S2140477B898239823982398239823982398239823E0
S2140477C898239823982398239823982398239823D0
S2140477D898239823982398239823982398239823C0
S2140477E898239823982398239823982398239823B0
S2140477F898239823982398239823982398239823A0
S214047808982398239823982398239823982398238F
S214047818982398239823982398239823982398237F
S214047828982398239823982398239823982398236F
S214047838982398239823982398239823982398235F
S2140478489823D933D93398239823982398239823AD
S214047858982398239823982398239823982398233F
S214047868982398239823982398239823982398232F
S214047878982398239823982398239823982398231F
S214047888982398239823982398239823982398230F
S21404789898239823982398239823982398239823FF
S2140478A898239823982398239823982398239823EF
S2140478B898239823982398239823982398239823DF
S2140478C898239823982398239823982398239823CF
S2140478D898239823982398239823982398239823BF
S2140478E898239823982398239823982398239823AF
S2140478F8982398239823982398239823982398239F
S214047908982398239823982399239923992399238A
S21404791899239823992B9823B7239923B823982334
S214047928982398239823982398239823982398236E
S214047938982398239823982398239823982398235E
S214047948982398239823982398239823982398234E
S214047958982398239823982398239823982398233E
S214047968982398239823982398239823982398232E
S214047978982398239823982398239823982398231E
S214047988982398239823982398239823982398230E
S21404799898239823982398239823982398239823FE
S2140479A898239823982398239823982398239823EE
S2140479B898239823982398239823982398239823DE
S2140479C898239823982398239823982398239823CE
S2140479D898239823982398239823982398239823BE
S2140479E898239823982398239823982398239823AE
S2140479F8982398239823982398239823982398239E
S214047A08982398239823982398239823982398238D
S214047A18982398239823982398239823982398237D
S214047A28982398239823982398239823982398236D
S214047A38982398239823982398239823982398235D
S214047A48982398239823982398239823982398234D
S214047A58982398239823982398239823982398233D
S214047A68982398239823982398239823982398232D
S214047A78982398239823982398239823982398231D
S214047A88982398239823982398239823982398230D
S214047A9898239823982398239823982398239823FD
S214047AA898239823982398239823982398239823ED
S214047AB898239823982398239823982398239823DD
S214047AC89823D933D933982398239823982398232B
S214047AD898239823982398239823982398239823BD
S214047AE898239823982398239823982398239823AD
S214047AF8982398239823982398239823982398239D
S214047B08982398239823982398239823982398238C
S214047B18982398239823982398239823982398237C
S214047B28982398239823982398239823982398236C
S214047B38982398239823982398239823982398235C
S214047B48982398239823982398239823982398234C
S214047B58982398239823982398239823982398233C
S214047B68982398239823982398239823982398232C
S214047B78982398239823982398239823982398231C
S214047B8898239923982B972BB9237823581B791372
S214047B98581B791B591B991BB823792B782B9923C7
S214047BA8B823B823982398239823982398239823AC
S214047BB898239823982398239823982398239823DC
S214047BC898239823982398239823982398239823CC
S214047BD898239823982398239823982398239823BC
S214047BE898239823982398239823982398239823AC
S214047BF8982398239823982398239823982398239C
S214047C08982398239823982398239823982398238B
S214047C18982398239823982398239823982398237B
S214047C28982398239823982398239823982398236B
S214047C38982398239823982398239823982398235B
S214047C48982398239823982398239823982398234B
S214047C58982398239823982398239823982398233B
S214047C68982398239823982398239823982398232B
S214047C78982398239823982398239823982398231B
S214047C88982398239823982398239823982398230B
S214047C9898239823982398239823982398239823FB
S214047CA898239823982398239823982398239823EB
S214047CB898239823982398239823982398239823DB
S214047CC898239823982398239823982398239823CB
S214047CD898239823982398239823982398239823BB
S214047CE898239823982398239823982398239823AB
S214047CF8982398239823982398239823982398239B
S214047D08982398239823982398239823982398238A
S214047D18982398239823982398239823982398237A
S214047D28982398239823982398239823982398236A
S214047D38982398239823982398239823982398235A
S214047D489823D933F933B823B823B823B823B823E8
S214047D58B823B823B823B823B823B823B823B8233A
S214047D68B823B823B823B823B823B823B823B8232A
S214047D78B823B823B823B823B823B823B823B8231A
S214047D88B823B823B823B823B823B823B823B8230A
S214047D98B823B823B823B823B823B823B823B823FA
S214047DA8B823B823B823B823B823B823B823B823EA
S214047DB8B823B823B823B823B823B823B823B823DA
S214047DC8B823B823B823B823B823B823B823B823CA
S214047DD8B823B823B823B823B823B823B823B823BA
S214047DE8B823B823B823B823B823B823B823B823AA
S214047DF8B823B823B823B823B823B823B823B8239A
S214047E08B823B823B823B823B91339851AAEFBA503
S214047E18FAADFAA51AAE5954991BD823D723B82312
S214047E28B923B823B823B823B823B823B823B82368
S214047E38B823B823B823B823B823B823B823B82359
S214047E48B823B823B823B823B823B823B823B82349
S214047E58B823B823B823B823B823B823B823B82339
S214047E68B823B823B823B823B823B823B823B82329
S214047E78B823B823B823B823B823B823B823B82319
S214047E88B823B823B823B823B823B823B823B82309
S214047E98B823B823B823B823B823B823B823B823F9
S214047EA8B823B823B823B823B823B823B823B823E9
S214047EB8B823B823B823B823B823B823B823B823D9
S214047EC8B823B823B823B823B823B823B823B823C9
S214047ED8B823B823B823B823B823B823B823B823B9
S214047EE8B823B823B823B823B823B823B823B823A9
S214047EF8B823B823B823B823B823B823B823B82399
S214047F08B823B823B823B823B823B823B823B82388
S214047F18B823B823B823B823B823B823B823B82378
S214047F28B823B823B823B823B823B823B823B82368
S214047F38B823B823B823B823B823B823B823B82358
S214047F48B823B823B823B823B823B823B823B82348
S214047F58B823B823B823B823B823B823B823B82338
S214047F68B823B823B823B823B823B823B823B82328
S214047F78B823B823B823B823B823B823B823B82318
S214047F88B823B823B823B823B823B823B823B82308
S214047F98B823B823B823B823B823B823B823B823F8
S214047FA8B823B823B823B823B823B823B823B823E8
S214047FB8B823B823B823B823B823B823B823B823D8
S214047FC8B823F933F933B823B823B823B823B82326
S214047FD8B823B823B823B823B823B823B823B823B8
S214047FE8B823B823B823B823B823B823B823B823A8
S214047FF8B823B823B823B823B823B823B823B82398
S214048008B823B823B823B823B823B823B823B82387
S214048018B823B823B823B823B823B823B823B82377
S214048028B823B823B823B823B823B823B823B82367
S214048038B823B823B823B823B823B823B823B82357
S214048048B823B823B823B823B823B823B823B82347
S214048058B823B823B823B823B823B823B823B82337
S214048068B823B823B823B823B823B823B823B82327
S214048078B823B823B823B823B823B823B823B82317
S214048088B823981B9813981B78035ABEBBFF9BFF0C
S2140480987BFF9BFFDBFFD974771BF723D723D823F3
S2140480A8B92BB823B823B823B823B823B823B823DE
S2140480B8B823B823B823B823B823B823B823B823D7
S2140480C8B823B823B823B823B823B823B823B823C7
S2140480D8B823B823B823B823B823B823B823B823B7
S2140480E8B823B823B823B823B823B823B823B823A7
S2140480F8B823B823B823B823B823B823B823B82397
S214048108B823B823B823B823B823B823B823B82386
S214048118B823B823B823B823B823B823B823B82376
S214048128B823B823B823B823B823B823B823B82366
S214048138B823B823B823B823B823B823B823B82356
S214048148B823B823B823B823B823B823B823B82346
S214048158B823B823B823B823B823B823B823B82336
S214048168B823B823B823B823B823B823B823B82326
S214048178B823B823B823B823B823B823B823B82316
S214048188B823B823B823B823B823B823B823B82306
S214048198B823B823B823B823B823B823B823B823F6
S2140481A8B823B823B823B823B823B823B823B823E6
S2140481B8B823B823B823B823B823B823B823B823D6
S2140481C8B823B823B823B823B823B823B823B823C6
S2140481D8B823B823B823B823B823B823B823B823B6
S2140481E8B823B823B823B823B823B823B823B823A6
S2140481F8B823B823B823B823B823B823B823B82396
S214048208B823B823B823B823B823B823B823B82385
S214048218B823B823B823B823B823B823B823B82375
S214048228B823B823B823B823B823B823B823B82365
S214048238B823B823B823B823B823B823B823B82355
S214048248B823F933F933B823B823B823B823B823A3
S214048258B823B823B823B823B823B823B823B82335
S214048268B823B823B823B823B823B823B823B82325
S214048278B823B823B823B823B823B823B823B82315
S214048288B823B823B823B823B823B823B823B82305
S214048298B823B823B823B823B823B823B823B823F5
S2140482A8B823B823B823B823B823B823B823B823E5
S2140482B8B823B823B823B823B823B823B823B823D5
S2140482C8B823B823B823B823B823B823B823B823C5
S2140482D8B823B823B823B823B823B823B823B823B5
S2140482E8B823B823B823B823B823B823B823B823A5
S2140482F8B823B823B823B823B823B823B823B82395
S214048308981B9A955AB639B63AAEFAE65AFF3BFF20
S2140483183AFF1BEF3AEFB9751735572CB923D9230B
S214048328D823B823B823B823B823B823B823B82344
S214048338B823B823B823B823B823B823B823B82354
S214048348B823B823B823B823B823B823B823B82344
S214048358B823B823B823B823B823B823B823B82334
S214048368B823B823B823B823B823B823B823B82324
S214048378B823B823B823B823B823B823B823B82314
S214048388B823B823B823B823B823B823B823B82304
S214048398B823B823B823B823B823B823B823B823F4
S2140483A8B823B823B823B823B823B823B823B823E4
S2140483B8B823B823B823B823B823B823B823B823D4
S2140483C8B823B823B823B823B823B823B823B823C4
S2140483D8B823B823B823B823B823B823B823B823B4
S2140483E8B823B823B823B823B823B823B823B823A4
S2140483F8B823B823B823B823B823B823B823B82394
S214048408B823B823B823B823B823B823B823B82383
S214048418B823B823B823B823B823B823B823B82373
S214048428B823B823B823B823B823B823B823B82363
S214048438B823B823B823B823B823B823B823B82353
S214048448B823B823B823B823B823B823B823B82343
S214048458B823B823B823B823B823B823B823B82333
S214048468B823B823B823B823B823B823B823B82323
S214048478B823B823B823B823B823B823B823B82313
S214048488B823B823B823B823B823B823B823B82303
S214048498B823B823B823B823B823B823B823B823F3
S2140484A8B823B823B823B823B823B823B823B823E3
S2140484B8B823B823B823B823B823B823B823B823D3
S2140484C8B823F933F933B823B823B823B823B82321
S2140484D8B823B823B823B823B823B823B823B823B3
S2140484E8B823B823B823B823B823B823B823B823A3
S2140484F8B823B823B823B823B823B823B823B82393
S214048508B823B823B823B823B823B823B823B82382
S214048518B823B823B823B823B823B823B823981B9A
S214048528981B981B981B981B981B981B981B981BA2
S214048538981BB823B823B823981BB823B823B823A2
S214048548B823B823B823981B981B981B981B981B0A
S214048558981B981B981B981B981B981B981BB8234A
S214048568B823B823B823B823B823B823B823B82322
S214048578B823B823B823B823B823B823D823B81BFA
S214048588580B5AC6BBFF7CFF7AFF5CF73BFF3BFFE2
S2140485985BFF1BE7DAE63976F645792C7A23D72388
S2140485A8B823B823B823B823B823B823B823B823E2
S2140485B8B823B823B823B823B823B823B823B823D2
S2140485C8B823B823B823B823B823B823B823B823C2
S2140485D8B823B823B823B823B823B823B823B823B2
S2140485E8B823B823B823B823B823B823B823B823A2
S2140485F8B823B823B823B823B823B823B823B82392
S214048608B823B823B823B823B823B823B823B82381
S214048618B823B823B823B823B823B823B823B82371
S214048628B823B823B823B823B823B823B823B82361
S214048638B823B823B823B823B823B823B823B82351
S214048648B823B823B823B823B823B823B823B82341
S214048658B823B823B823B823B823B823B823B82331
S214048668B823B823B823B823B823B823B823B82321
S214048678B823B823B823B823B823B823B823B82311
S214048688B823B823B823B823B823B823B823B82301
S214048698B823B823B823B823B823B823B823B823F1
S2140486A8B823B823B823B823B823B823B823B823E1
S2140486B8B823B823B823B823B823B823B823B823D1
S2140486C8B823B823B823B823B823B823B823B823C1
S2140486D8B823B823B823B823B823B823B823B823B1
S2140486E8B823B823B823B823B823B823B823B823A1
S2140486F8B823B823B823B823B823B823B823B82391
S214048708B823B823B823B823B823B823B823B82380
S214048718B823B823B823B823B823B823B823B82370
S214048728B823B823B823B823B823B823B823B82360
S214048738B823B823B823B823B823B823B823B82350
S214048748B823F933F933B823B823B823B823B8239E
S214048758B823B823B823B823B823B823B823B82330
S214048768B823B823B82BD823D82BD823B82BD82388
S214048778D823B823B823B823B823B823B823B823F0
S214048788B823B823B82BD823D823D823B82BD82370
S214048798D823B92BBA23B723B823B81BB8231AB6D9
S2140487A89AC65BC69AC6199EF995F99DFA95FA9DD6
S2140487B839963834982379851B9E3934B81BB923DF
S2140487C8B823B8239823F9A59AC67AC679C67BC669
S2140487D87BC63BBE39B6F99D18961896189E58441B
S2140487E89823D823B823B723B823B82BB923B92397
S2140487F8B823D923B823B823B823B823981BBA9D1B
S2140488089AC61AEF5BFF3BFF3BFF1BE7FBE6DACE95
S214048818BAC6B9C6BAC6F875D7451725D61CF61407
S214048828F61C381CB823B923B923B923B823B823AC
S214048838D723B823D823DA1BD823D923D823B72B8E
S214048848D923D823B823B823B823B823B823B823FE
S214048858B823D823B823B823B823B823B823B8230F
S214048868B823B823B823B823B823B823B823B8231F
S214048878B823B823B823B823B823B823B823B8230F
S214048888B823B823B823B823B823B823B823B823FF
S214048898B823B823B823B823B823B823B823B823EF
S2140488A8B823B823B823B823B823B823B823B823DF
S2140488B8B823B823B823B823B823B823B823B823CF
S2140488C8B823B823B823B823B823B823B823B823BF
S2140488D8B823B823B823B823B823B823B823B823AF
S2140488E8B823B823B823B823B823B823B823B8239F
S2140488F8B823B823B823B823B823B823B823B8238F
S214048908B823B823B823B823B823B823B823B8237E
S214048918B823B823B823B823B823B823B823B8236E
S214048928B823B823B823B823B823B823B823B8235E
S214048938B823B823B823B823B823B823B823B8234E
S214048948B823B823B823B823B823B823B823B8233E
S214048958B823B823B823B823B823B823B823B8232E
S214048968B823B823B823B823B823B823B823B8231E
S214048978B823B823B823B823B823B823B823B8230E
S214048988B823B823B823B823B823B823B823B823FE
S214048998B823B823B823B823B823B823B823B823EE
S2140489A8B823B823B823B823B823B823B823B823DE
S2140489B8B823B823B823B823B823B823B823B823CE
S2140489C8B823F9331834D823D823D823D823D8235C
S2140489D8D823D823D823D823D823D823D823D823AE
S2140489E8D823D823B823D823B82BD823B92BD823ED
S2140489F8D823D823D823D823D823D823D823D8238E
S214048A08D823D823B823D823B82BD823B92BD823CC
S214048A18D823D823D823D823B8239823991BDBE64E
S214048A289CFF5CFF9BFFFACEDABEF8BED9BED9C659
S214048A38D9C6583C981B58A6FAD65744971BB82349
S214048A48B81BB81B981BBBD69CFF7BFF79FF7BFF24
S214048A587BFF3AEF1AE7DAC6D9B6DABE19BF794CFD
S214048A689823D81BBA1B9923B923B823D72BF81BEA
S214048A78B923982BB823B91BBA1BB91B771B5BBE43
S214048A88BCFF5BFF3BFF3BFF3BFFFAE6FBDEBABEE1
S214048A9899AE99B6BBBEF86DD73D762535155515EE
S214048AA8551D571CB823B823B82BB823D823B82386
S214048AB8B823B82BB82BB82BB72BB823D823D8236E
S214048AC8B823B823B823B823B823B823B823B823BD
S214048AD8B823B823D823D823D823D823D823D823ED
S214048AE8D823D823D823D823D823D823D823D8239D
S214048AF8D823D823D823D823D823D823D823D8238D
S214048B08D823D823D823D823D823D823D823D8237C
S214048B18D823D823D823D823D823D823D823D8236C
S214048B28D823D823D823D823D823D823D823D8235C
S214048B38D823D823D823D823D823D823D823D8234C
S214048B48D823D823D823D823D823D823D823D8233C
S214048B58D823D823D823D823D823D823D823D8232C
S214048B68D823D823D823D823D823D823D823D8231C
S214048B78D823D823D823D823D823D823D823D8230C
S214048B88D823D823D823D823D823D823D823D823FC
S214048B98D823D823D823D823D823D823D823D823EC
S214048BA8D823D823D823D823D823D823D823D823DC
S214048BB8D823D823D823D823D823D823D823D823CC
S214048BC8D823D823D823D823D823D823D823D823BC
S214048BD8D823D823D823D823D823D823D823D823AC
S214048BE8D823D823D823D823D823D823D823D8239C
S214048BF8D823D823D823D823D823D823D823D8238C
S214048C08D823D823D823D823D823D823D823D8237B
S214048C18D823D823D823D823D823D823D823D8236B
S214048C28D823D823D823D823D823D823D823D8235B
S214048C38D823D823D823D823D823D823D823D8234B
S214048C48D82318341934D823D823D823D823D82398
S214048C58D823F823F823F823F823F823F823F8234B
S214048C68F823D823D823F71BD723F81BD823D823CD
S214048C78D823F823F823F823F823F823F823F8232B
S214048C88F823D823D823F71BD723F81BD823D823AD
S214048C98D823F623F71B59BEBBD69BD6BBD699CE8C
S214048CA8B9C6B9C6D9BE597E19761876197E773DDF
S214048CB8772D171DD61C562D772DF98D1AA69BCE03
S214048CC8BACEBACEBBCEF9F63BFFFBEEFBDEFBDE36
S214048CD81ADFDAE6DBDEDADEFAD69ABEB9C69944D5
S214048CE8B80BB7853AA619AE59A67A3CD813F71B1B
S214048CF8B81BD9ADDBD6BACEBACEBBCEBACED9E679
S214048D08FAE63BF73BFF1AE71ADFD9C6B9B6B9B68F
S214048D18B9BE1776D85D7735361D371D3615361520
S214048D283615161DD624D61CD61CF614F60CF614C0
S214048D38F6143724D81BD823F81BF823F823F8236B
S214048D48F823F823F823F823F823F823F823F8233A
S214048D58F823F823D823D823D823D823D823D823EA
S214048D68D823D823D823D823D823D823D823D8231A
S214048D78D823D823D823D823D823D823D823D8230A
S214048D88D823D823D823D823D823D823D823D823FA
S214048D98D823D823D823D823D823D823D823D823EA
S214048DA8D823D823D823D823D823D823D823D823DA
S214048DB8D823D823D823D823D823D823D823D823CA
S214048DC8D823D823D823D823D823D823D823D823BA
S214048DD8D823D823D823D823D823D823D823D823AA
S214048DE8D823D823D823D823D823D823D823D8239A
S214048DF8D823D823D823D823D823D823D823D8238A
S214048E08D823D823D823D823D823D823D823D82379
S214048E18D823D823D823D823D823D823D823D82369
S214048E28D823D823D823D823D823D823D823D82359
S214048E38D823D823D823D823D823D823D823D82349
S214048E48D823D823D823D823D823D823D823D82339
S214048E58D823D823D823D823D823D823D823D82329
S214048E68D823D823D823D823D823D823D823D82319
S214048E78D823D823D823D823D823D823D823D82309
S214048E88D823D823D823D823D823D823D823D823F9
S214048E98D823D823D823D823D823D823D823D823E9
S214048EA8D823D823D823D823D823D823D823D823D9
S214048EB8D823D823D823D823D823D823D823D823C9
S214048EC8D82319343834F823F823F823F823F82356
S214048ED8F823F823F823F823F823F823F823F823A9
S214048EE8F823F823D82BF823D82BF91BF923191CB5
S214048EF8F923F823F823F823F823F823F823F82388
S214048F08F823F823D82BF823D82BF91BF923F91BB5
S214048F18F923F923F923DBDE7CFF5BFF7BFFB9C665
S214048F28B9AEB9AEB9AE1976F85D375E1866551D92
S214048F38160D3615361D550D3605599E9BCE3AF731
S214048F487BFF7BFF7CFF3BFF3BF7FBE6FBD6DADECB
S214048F58FADED9E6F9DED9E6FADEBABEBABE994C26
S214048F68B81B1896FABEDAB619BFB74CD81BF62B38
S214048F78D71B7AC69CFF5BFF5BFF7CFF7CFFFAEE81
S214048F88DADE3BF73BFF1BDFFAD6B9C699B699BEBD
S214048F9899C6375EB73D561D1615161D161D361589
S214048FA836153615561556155515351D361D361DE2
S214048FB856155724F923F923F82BF923F91BD82B2C
S214048FC8D923F823F723F723F723F723F723F723DD
S214048FD8F723F823F823F823F823F823F823F823A9
S214048FE8F823F823F823F823F823F823F823F82398
S214048FF8F823F823F823F823F823F823F823F82388
S214049008F823F823F823F823F823F823F823F82377
S214049018F823F823F823F823F823F823F823F82367
S214049028F823F823F823F823F823F823F823F82357
S214049038F823F823F823F823F823F823F823F82347
S214049048F823F823F823F823F823F823F823F82337
S214049058F823F823F823F823F823F823F823F82327
S214049068F823F823F823F823F823F823F823F82317
S214049078F823F823F823F823F823F823F823F82307
S214049088F823F823F823F823F823F823F823F823F7
S214049098F823F823F823F823F823F823F823F823E7
S2140490A8F823F823F823F823F823F823F823F823D7
S2140490B8F823F823F823F823F823F823F823F823C7
S2140490C8F823F823F823F823F823F823F823F823B7
S2140490D8F823F823F823F823F823F823F823F823A7
S2140490E8F823F823F823F823F823F823F823F82397
S2140490F8F823F823F823F823F823F823F823F82387
S214049108F823F823F823F823F823F823F823F82376
S214049118F823F823F823F823F823F823F823F82366
S214049128F823F823F823F823F823F823F823F82356
S214049138F823F823F823F823F823F823F823F82346
S214049148F82338343834F823F823F823F823F82394
S214049158F823D81BD81BD81BD81BD81BD81BD81B3E
S214049168F923BBCEFBDEB9CE9ACE79AE59AE79A634
S21404917859A6382CD81BD81BD81BD81BD81BD81BC9
S214049188F91B9BC6FBDEB9CE9ACE59AE59AE79A664
S21404919859AE59A659AEB9BEB9C6BABEDBB699BE5B
S2140491A8B9B6587E186E373516255625362535151C
S2140491B8F614370D1615360DF514D8CE5CF75AF78F
S2140491C85CF7FBE6D9E6FAE6FADEFADEFADEFADE5B
S2140491D8FAE6FBDEFBDE9AA6599E798E988E79A669
S2140491E879A699B6BAC6D954F823D98D7AA659AEAB
S2140491F85B9EDBCEFAE6FAE6F9E6FAE61ADF1BDF4A
S2140492081BDF1ADFFAE6D9C699BE99B6BAB69AB675
S214049218BABE387EF965762D350D360D360D3615FB
S21404922836151615150DB73DF65D59A6DACEB9CE20
S214049238D9CEB9C6BAC699CEB8DEF864D80BF72321
S214049248D723F823D923D823D823D823D823D82315
S214049258D823F823F823F823F823F823F823F82345
S214049268F823F823F823F823F823F823F823F82315
S214049278F823F823F823F823F823F823F823F82305
S214049288F823F823F823F823F823F823F823F823F5
S214049298F823F823F823F823F823F823F823F823E5
S2140492A8F823F823F823F823F823F823F823F823D5
S2140492B8F823F823F823F823F823F823F823F823C5
S2140492C8F823F823F823F823F823F823F823F823B5
S2140492D8F823F823F823F823F823F823F823F823A5
S2140492E8F823F823F823F823F823F823F823F82395
S2140492F8F823F823F823F823F823F823F823F82385
S214049308F823F823F823F823F823F823F823F82374
S214049318F823F823F823F823F823F823F823F82364
S214049328F823F823F823F823F823F823F823F82354
S214049338F823F823F823F823F823F823F823F82344
S214049348F823F823F823F823F823F823F823F82334
S214049358F823F823F823F823F823F823F823F82324
S214049368F823F823F823F823F823F823F823F82314
S214049378F823F823F823F823F823F823F823F82304
S214049388F823F823F823F823F823F823F823F823F4
S214049398F823F823F823F823F823F823F823F823E4
S2140493A8F823F823F823F823F823F823F823F823D4
S2140493B8F823F823F823F823F823F823F823F823C4
S2140493C8F82338343834F823F823F823F823F82312
S2140493D8F823182C182C182C182C182C182C182C85
S2140493E83834FBEE5BFFF9EEFAE6B9BEB9B6D9B681
S2140493F8B9B6583C182C182C182C182C182C182CC1
S214049408182CFBE65BFFF9EEFAE6B9BEB9B6D9B690
S214049418D9B6BAB6BAB6B9AEB9AEB9AE9AAE99B600
S21404942899B6176EF85D362515153615360D551D7D
S2140494385525571D362537253725F9CE7BFF5AF788
S2140494483BF7FAE6D9E6FADEFAD6F9DEF9E6FAD60C
S214049458DADEFAD6FADE799E38967986797E99B671
S21404946899BE99B6B9B6D744981B1896DAC69AC65A
S214049478B9BEFBCED9E6FAD6FADEDADEFADEDAD6F4
S214049488B9DEDADEFBDEB9BE99B6B9B6BAB69AB6AE
S2140494989AB6397EF96D76353515361D361D361D60
S2140494A8361D371D561DF84D186E9AB61BDFFAE69C
S2140494B819DF1ADF1ADFFAE63AF7396DF91B182CA2
S2140494C8182C182C182C182C182C182C182C182C6B
S2140494D8182CF823F823F823F823F823F823F8237A
S2140494E8F823F823F823F823F823F823F823F82393
S2140494F8F823F823F823F823F823F823F823F82383
S214049508F823F823F823F823F823F823F823F82372
S214049518F823F823F823F823F823F823F823F82362
S214049528F823F823F823F823F823F823F823F82352
S214049538F823F823F823F823F823F823F823F82342
S214049548F823F823F823F823F823F823F823F82332
S214049558F823F823F823F823F823F823F823F82322
S214049568F823F823F823F823F823F823F823F82312
S214049578F823F823F823F823F823F823F823F82302
S214049588F823F823F823F823F823F823F823F823F2
S214049598F823F823F823F823F823F823F823F823E2
S2140495A8F823F823F823F823F823F823F823F823D2
S2140495B8F823F823F823F823F823F823F823F823C2
S2140495C8F823F823F823F823F823F823F823F823B2
S2140495D8F823F823F823F823F823F823F823F823A2
S2140495E8F823F823F823F823F823F823F823F82392
S2140495F8F823F823F823F823F823F823F823F82382
S214049608F823F823F823F823F823F823F823F82371
S214049618F823F823F823F823F823F823F823F82361
S214049628F823F823F823F823F823F823F823F82351
S214049638F823F823F823F823F823F823F823F82341
S214049648F82338343834F823F823F823F823F8238F
S214049658182C9ACEDADEBAD6BAD6BAD6BAD6BAD6C5
S214049668BAD6BABE9ABEDAB6DBAE3876186E39669D
S214049678196EBACEDADEBAD6BAD6BAD6BAD6BAD642
S214049688BAD6BABE9ABEBABEDBB6387E186E396685
S214049698196E196E1876196E386E176E186E186667
S2140496A83966562516151715360D160D350D79AE69
S2140496B8DBDEDACED9CED9D6D9D6FAD6DBDEFADED2
S2140496C8FADEFBD61AD7FBDEFADEFADEF9E69A9E4F
S2140496D85A8E59967896788E5896576E3866176EB8
S2140496E8176E19661866989679B699BEBABE9ABE63
S2140496F8D9B6DAB6B9BEB9BEB9BEB9C6DBC6F95468
S214049708F81BF98DDABEB9B699BEB9BEBABE388E9C
S214049718176E3766176E385E185EF865F865F85D76
S214049728F84D99A6D9D6FAD6FAD6B9CE99BEB9BE00
S214049738B9BEBABEBABEBABEB9BE9AB67AB679B613
S2140497487AB679B699B699B699B699B699B699B6CF
S214049758B9BE1865B81BF823F823F823F823F823AA
S214049768F823F823F823F823F823F823F823F82310
S214049778F823F823F823F823F823F823F823F82300
S214049788F823F823F823F823F823F823F823F823F0
S214049798F823F823F823F823F823F823F823F823E0
S2140497A8F823F823F823F823F823F823F823F823D0
S2140497B8F823F823F823F823F823F823F823F823C0
S2140497C8F823F823F823F823F823F823F823F823B0
S2140497D8F823F823F823F823F823F823F823F823A0
S2140497E8F823F823F823F823F823F823F823F82390
S2140497F8F823F823F823F823F823F823F823F82380
S214049808F823F823F823F823F823F823F823F8236F
S214049818F823F823F823F823F823F823F823F8235F
S214049828F823F823F823F823F823F823F823F8234F
S214049838F823F823F823F823F823F823F823F8233F
S214049848F823F823F823F823F823F823F823F8232F
S214049858F823F823F823F823F823F823F823F8231F
S214049868F823F823F823F823F823F823F823F8230F
S214049878F823F823F823F823F823F823F823F823FF
S214049888F823F823F823F823F823F823F823F823EF
S214049898F823F823F823F823F823F823F823F823DF
S2140498A8F823F823F823F823F823F823F823F823CF
S2140498B8F823F823F823F823F823F823F823F823BF
S2140498C8F82338343934F823F823F823F823F8230C
S2140498D8182C7AC6DAD6FAD6FAD6FAD6FAD6FAD633
S2140498E8FAD6B9BE99B679A69A9EF765D85DF85D94
S2140498F8D8659AC6BAD6FAD6FAD6FAD6FAD6FAD61A
S214049908FAD6B9BE99B679A69A9EF76DD85DF85D6B
S214049918D865D75DF75DF855F855186E1876187635
S214049928386E763556255725762D372D56259AC6FC
S2140499381AE7FADE19DFDAE6FADEFADEDADEFADE45
S214049948DADEF9DEF9DEDBDEDBD6DBD6D9DE99969F
S2140499587886788659867886598E196E185EF86DD4
S21404996818661766F865599E99AE7BA678AE7A9EF1
S21404997879A657AE79AE79A67AA67AA679B6984421
S214049988980BB98DBAB699AE99B699A69AA61876CA
S2140499981756175ED76D185E186618761876186EFA
S2140499A81866B9B6DAEEDAE6DBE6D9BEB9AEB9A613
S2140499B879A679AE98A678AE9A9E99AE99AE9AA6E6
S2140499C899AE79AE79AE79AE79AE79AE79AE79AE2E
S2140499D8BAB6195DD81BF823F823F823F823F82316
S2140499E8F823F823F823F823F823F823F823F8238E
S2140499F8F823F823F823F823F823F823F823F8237E
S214049A08F823F823F823F823F823F823F823F8236D
S214049A18F823F823F823F823F823F823F823F8235D
S214049A28F823F823F823F823F823F823F823F8234D
S214049A38F823F823F823F823F823F823F823F8233D
S214049A48F823F823F823F823F823F823F823F8232D
S214049A58F823F823F823F823F823F823F823F8231D
S214049A68F823F823F823F823F823F823F823F8230D
S214049A78F823F823F823F823F823F823F823F823FD
S214049A88F823F823F823F823F823F823F823F823ED
S214049A98F823F823F823F823F823F823F823F823DD
S214049AA8F823F823F823F823F823F823F823F823CD
S214049AB8F823F823F823F823F823F823F823F823BD
S214049AC8F823F823F823F823F823F823F823F823AD
S214049AD8F823F823F823F823F823F823F823F8239D
S214049AE8F823F823F823F823F823F823F823F8238D
S214049AF8F823F823F823F823F823F823F823F8237D
S214049B08F823F823F823F823F823F823F823F8236C
S214049B18F823F823F823F823F823F823F823F8235C
S214049B28F823F823F823F823F823F823F823F8234C
S214049B38F823F823F823F823F823F823F823F8233C
S214049B48F8233934582C17241724172417241724D1
S214049B5818241924572CF965386E186E386E386E22
S214049B68386E99BEBBB6563C372438243924372475
S214049B7818241924572CF95D386E386E386E386EEA
S214049B88386E99BEDBB6764417243824392437242D
S214049B981724382436241824381C99C619EF1BDFD2
S214049BA8FADEFADEFADEFADEFADEFADEFADE1AE7BB
S214049BB81AE7FBE61AE719E719E7FBE6DBE6FADE37
S214049BC819DFF9E61ADF98A6588E798E5996598EB3
S214049BD8988E386E186637663866186E186E186E5D
S214049BE838663766386E762D351D561D571D9724EC
S214049BF83824382438243724382438243724172497
S214049C08F71B7855386E186E596676353615561518
S214049C18561556153615B855186E789ED9B6B9B66B
S214049C2899B6BAB69ABEB9B6D9B699A65A9EB745DB
S214049C383515361D361D361D361D561D561D561D24
S214049C48551D9724182437243724372437243724D3
S214049C5838241824172417241724172417241724F9
S214049C68172417241724172417241724172417240B
S214049C7817241724172417241724172417241724FB
S214049C8817241724172417241724172417241724EB
S214049C9817241724172417241724172417241724DB
S214049CA817241724172417241724172417241724CB
S214049CB817241724172417241724172417241724BB
S214049CC817241724172417241724172417241724AB
S214049CD8172417241724172417241724172417249B
S214049CE8172417241724172417241724172417248B
S214049CF8172417241724172417241724172417247B
S214049D08172417241724172417241724172417246A
S214049D18172417241724172417241724172417245A
S214049D28172417241724172417241724172417244A
S214049D38172417241724172417241724172417243A
S214049D48172417241724172417241724172417242A
S214049D58172417241724172417241724172417241A
S214049D68172417241724172417241724172417240A
S214049D7817241724172417241724172417241724FA
S214049D8817241724172417241724172417241724EA
S214049D9817241724172417241724172417241724DA
S214049DA817241724172417241724172417241724CA
S214049DB817241724172417241724172417241724BA
S214049DC81724582C582C1724172417241724172418
S214049DD81824171C3524B855D75DD75DB85DD855F3
S214049DE8D85D5A965B8E572C171C381C18241724D3
S214049DF81824171C3524984DD85DD75DB85DD85DF2
S214049E08D85D3A967B8E5734171C381C18241724AA
S214049E181824181C17241824171C19AEB9CE9AC669
S214049E2879C699C699C699C699C699C699C679C669
S214049E3879C67AC67AC67AC67AC6BACEDAD6BAD60A
S214049E48DAD6BAD6FACE78A6588E598E398E598E60
S214049E58588EF865D85DF85DF85DD85DB85DB85D70
S214049E68D75DD75DD95D362DD61CF61C161D761C17
S214049E7816241724172417241724172417241724FA
S214049E88171C5845D85DD75DF85D362DF51CF61CAD
S214049E98F61C1615F614784DF8555996BAB69AAEB1
S214049EA89AB67AB699B6B9AEBAB6598E3A7E773DA8
S214049EB8160D3615361516151615F71CF71CF71C49
S214049EC8F71C771C17241724172417241724172479
S214049ED81724172417241724172417241724172499
S214049EE81724172417241724172417241724172489
S214049EF81724172417241724172417241724172479
S214049F081724172417241724172417241724172468
S214049F181724172417241724172417241724172458
S214049F281724172417241724172417241724172448
S214049F381724172417241724172417241724172438
S214049F481724172417241724172417241724172428
S214049F581724172417241724172417241724172418
S214049F681724172417241724172417241724172408
S214049F7817241724172417241724172417241724F8
S214049F8817241724172417241724172417241724E8
S214049F9817241724172417241724172417241724D8
S214049FA817241724172417241724172417241724C8
S214049FB817241724172417241724172417241724B8
S214049FC817241724172417241724172417241724A8
S214049FD81724172417241724172417241724172498
S214049FE81724172417241724172417241724172488
S214049FF81724172417241724172417241724172478
S21404A0081724172417241724172417241724172467
S21404A0181724172417241724172417241724172457
S21404A0281724172417241724172417241724172447
S21404A0381724172417241724172417241724172437
S21404A0481724582C582C1724172417241724172495
S21404A058182419241824172416241724F823182433
S21404A0681824F62B1624381C381C371C17241624D8
S21404A078172419241824172416241724F823182414
S21404A0881824F62B1624181C381C371C17241624D8
S21404A09817241724372418243914F62B1724181CC5
S21404A0A8191C171C172417241724172417241724D5
S21404A0B81724371C381C1824F6231976B88E979656
S21404A0C8989678967896798EB986386E376638660E
S21404A0D8386E762D35153615171D761C371C181C44
S21404A0E8181C1724F723181C381C381C371C18246B
S21404A0F81924182417241724172417241724172474
S21404A1081724371C1724172417241824381C381C1B
S21404A11818241724171CD61C550D1766799E78968E
S21404A12878969896988E79967AA6B54533155515E1
S21404A138570D3615161D961C361C37241724172457
S21404A1483724172417241724172417241724172406
S21404A1581724172417241724172417241724172416
S21404A1681724172417241724172417241724172406
S21404A17817241724172417241724172417241724F6
S21404A18817241724172417241724172417241724E6
S21404A19817241724172417241724172417241724D6
S21404A1A817241724172417241724172417241724C6
S21404A1B817241724172417241724172417241724B6
S21404A1C817241724172417241724172417241724A6
S21404A1D81724172417241724172417241724172496
S21404A1E81724172417241724172417241724172486
S21404A1F81724172417241724172417241724172476
S21404A2081724172417241724172417241724172465
S21404A2181724172417241724172417241724172455
S21404A2281724172417241724172417241724172445
S21404A2381724172417241724172417241724172435
S21404A2481724172417241724172417241724172425
S21404A2581724172417241724172417241724172415
S21404A2681724172417241724172417241724172405
S21404A27817241724172417241724172417241724F5
S21404A28817241724172417241724172417241724E5
S21404A29817241724172417241724172417241724D5
S21404A2A817241724172417241724172417241724C5
S21404A2B817241724172417241724172417241724B5
S21404A2C81724582C582C3724372437243724372473
S21404A2D83724382437243624372417241824381CDB
S21404A2E8371C371C371C381C371C372417241824EB
S21404A2F8381C382437243624372417241824381CC2
S21404A308371C371C371C381C371C372417241824CA
S21404A318381C3824381C1724371C1724381C1724D0
S21404A3281724181C18241824182418241824182445
S21404A3381824371C371C1824F72399651876D87DF3
S21404A348D97DF975F975D97DF975B85DB755B855D8
S21404A358985D3625F614F61CD71C571C17241824A3
S21404A3681824181C182418241824182437241724E6
S21404A3781824372437243724372437243724372413
S21404A3883724381C381C1724172418243824172470
S21404A3981724F72B1724B71C160DB84DF97DF87536
S21404A3A8F875F875D87DD97DDA85573D150DF61CF0
S21404A3B8F61CF61CF71C971C371C1824182418249B
S21404A3C8381C371C372437243724372437243724B3
S21404A3D83724372437243724372437243724372494
S21404A3E83724372437243724372437243724372484
S21404A3F83724372437243724372437243724372474
S21404A4083724372437243724372437243724372463
S21404A4183724372437243724372437243724372453
S21404A4283724372437243724372437243724372443
S21404A4383724372437243724372437243724372433
S21404A4483724372437243724372437243724372423
S21404A4583724372437243724372437243724372413
S21404A4683724372437243724372437243724372403
S21404A47837243724372437243724372437243724F3
S21404A48837243724372437243724372437243724E3
S21404A49837243724372437243724372437243724D3
S21404A4A837243724372437243724372437243724C3
S21404A4B837243724372437243724372437243724B3
S21404A4C837243724372437243724372437243724A3
S21404A4D83724372437243724372437243724372493
S21404A4E83724372437243724372437243724372483
S21404A4F83724372437243724372437243724372473
S21404A5083724372437243724372437243724372462
S21404A5183724372437243724372437243724372452
S21404A5283724372437243724372437243724372442
S21404A5383724372437243724372437243724372432
S21404A5483724582C782C37243724372437243724B0
S21404A55837243824382438243824382438245824EB
S21404A5685724381C381C37243724372437243824EF
S21404A578381C3824382438243824382438245824D2
S21404A5885724381C381C37243724372437243824CF
S21404A598381C381C581C372437243824581C3724AD
S21404A5A837243724372437243724372437243724C2
S21404A5B83724372437243824382437243724371CB8
S21404A5C8371C381C3724172C1724371C5714581CC8
S21404A5D8381C1824182438243824382418243824F2
S21404A5E83824571C571C3724372437243724372451
S21404A5F85724372437243724372437243724372452
S21404A608372438243824382438243824382438245A
S21404A61837245724381C382418241724371C381C85
S21404A628381C371C371C57145814581C381C182444
S21404A6383824571C561C372438241824382437241E
S21404A648571C372437243724372437243724372409
S21404A6583724372437243724372437243724372411
S21404A6683724372437243724372437243724372401
S21404A67837243724372437243724372437243724F1
S21404A68837243724372437243724372437243724E1
S21404A69837243724372437243724372437243724D1
S21404A6A837243724372437243724372437243724C1
S21404A6B837243724372437243724372437243724B1
S21404A6C837243724372437243724372437243724A1
S21404A6D83724372437243724372437243724372491
S21404A6E83724372437243724372437243724372481
S21404A6F83724372437243724372437243724372471
S21404A7083724372437243724372437243724372460
S21404A7183724372437243724372437243724372450
S21404A7283724372437243724372437243724372440
S21404A7383724372437243724372437243724372430
S21404A7483724372437243724372437243724372420
S21404A7583724372437243724372437243724372410
S21404A7683724372437243724372437243724372400
S21404A77837243724372437243724372437243724F0
S21404A78837243724372437243724372437243724E0
S21404A79837243724372437243724372437243724D0
S21404A7A837243724372437243724372437243724C0
S21404A7B837243724372437243724372437243724B0
S21404A7C83724782C782C372437243724372437240E
S21404A7D8372438243824382438243824572457244B
S21404A7E8572438243824372437243724572438243D
S21404A7F8571C382438243824382438245724572413
S21404A808572438243824372437243724572438241C
S21404A818571C381C571C3824372438245724372404
S21404A8283724382438243824382438243824382438
S21404A838382438243724372457243824382438240A
S21404A848571C581C381C38243724371C581C381CEA
S21404A858382438243724571C571C382438243824DA
S21404A86838243724571C3724372438241824381C0B
S21404A878381C3824372437243724372437243724F5
S21404A88837243824382437243724382438245824BA
S21404A898571C5624372437241824372437243724B7
S21404A8A83824381C1724381C581C382438245724B1
S21404A8B837243724372437243724372437243724AF
S21404A8C8571C572437243724372437243724372467
S21404A8D8372437243724372437243724372437248F
S21404A8E8372437243724372437243724372437247F
S21404A8F8372437243724372437243724372437246F
S21404A908372437243724372437243724372437245E
S21404A918372437243724372437243724372437244E
S21404A928372437243724372437243724372437243E
S21404A938372437243724372437243724372437242E
S21404A948372437243724372437243724372437241E
S21404A958372437243724372437243724372437240E
S21404A96837243724372437243724372437243724FE
S21404A97837243724372437243724372437243724EE
S21404A98837243724372437243724372437243724DE
S21404A99837243724372437243724372437243724CE
S21404A9A837243724372437243724372437243724BE
S21404A9B837243724372437243724372437243724AE
S21404A9C8372437243724372437243724372437249E
S21404A9D8372437243724372437243724372437248E
S21404A9E8372437243724372437243724372437247E
S21404A9F8372437243724372437243724372437246E
S21404AA08372437243724372437243724372437245D
S21404AA18372437243724372437243724372437244D
S21404AA28372437243724372437243724372437243D
S21404AA38372437243724372437243724372437242D
S21404AA483724782C782C372437243724372437248B
S21404AA58372437243824382438243724372437240A
S21404AA6838245724382456243824381C571C3924A8
S21404AA7837243724382438243824372437243724EA
S21404AA8838245724382456243824381C571C392488
S21404AA98372438243724381C571C38243724591CA0
S21404AAA8581C381C381C381C381C381C381C381CD5
S21404AAB8381C5724571C571C571C3724372438244B
S21404AAC83724372437243824382438243824382498
S21404AAD8372437245724571C571C3724182438245B
S21404AAE837243724571C3724571C571C3824381C3B
S21404AAF8372437243724372437243724372437246D
S21404AB083724382437245724572438243824382418
S21404AB18381C571C18243824581C571C3724571C10
S21404AB28571C581C382438243824172C571C371C10
S21404AB38372438243824571C571C571C571C381CD1
S21404AB48381C382437243724372437243724372422
S21404AB58372437243724372437243724372437240C
S21404AB6837243724372437243724372437243724FC
S21404AB7837243724372437243724372437243724EC
S21404AB8837243724372437243724372437243724DC
S21404AB9837243724372437243724372437243724CC
S21404ABA837243724372437243724372437243724BC
S21404ABB837243724372437243724372437243724AC
S21404ABC8372437243724372437243724372437249C
S21404ABD8372437243724372437243724372437248C
S21404ABE8372437243724372437243724372437247C
S21404ABF8372437243724372437243724372437246C
S21404AC08372437243724372437243724372437245B
S21404AC18372437243724372437243724372437244B
S21404AC28372437243724372437243724372437243B
S21404AC38372437243724372437243724372437242B
S21404AC48372437243724372437243724372437241B
S21404AC58372437243724372437243724372437240B
S21404AC6837243724372437243724372437243724FB
S21404AC7837243724372437243724372437243724EB
S21404AC8837243724372437243724372437243724DB
S21404AC98372437243724372437243724171417142B
S21404ACA817141714171417141714171437243724DB
S21404ACB837243724372437243724372437243724AB
S21404ACC83724782C782C3724372437243724372409
S21404ACD8372437243724372437245724572457242B
S21404ACE83724382438245724381C381C571C37244F
S21404ACF8362437243724372437245724572457240C
S21404AD083724382438243724381C381C571C37244E
S21404AD18362438243724381C571C37243724581C20
S21404AD28372437243724372437243724372437243A
S21404AD383724382438243824382437243724571C0E
S21404AD48571C37245724571C5724372437243724AA
S21404AD583724382438243824372437243724571CEF
