S02B0000433A2F55736572732F6D696B68612F4465736B746F702F3234335F66696E616C5F70726F6A6563744D
S21400002004FDFFDE150000D9150140D9150280D960
S2140000303A3109004C0000211E010020068B00000A
S21400004004F9FFDE1500C0D9150100DA150240DA02
S214000050150380DA1504C0DA150500DB150640DB4B
S21400006034C8BF01040084317400C001C452F3399F
S21400007004080002C4064002C4168002840CC002B3
S214000080C41200033500409A3500809A3500C09AA5
S2140000903500009B0412C002350040323500803225
S2140000A03500C032370040320C00A04A260500500A
S2140000B0CC3F804A1E030052440C00020500003A62
S2140000C006020000040C00020500003A0700003A91
S2140000D035000032370040320C00A04A1EFD3F506B
S2140000E034C8BF0104408031C43AC0013500C03175
S2140000F0843EC001370000320C00604226FD3F48B7
S214000100CC3F40421EFBFF497400C0010452F33945
S214000110C400000204004002260840423700803235
S2140001200C00E05226FC3F58CC3FC0523A885B3A5F
S2140001300500C06A4400404A06F73F00740000010C
S2140001400452332174004001045373290030000028
S2140001507400C0010453F3391700003ACC03004181
S21400016004004001808000003AD10840CC03002102
S21400017044004001808000003AD20840CC030021B1
S21400018084004001808000001701003ACC03004143
S214000190C4004001808000003AD10840CC03002112
S2140001A004014001808000003AD20840CC030021C0
S2140001B04401400180800000740000018455332112
S2140001C074004001045573290F0040290450800133
S2140001D026078029003D000074004001045573295D
S2140001E00F008029440080310D008029060200009F
S2140001F00400400106F73F00F40000018463092173
S21400020004194001041980010432C001404700006F
S2140002107400000104523321740040010453732912
S2140002200700C0228C00005B1E0600604C00005BCE
S214000230260500601700002917014029D4FFBF01DA
S2140002400601000004000001806700001700C0D906
S214000250170100DA170240DA170380DA1704C0DA4B
S214000260170500DB170640DB0407C0DE170000D9C1
S214000270170140D9170280D90403C0DE04FF7FEFC0
S2080002803A0880EFC4
S21400030004F9FFDE150000DC150140DC150280DC78
S2140003101503C0DC150400DD150540DD150680DD7F
S2140003200700002447004024870080241700C02CC4
S2140003301701002D7AD023887AD025900C3040857E
S2140003401E1A00A80C0440851E0400A83A88E38CF8
S214000350C44F8005160440B4060600003A88E38CB5
S2140003601603008806030000C44F40040601000080
S2140003703A8823001500402C0C0840851E0300A870
S2140003803AC8A5A416070090060700003AC8A5A418
S214000390C43B8005160180B406030000C43B8004FD
S2140003A0060100003A8825001501802C170000DCA5
S2140003B0170140DC170280DC1703C0DC170400DDE1
S2140003C0170540DD170680DD0407C0DE3A2800F872
S2140003D004FAFFDE150000DC150140DC150280DCA7
S2140003E01503C0DC150400DD150540DD34C83F04E8
S2140003F004080C843701408404508004043CC00484
S2140004002614009026110028C4FFBF94C4FF7F293D
S214000410260C0098C4FFFF9C7A9228983AB0A8A4AD
S2140004207A9028A03A8869A43A38AB993A886BA99A
S2140004307A902AA83A882BA98F0E40AD2D0040A5A9
S21400044006F33F00043CC00406ED3F003A880B303C
S21400045006EB3F00170000DC170140DC170280DCCB
S2140004601703C0DC170400DD170540DD0406C0DEF8
S2140004703A2800F804FAFFDE150000DC150140DC1F
S214000480150280DC1503C0DC150400DD150540DD13
S21400049034C83F0404080C843701408404018004F7
S2140004A00401C0042615C03126120090260D0098BF
S2140004B03A88E92C7A9228A03AB0A8A17A9028A087
S2140004C03A8869A46401409D3A88ABAC7A902AA821
S2140004D03A882BA98F0340AD350040A5C4FFFF9C8A
S2140004E006F23F000401C004C4FFBF9444008031FC
S2140004F006EC3F000401800406EA3F00170000DC1B
S214000500170140DC170280DC1703C0DC170400DD8F
S214000510170540DD0406C0DE3A2800F804FBFFDEBF
S214000520150000DC150140DC150280DC1503C0DC7C
S214000530150400DD34C83F0404080C8437014084E9
S21400054004508004043CC004260B0090C4FFBF94F3
S21400055026070098C4FFFF9C7A9228983AB0A8A471
S2140005607A9028A03A8869A42D0000A106F83F00DA
S214000570043CC00406F43F00170000DC170140DC12
S214000580170280DC1703C0DC170400DD0405C0DE9C
S2140005903A2800F804F8FFDE150000DC150140DC00
S2140005A0150280DC1503C0DC150400DD150540DDF2
S2140005B0150680DD1507C0DD34C83F0404080C842A
S2140005C037004084370180840450C004043C000592
S2140005D0260D0098C4FFFF9C260900A0C4FF3FA577
S2140005E07A922AA03AB0EAAC7A902AA83A886DACF9
S2140005F02F0080B53A88AFAC2D0080BD06F63F00D0
S214000600043C000506F23F00170000DC170140DC42
S214000610170280DC1703C0DC170400DD170540DD79
S214000620170680DD1707C0DD0408C0DE3A2800F88C
S21400063004FDFFDE150000DC150140DC150280DC41
S21400064034C83F0404080C84370140843A882528BF
S2140006507A9224903AB024917A9024903A886594BD
S2140006602D008091170000DC170140DC170280DCAB
S2140006700403C0DE3A2800F804FEFFDE150000DCA6
S214000680150040DC34C83F0404080C8444004004D1
S21400069035004084370340844C00408C1EFD3F8864
S2140006A0170000DC170040DC0402C0DE3A2800F821
S2140006B03400C106C4FFFFDE34C8BF0104088C3115
S2140006C034000002047E02423501003204000001BC
S2140006D0C05100008067000034C8BF01044080316C
S2140006E0843EC001043C0002350000323700003270
S2140006F00C00604226FD3F48CC3F40421EFBFF49AF
S214000700043A000235000032370000320C00604226
S21400071026FD3F48CC3F40421EFBFF490400000236
S21400072035000032370000320C00604226FD3F489C
S214000730CC3F40421EFBFF49043D0002350000321C
S214000740370000320C00604226FD3F48CC3F404256
S2140007501EFBFF4934C8BF0104008831840C000129
S214000760BA900820246A18213A882320CCFF7F8C70
S214000770350240343A8823203AD422883503403460
S214000780C40140043501403444000002FA700140C0
S214000790440000023A70014006FF3F0004FEFFDE00
S2140007A0150000DC150140DC34C83F040400088452
S2140007B07400400444F1698C360140243A88098864
S2140007C0BA900820246A18213A882320CCFF7F8C10
S2140007D0350240843A8823203AD422883503408460
S2140007E00401400435014084370040848C00408C6E
S2140007F01EFD3F8835000080170000DC170140DC36
S2140008000402C0DE3A2800F804FBFFDE150000DC18
S214000810150140DC150280DC1503C0DC150400DD84
S214000820F4008004042B8A943A886591360300010C
S214000830C40F0004050000940648000044000004AD
S214000840360300818401000405000094064300007E
S2140008508400000436030081C416000405000094DA
S214000860063E0000C400000436030081C4130004E2
S21400087005000094063900000401000436030081D8
S21400088084190004050000940634000044010004A6
S21400089036030081441B000405000094062F000068
S2140008A08401000436030081441F00040500009400
S2140008B0062A0000C401000436030081C4010004B7
S2140008C0050000940625000004020004360300819B
S2140008D0C41F000405000094062000004402000423
S2140008E036030081C419000405000094061B0000AE
S2140008F08402000436030081C41D00040500009431
S21400090006160000C402000436030081041F00041B
S214000910050000940611000004030004360300815D
S214000920440E000405000094060C00004403000476
S21400093036030081841700040500009406070000B3
S2140009408403000436030081441E0004050000945E
S21400095006020000441C00040500009405000094F4
S214000960C40040043605408934C87F040408408C1F
S214000970F4008004C42B8A94060D00004401400451
S2140009803606408934C87F04040C408CF40080048A
S214000990442C8A94840080940605000034C87F04A2
S2140009A0040C408CF4008004442C8A9484008094C8
S2140009B004000001040140013A882900260640216F
S2140009C00700C0943A9228A03AB0E8A44400002158
S2140009D0C4FFBF9406F93F003500008D170000DC09
S2140009E0170140DC170280DC1703C0DC170400DDAB
S20C0009F00405C0DE3A2800F8F9
S2140009F800000000000000000000000000000000EA
S214000A0800000000000000000000000000000000D9
S214000A1800000000000000000000000000000000C9
S214000A2800000000000000000000000000000000B9
S21400CD480000000000000000000000000000424D47
S21400CD5838580200000000003600000028000000D6
S21400CD684001000010FFFFFF010010000000000057
S21400CD7802580200120B0000120B00000000000010
S21400CD8800000000F921D919D919D919D919D919C2
S21400CD98D919D919D919D919D919D919D919D919F6
S21400CDA8D919D919D919D919D919D919D919D919E6
S21400CDB8D919D919D919D919D919D919D919D919D6
S21400CDC8D919D919D919D919D919D919D919D919C6
S21400D008D919F921D919B911B911B911B911B91123
S21400D018B911B911B911B911B911B911B911B911B3
S21400D028B911B911B911B911B911B911B911B911A3
S21400D038B911B911B911B911B911B911B911B91193
S21400D048B911B911B911B911B911B911B911B91183
S21400D288B911D919D919B911B911B911B911B911F1
S21400D298B911B911B911B911B911B911B911B91131
S21400D2A8B911B911B911B911B911B911B911B91121
S21400D2B8B911B911B911B911B911B911B911B91111
S21400D2C8B911B911B911B911B911B911B911B91101
S21400D508B911D919D919B911B911B911B911B9116E
S21400D518B911B911B911B911B911B911B911B911AE
S21400D528B911B911B911B911B911B911B911B9119E
S21400D538B911B911B911B911B911B911B911B9118E
S21400D548B911B911B911B911B911B911B911B9117E
S21400D788B911D919D919B911B911B911B911B911EC
S21400D798B911B911B911B911B911B911B911B9112C
S21400D7A8B911B911B911B911B911B911B911B9111C
S21400D7B8B911B911B911B911B911B911B911B9110C
S21400D7C8B911B911B911B911B911B911B911B911FC
S21400DA08B911D919D919B911B911B911B911B91169
S21400DA18B911B911B911B911B911B911B911B911A9
S21400DA28B911B911B911B911B911B911B911B91199
S21400DA38B911B911B911B911B911B911B911B91189
S21400DA48B911B911B911B911B911B911B911B91179
S21400DC88B911D919D919B911B911B911B911B911E7
S21400DC98B911B911B911B911B911B911B911B91127
S21400DCA8B911B911B911B911B911B911B911B91117
S21400DCB8B911B911B911B911B911B911B911B91107
S21400DCC8B911B911B911B911B911B911B911B911F7
S21400DF08B911D919D919B911B911B911B911B91164
S21400DF18B911B911B911B911B911B911B911B911A4
S21400DF28B911B911B911B911B911B911B911B91194
S21400DF38B911B911B911B911B911B911B911B91184
S21400DF48B911B911B911B911B911B911B911B91174
S21400E188B911D919D919B911B911B911B911B911E2
S21400E198B911B911B911B911B911B911B911B91122
S21400E1A8B911B911B911B911B911B911B911B91112
S21400E1B8B911B911B911B911B911B911B911B91102
S21400E1C8B911B911B911B911B911B911B911B911F2
S21400E408B911D919D919B911B911B911B911B9115F
S21400E418B911B911B911B911B911B911B911B9119F
S21400E428B911B911B911B911B911B911B911B9118F
S21400E438B911B911B911B911B911B911B911B9117F
S21400E448B911B911B911B911B911B911B911B9116F
S21400E688B911D919D919B911B911B911B911B911DD
S21400E698B911B911B911B911B911B911B911B9111D
S21400E6A8B911B911B911B911B911B911B911B9110D
S21400E6B8B911B911B911B911B911B911B911B911FD
S21400E6C8B911B911B911B911B911B911B911B911ED
S21400E908B911D919D919B911B911B911B911B9115A
S21400E918B911B911B911B911B911B911B911B9119A
S21400E928B911B911B911B911B911B911B911B9118A
S21400E938B911B911B911B911B911B911B911B9117A
S21400E948B911B911B911B911B911B911B911B9116A
S21400EB88B911D919D919B911B911B911B911B911D8
S21400EB98B911B911B911B911B911B911B911B91118
S21400EBA8B911B911B911B911B911B911B911B91108
S21400EBB8B911B911B911B911B911B911B911B911F8
S21400EBC8B911B911B911B911B911B911B911B911E8
S21400EE08B911D919D919B911B911B911B911B91155
S21400EE18B911B911B911B911B911B911B911B91195
S21400EE28B911B911B911B911B911B911B911B91185
S21400EE38B911B911B911B911B911B911B911B91175
S21400EE48B911B911B911B911B911B911B911B91165
S21400F088B911D919D919B911B911B911B911B911D3
S21400F098B911B911B911B911B911B911B911B91113
S21400F0A8B911B911B911B911B911B911B911B91103
S21400F0B8B911B911B911B911B911B911B911B911F3
S21400F0C8B911B911B911B911B911B911B911B911E3
S21400F308B911D919D919B911B911B911B911B91150
S21400F318B911B911B911B911B911B911B911B91190
S21400F328B911B911B911B911B911B911B911B91180
S21400F338B911B911B911B911B911B911B911B91170
S21400F348B911B911B911B911B911B911B911B91160
S21400F588B911D919D919B911B911B911B911B911CE
S21400F598B911B911B911B911B911B911B911B9110E
S21400F5A8B911B911B911B911B911B911B911B911FE
S21400F5B8B911B911B911B911B911B911B911B911EE
S21400F5C8B911B911B911B911B911B911B911B911DE
S21400F808B911D919D919B911B911B911B911B9114B
S21400F818B911B911B911B911B911B911B911B9118B
S21400F828B911B911B911B911B911B911B911B9117B
S21400F838B911B911B911B911B911B911B911B9116B
S21400F848B911B911B911B911B911B911B911B9115B
S21400FA88B911D919D919B911B911B911B911B911C9
S21400FA98B911B911B911B911B911B911B911B91109
S21400FAA8B911B911B911B911B911B911B911B911F9
S21400FAB8B911B911B911B911B911B911B911B911E9
S21400FAC8B911B911B911B911B911B911B911B911D9
S21400FD08B911D919D919B911B911B911B911B91146
S21400FD18B911B911B911B911B911B911B911B91186
S21400FD28B911B911B911B911B911B911B911B91176
S21400FD38B911B911B911B911B911B911B911B91166
S21400FD48B911B911B911B911B911B911B911B91156
S21400FF88B911D919D919B911B911B911B911B911C4
S21400FF98B911B911B911B911B911B911B911B91104
S21400FFA8B911B911B911B911B911B911B911B911F4
S21400FFB8B911B911B911B911B911B911B911B911E4
S21400FFC8B911B911B911B911B911B911B911B911D4
S214010208B911D919D919B911B911B911B911B91140
S214010218B911B911B911B911B911B911B911B91180
S214010228B911B911B911B911B911B911B911B91170
S214010238B911B911B911B911B911B911B911B91160
S214010248B911B911B911B911B911B911B911B91150
S214010488B911D919D919B911B911B911B911B911BE
S214010498B911B911B911B911B911B911B911B911FE
S2140104A8B911B911B911B911B911B911B911B911EE
S2140104B8B911B911B911B911B911B911B911B911DE
S2140104C8B911B911B911B911B911B911B911B911CE
S214010708B911D919D919B911B911B911B911B9113B
S214010718B911B911B911B911B911B911B911B9117B
S214010728B911B911B911B911B911B911B911B9116B
S214010738B911B911B911B911B911B911B911B9115B
S214010748B911B911B911B911B911B911B911B9114B
S214010988B911D919D919B911B911B911B911B911B9
S214010998B911B911B911B911B911B911B911B911F9
S2140109A8B911B911B911B911B911B911B911B911E9
S2140109B8B911B911B911B911B911B911B911B911D9
S2140109C8B911B911B911B911B911B911B911B911C9
S214010C08B911D919D919B911B911B911B911B91136
S214010C18B911B911B911B911B911B911B911B91176
S214010C28B911B911B911B911B911B911B911B91166
S214010C38B911B911B911B911B911B911B911B91156
S214010C48B911B911B911B911B911B911B911B91146
S214010E88B911D919D919B911B911B911B911B911B4
S214010E98B911B911B911B911B911B911B911B911F4
S214010EA8B911B911B911B911B911B911B911B911E4
S214010EB8B911B911B911B911B911B911B911B911D4
S214010EC8B911B911B911B911B911B911B911B911C4
S214011108B911D919D919B911B911B911B911B91131
S214011118B911B911B911B911B911B911B911B91171
S214011128B911B911B911B911B911B911B911B91161
S214011138B911B911B911B911B911B911B911B91151
S214011148B911B911B911B911B911B911B911B91141
S214011388B911D919D919B911B911B911B911B911AF
S214011398B911B911B911B911B911B911B911B911EF
S2140113A8B911B911B911B911B911B911B911B911DF
S2140113B8B911B911B911B911B911B911B911B911CF
S2140113C8B911B911B911B911B911B911B911B911BF
S214011608B911D919D919B911B911B911B911B9112C
S214011618B911B911B911B911B911B911B911B9116C
S214011628B911B911B911B911B911B911B911B9115C
S214011638B911B911B911B911B911B911B911B9114C
S214011648B911B911B911B911B911B911B911B9113C
S214011888B911D919D919B911B911B911B911B911AA
S214011898B911B911B911B911B911B911B911B911EA
S2140118A8B911B911B911B911B911B911B911B911DA
S2140118B8B911B911B911B911B911B911B911B911CA
S2140118C8B911B911B911B911B911B911B911B911BA
S214011B08B911D919D919B911B911B911B911B91127
S214011B18B911B911B911B911B911B911B911B91167
S214011B28B911B911B911B911B911B911B911B91157
S214011B38B911B911B911B911B911B911B911B91147
S214011B48B911B911B911B911B911B911B911B91137
S214011D88B911D919D919B911B911B911B911B911A5
S214011D98B911B911B911B911B911B911B911B911E5
S214011DA8B911B911B911B911B911B911B911B911D5
S214011DB8B911B911B911B911B911B911B911B911C5
S214011DC8B911B911B911B911B911B911B911B911B5
S214012008B911D919D919B911B911B911B911B91122
S214012018B911B911B911B911B911B911B911B91162
S214012028B911B911B911B911B911B911B911B91152
S214012038B911B911B911B911B911B911B911B91142
S214012048B911B911B911B911B911B911B911B91132
S214012288B911D919D919B911B911B911B911B911A0
S214012298B911B911B911B911B911B911B911B911E0
S2140122A8B911B911B911B911B911B911B911B911D0
S2140122B8B911B911B911B911B911B911B911B911C0
S2140122C8B911B911B911B911B911B911B911B911B0
S214012508B911D919D919B911B911B911B911B9111D
S214012518B911B911B911B911B911B911B911B9115D
S214012528B911B911B911B911B911B911B911B9114D
S214012538B911B911B911B911B911B911B911B9113D
S214012548B911B911B911B911B911B911B911B9112D
S214012788B911D919D919B911B911B911B911B9119B
S214012798B911B911B911B911B911B911B911B911DB
S2140127A8B911B911B911B911B911B911B911B911CB
S2140127B8B911B911B911B911B911B911B911B911BB
S2140127C8B911B911B911B911B911B911B911B911AB
S214012A08B911D919D919B911B911B911B911B91118
S214012A18B911B911B911B911B911B911B911B91158
S214012A28B911B911B911B911B911B911B911B91148
S214012A38B911B911B911B911B911B911B911B91138
S214012A48B911B911B911B911B911B911B911B91128
S214012C88B911D919D919B911B911B911B911B91196
S214012C98B911B911B911B911B911B911B911B911D6
S214012CA8B911B911B911B911B911B911B911B911C6
S214012CB8B911B911B911B911B911B911B911B911B6
S214012CC8B911B911B911B911B911B911B911B911A6
S214012F08B911D919D919B911B911B911B911B91113
S214012F18B911B911B911B911B911B911B911B91153
S214012F28B911B911B911B911B911B911B911B91143
S214012F38B911B911B911B911B911B911B911B91133
S214012F48B911B911B911B911B911B911B911B91123
S214013188B911D919D919B911B911B911B911B91191
S214013198B911B911B911B911B911B911B911B911D1
S2140131A8B911B911B911B911B911B911B911B911C1
S2140131B8B911B911B911B911B911B911B911B911B1
S2140131C8B911B911B911B911B911B911B911B911A1
S214013408B911D919D919B911B911B911B911B9110E
S214013418B911B911B911B911B911B911B911B9114E
S214013428B911B911B911B911B911B911B911B9113E
S214013438B911B911B911B911B911B911B911B9112E
S214013448B911B911B911B911B911B911B911B9111E
S214013688B911D919D919B911B911B911B911B9118C
S214013698B911B911B911B911B911B911B911B911CC
S2140136A8B911B911B911B911B911B911B911B911BC
S2140136B8B911B911B911B911B911B911B911B911AC
S2140136C8B911B911B911B911B911B911B911B9119C
S214013908B911D919D919B911B911B911B911B91109
S214013918B911B911B911B911B911B911B911B91149
S214013928B911B911B911B911B911B911B911B91139
S214013938B911B911B911B911B911B911B911B91129
S214013948B911B911B911B911B911B911B911B91119
S214013B88B911D919D919B911B911B911B911B91187
S214013B98B911B911B911B911B911B911B911B911C7
S214013BA8B911B911B911B911B911B911B911B911B7
S214013BB8B911B911B911B911B911B911B911B911A7
S214013BC8B911B911B911B911B911B911B911B91197
S214013E08B911D919D919B911B911B911B911B91104
S214013E18B911B911B911B911B911B911B911B91144
S214013E28B911B911B911B911B911B911B911B91134
S214013E38B911B911B911B911B911B911B911B91124
S214013E48B911B911B911B911B911B911B911B91114
S214014088B911D919D919B911B911B911B911B91182
S214014098B911B911B911B911B911B911B911B911C2
S2140140A8B911B911B911B911B911B911B911B911B2
S2140140B8B911B911B911B911B911B911B911B911A2
S2140140C8B911B911B911B911B911B911B911B91192
S214014308B911D919D919B911B911B911B911B911FF
S214014318B911B911B911B911B911B911B911B9113F
S214014328B911B911B911B911B911B911B911B9112F
S214014338B911B911B911B911B911B911B911B9111F
S214014348B911B911B911B911B911B911B911B9110F
S214014588B911D919D919B911B911B911B911B9117D
S214014598B911B911B911B911B911B911B911B911BD
S2140145A8B911B911B911B911B911B911B911B911AD
S2140145B8B911B911B911B911B911B911B911B9119D
S2140145C8B911B911B911B911B911B911B911B9118D
S214014808B911D919D919B911B911B911B911B911FA
S214014818B911B911B911B911B911B911B911B9113A
S214014828B911B911B911B911B911B911B911B9112A
S214014838B911B911B911B911B911B911B911B9111A
S214014848B911B911B911B911B911B911B911B9110A
S214014A88B911D919D919B911B911B911B911B91178
S214014A98B911B911B911B911B911B911B911B911B8
S214014AA8B911B911B911B911B911B911B911B911A8
S214014AB8B911B911B911B911B911B911B911B91198
S214014AC8B911B911B911B911B911B911B911B91188
S214014D08B911D919D919B911B911B911B911B911F5
S214014D18B911B911B911B911B911B911B911B91135
S214014D28B911B911B911B911B911B911B911B91125
S214014D38B911B911B911B911B911B911B911B91115
S214014D48B911B911B911B911B911B911B911B91105
S214014F88B911D919D919B911B911B911B911B91173
S214014F98B911B911B911B911B911B911B911B911B3
S214014FA8B911B911B911B911B911B911B911B911A3
S214014FB8B911B911B911B911B911B911B911B91193
S214014FC8B911B911B911B911B911B911B911B91183
S214015208B911D919D919B911B911B911B911B911F0
S214015218B911B911B911B911B911B911B911B91130
S214015228B911B911B911B911B911B911B911B91120
S214015238B911B911B911B911B911B911B911B91110
S214015248B911B911B911B911B911B911B911B91100
S214015488B911D919D919B911B911B911B911B9116E
S214015498B911B911B911B911B911B911B911B911AE
S2140154A8B911B911B911B911B911B911B911B9119E
S2140154B8B911B911B911B911B911B911B911B9118E
S2140154C8B911B911B911B911B911B911B911B9117E
S214015708B911D919D919B911B911B911B911B911EB
S214015718B911B911B911B911B911B911B911B9112B
S214015728B911B911B911B911B911B911B911B9111B
S214015738B911B911B911B911B911B911B911B9110B
S214015748B911B911B911B911B911B911B911B911FB
S214015988B911D919D919B911B911B911B911B91169
S214015998B911B911B911B911B911B911B911B911A9
S2140159A8B911B911B911B911B911B911B911B91199
S2140159B8B911B911B911B911B911B911B911B91189
S2140159C8B911B911B911B911B911B911B911B91179
S214015C08B911D919D919B911B911B911B911B911E6
S214015C18B911B911B911B911B911B911B911B91126
S214015C28B911B911B911B911B911B911B911B91116
S214015C38B911B911B911B911B911B911B911B91106
S214015C48B911B911B911B911B911B911B911B911F6
S214015E88B911D919D919B911B911B911B911B91164
S214015E98B911B911B911B911B911B911B911B911A4
S214015EA8B911B911B911B911B911B911B911B91194
S214015EB8B911B911B911B911B911B911B911B91184
S214015EC8B911B911B911B911B911B911B911B91174
S214016108B911D919D919B911B911B911B911B911E1
S214016118B911B911B911B911B911B911B911B91121
S214016128B911B911B911B911B911B911B911B91111
S214016138B911B911B911B911B911B911B911B91101
S214016148B911B911B911B911B911B911B911B911F1
S214016388B911D919D919B911B911B911B911B9115F
S214016398B911B911B911B911B911B911B911B9119F
S2140163A8B911B911B911B911B911B911B911B9118F
S2140163B8B911B911B911B911B911B911B911B9117F
S2140163C8B911B911B911B911B911B911B911B9116F
S214016608B911D919D919B911B911B911B911B911DC
S214016618B911B911B911B911B911B911B911B9111C
S214016628B911B911B911B911B911B911B911B9110C
S214016638B911B911B911B911B911B911B911B911FC
S214016648B911B911B911B911B911B911B911B911EC
S214016888B911D919D919B911B911B911B911B9115A
S214016898B911B911B911B911B911B911B911B9119A
S2140168A8B911B911B911B911B911B911B911B9118A
S2140168B8B911B911B911B911B911B911B911B9117A
S2140168C8B911B911B911B911B911B911B911B9116A
S214016B08B911D919D919B911B911B911B911B911D7
S214016B18B911B911B911B911B911B911B911B91117
S214016B28B911B911B911B911B911B911B911B91107
S214016B38B911B911B911B911B911B911B911B911F7
S214016B48B911B911B911B911B911B911B911B911E7
S214016D88B911D919D919B911B911B911B911B91155
S214016D98B911B911B911B911B911B911B911B91195
S214016DA8B911B911B911B911B911B911B911B91185
S214016DB8B911B911B911B911B911B911B911B91175
S214016DC8B911B911B911B911B911B911B911B91165
S214017008B911D919D919B911B911B911B911B911D2
S214017018B911B911B911B911B911B911B911B91112
S214017028B911B911B911B911B911B911B911B91102
S214017038B911B911B911B911B911B911B911B911F2
S214017048B911B911B911B911B911B911B911B911E2
S214017288B911D919F919D911D911D911D911D91190
S214017298D911D911D911D911D911D911D911D91190
S2140172A8D911D911D911D911D911D911D911D91180
S2140172B8D911D911D911D911D911D911D911D91170
S2140172C8D911D911D911D911D911D911D911D91160
S2140172D8D911D911D911D911D911D911D911D91150
S2140172E8D911D911D911D911D911D911D911D91140
S2140172F8D911D911D911D911D911D911D911D91130
S214017308D911D911D911D911D911D911D911D9111F
S214017318D911D911D911D911D911D911D911D9110F
S214017328D911D911D911D911D911D911D911D911FF
S214017338D911D911D911D911D911D911D911D911EF
S214017348D911D911D811D815D811D815D911D911DB
S214017358B815D911D911D811D811D811D911D911EF
S214017368D911D911D911D911D911D911D911D911BF
S214017378D911D911D911D911D911D911D911D911AF
S214017388D911D911D911D911D911D911D911D9119F
S214017398D911D911D911D911D911D911D911D9118F
S2140173A8D911D911D911D911D911D911D911D9117F
S2140173B8D911D911D911D911D911D911D911D9116F
S2140173C8D911D911D911D911D911D911D911D9115F
S2140173D8D911D911D911D911D911D911D911D9114F
S2140173E8D911D911D911D911D911D911D911D9113F
S2140173F8D911D911D911D911D911D911D911D9112F
S214017408D911D911D911D911D911D911D911D9111E
S214017418D911D911D911D911D911D911D911D9110E
S214017428D911D911D911D911D911D911D911D911FE
S214017438D911D911D911D911D911D911D911D911EE
S214017448D911D911D911D911D911D911D911D911DE
S214017458D911D911D911D911D911D911D911D911CE
S214017468D911D911D911D911D911D911D911D911BE
S214017478D911D911D911D911D911D911D911D911AE
S214017488D911D911D911D911D911D911D911D9119E
S214017498D911D911D911D911D911D911D911D9118E
S2140174A8D911D911D911D911D911D911D911D9117E
S2140174B8D911D911D911D911D911D911D911D9116E
S2140174C8D911D911D911D911D911D911D911D9115E
S2140174D8D911D911D911D911D911D911D911D9114E
S2140174E8D911D911D911D911D911D911D911D9113E
S2140174F8D911D911D911D911D911D911D911D9112E
S214017508D911F919F919D811D811D811D811D811D2
S214017518D811D811D811D811D811D811D811D81115
S214017528D811D811D811D811D811D811D811D81105
S214017538D811D811D811D811D811D811D811D811F5
S214017548D811D811D811D811D811D811D811D811E5
S214017558D811D811D811D811D811D811D811D811D5
S214017568D811D811D811D811D811D811D811D811C5
S214017578D811D811D811D811D811D811D811D811B5
S214017588D811D811D811D811D811D811D811D811A5
S214017598D811D811D811D811D811D811D811D81195
S2140175A8D811D811D811D811D811D811D811D81185
S2140175B8D811D811D811D811D811D811D811D81175
S2140175C8D811D911D811D811D911D811D811D91162
S2140175D8D915D811D811D915D915D911D911D81540
S2140175E8D815D811D811D811D811D811D811D81141
S2140175F8D811D811D811D811D811D811D811D81135
S214017608D811D811D811D811D811D811D811D81124
S214017618D811D811D811D811D811D811D811D81114
S214017628D811D811D811D811D811D811D811D81104
S214017638D811D811D811D811D811D811D811D811F4
S214017648D811D811D811D811D811D811D811D811E4
S214017658D811D811D811D811D811D811D811D811D4
S214017668D811D811D811D811D811D811D811D811C4
S214017678D811D811D811D811D811D811D811D811B4
S214017688D811D811D811D811D811D811D811D811A4
S214017698D811D811D811D811D811D811D811D81194
S2140176A8D811D811D811D811D811D811D811D81184
S2140176B8D811D811D811D811D811D811D811D81174
S2140176C8D811D811D811D811D811D811D811D81164
S2140176D8D811D811D811D811D811D811D811D81154
S2140176E8D811D811D811D811D811D811D811D81144
S2140176F8D811D811D811D811D811D811D811D81134
S214017708D811D811D811D811D811D811D811D81123
S214017718D811D811D811D811D811D811D811D81113
S214017728D811D811D811D811D811D811D811D81103
S214017738D811D811D811D811D811D811D811D811F3
S214017748D811D811D811D811D811D811D811D811E3
S214017758D811D811D811D811D811D811D811D811D3
S214017768D811D811D811D811D811D811D811D811C3
S214017778D811D811D811D811D811D811D811D811B3
S214017788D811F919F919D811D811D811D811D81151
S214017798D811D811D811D811D811D811D811D81193
S2140177A8D811D811D811D811D811D811D811D81183
S2140177B8D811D811D811D811D811D811D811D81173
S2140177C8D811D811D811D811D811D811D811D81163
S2140177D8D811D811D811D811D811D811D811D81153
S2140177E8D811D811D811D811D811D811D811D81143
S2140177F8D811D811D811D811D811D811D811D81133
S214017808D811D811D811D811D811D811D811D81122
S214017818D811D811D811D811D811D811D811D81112
S214017828D811D811D811D811D811D811D811D81102
S214017838D811D811D811D811D811D811D811D811F2
S214017848D811D811D811D811D911D911D911D911DE
S214017858D911D811D915D811D711D911D811D811CC
S214017868D811D811D811D811D811D811D811D811C2
S214017878D811D811D811D811D811D811D811D811B2
S214017888D811D811D811D811D811D811D811D811A2
S214017898D811D811D811D811D811D811D811D81192
S2140178A8D811D811D811D811D811D811D811D81182
S2140178B8D811D811D811D811D811D811D811D81172
S2140178C8D811D811D811D811D811D811D811D81162
S2140178D8D811D811D811D811D811D811D811D81152
S2140178E8D811D811D811D811D811D811D811D81142
S2140178F8D811D811D811D811D811D811D811D81132
S214017908D811D811D811D811D811D811D811D81121
S214017918D811D811D811D811D811D811D811D81111
S214017928D811D811D811D811D811D811D811D81101
S214017938D811D811D811D811D811D811D811D811F1
S214017948D811D811D811D811D811D811D811D811E1
S214017958D811D811D811D811D811D811D811D811D1
S214017968D811D811D811D811D811D811D811D811C1
S214017978D811D811D811D811D811D811D811D811B1
S214017988D811D811D811D811D811D811D811D811A1
S214017998D811D811D811D811D811D811D811D81191
S2140179A8D811D811D811D811D811D811D811D81181
S2140179B8D811D811D811D811D811D811D811D81171
S2140179C8D811D811D811D811D811D811D811D81161
S2140179D8D811D811D811D811D811D811D811D81151
S2140179E8D811D811D811D811D811D811D811D81141
S2140179F8D811D811D811D811D811D811D811D81131
S214017A08D811F919F919D811D811D811D811D811CE
S214017A18D811D811D811D811D811D811D811D81110
S214017A28D811D811D811D811D811D811D811D81100
S214017A38D811D811D811D811D811D811D811D811F0
S214017A48D811D811D811D811D811D811D811D811E0
S214017A58D811D811D811D811D811D811D811D811D0
S214017A68D811D811D811D811D811D811D811D811C0
S214017A78D811D811D811D811D811D811D811D811B0
S214017A88D811D811D811D811D811D811D811D811A0
S214017A98D811D811D811D811D811D811D811D81190
S214017AA8D811D811D811D811D811D811D811D81180
S214017AB8D811D811D811D811D811D811D811D81170
S214017AC8D811D911D815D715D911B811B80DB909C2
S214017AD8B80DB90DB90DD90DD811B915B815D911F3
S214017AE8D811D811D811D811D811D811D811D81140
S214017AF8D811D811D811D811D811D811D811D81130
S214017B08D811D811D811D811D811D811D811D8111F
S214017B18D811D811D811D811D811D811D811D8110F
S214017B28D811D811D811D811D811D811D811D811FF
S214017B38D811D811D811D811D811D811D811D811EF
S214017B48D811D811D811D811D811D811D811D811DF
S214017B58D811D811D811D811D811D811D811D811CF
S214017B68D811D811D811D811D811D811D811D811BF
S214017B78D811D811D811D811D811D811D811D811AF
S214017B88D811D811D811D811D811D811D811D8119F
S214017B98D811D811D811D811D811D811D811D8118F
S214017BA8D811D811D811D811D811D811D811D8117F
S214017BB8D811D811D811D811D811D811D811D8116F
S214017BC8D811D811D811D811D811D811D811D8115F
S214017BD8D811D811D811D811D811D811D811D8114F
S214017BE8D811D811D811D811D811D811D811D8113F
S214017BF8D811D811D811D811D811D811D811D8112F
S214017C08D811D811D811D811D811D811D811D8111E
S214017C18D811D811D811D811D811D811D811D8110E
S214017C28D811D811D811D811D811D811D811D811FE
S214017C38D811D811D811D811D811D811D811D811EE
S214017C48D811D811D811D811D811D811D811D811DE
S214017C58D811D811D811D811D811D811D811D811CE
S214017C68D811D811D811D811D811D811D811D811BE
S214017C78D811D811D811D811D811D811D811D811AE
S214017C88D811F919F919D811D811D811D811D8114C
S214017C98D811D811D811D811D811D811D811D8118E
S214017CA8D811D811D811D811D811D811D811D8117E
S214017CB8D811D811D811D811D811D811D811D8116E
S214017CC8D811D811D811D811D811D811D811D8115E
S214017CD8D811D811D811D811D811D811D811D8114E
S214017CE8D811D811D811D811D811D811D811D8113E
S214017CF8D811D811D811D811D811D811D811D8112E
S214017D08D811D811D811D811D811D811D811D8111D
S214017D18D811D811D811D811D811D811D811D8110D
S214017D28D811D811D811D811D811D811D811D811FD
S214017D38D811D811D811D811D811D811D811D811ED
S214017D48D811D811D811D811D90999421A57FB5206
S214017D58FA56FA521A57392AD90DF811F711D811C5
S214017D68D911D811D811D811D811D811D811D811BC
S214017D78D811D811D811D811D811D811D811D811AD
S214017D88D811D811D811D811D811D811D811D8119D
S214017D98D811D811D811D811D811D811D811D8118D
S214017DA8D811D811D811D811D811D811D811D8117D
S214017DB8D811D811D811D811D811D811D811D8116D
S214017DC8D811D811D811D811D811D811D811D8115D
S214017DD8D811D811D811D811D811D811D811D8114D
S214017DE8D811D811D811D811D811D811D811D8113D
S214017DF8D811D811D811D811D811D811D811D8112D
S214017E08D811D811D811D811D811D811D811D8111C
S214017E18D811D811D811D811D811D811D811D8110C
S214017E28D811D811D811D811D811D811D811D811FC
S214017E38D811D811D811D811D811D811D811D811EC
S214017E48D811D811D811D811D811D811D811D811DC
S214017E58D811D811D811D811D811D811D811D811CC
S214017E68D811D811D811D811D811D811D811D811BC
S214017E78D811D811D811D811D811D811D811D811AC
S214017E88D811D811D811D811D811D811D811D8119C
S214017E98D811D811D811D811D811D811D811D8118C
S214017EA8D811D811D811D811D811D811D811D8117C
S214017EB8D811D811D811D811D811D811D811D8116C
S214017EC8D811D811D811D811D811D811D811D8115C
S214017ED8D811D811D811D811D811D811D811D8114C
S214017EE8D811D811D811D811D811D811D811D8113C
S214017EF8D811D811D811D811D811D811D811D8112C
S214017F08D811F919F919D811D811D811D811D811C9
S214017F18D811D811D811D811D811D811D811D8110B
S214017F28D811D811D811D811D811D811D811D811FB
S214017F38D811D811D811D811D811D811D811D811EB
S214017F48D811D811D811D811D811D811D811D811DB
S214017F58D811D811D811D811D811D811D811D811CB
S214017F68D811D811D811D811D811D811D811D811BB
S214017F78D811D811D811D811D811D811D811D811AB
S214017F88D811D811D811D811D811D811D811D8119B
S214017F98D811D811D811D811D811D811D811D8118B
S214017FA8D811D811D811D811D811D811D811D8117B
S214017FB8D811D811D811D811D811D811D811D8116B
S214017FC8D811D80DD809D80DB8011A5FDB7FBB7F49
S214017FD8BB7FBB7FFB7F793AB70DF711F711F81115
S214017FE8D915D811D811D811D811D811D811D81136
S214017FF8D811D811D811D811D811D811D811D8112B
S214018008D811D811D811D811D811D811D811D8111A
S214018018D811D811D811D811D811D811D811D8110A
S214018028D811D811D811D811D811D811D811D811FA
S214018038D811D811D811D811D811D811D811D811EA
S214018048D811D811D811D811D811D811D811D811DA
S214018058D811D811D811D811D811D811D811D811CA
S214018068D811D811D811D811D811D811D811D811BA
S214018078D811D811D811D811D811D811D811D811AA
S214018088D811D811D811D811D811D811D811D8119A
S214018098D811D811D811D811D811D811D811D8118A
S2140180A8D811D811D811D811D811D811D811D8117A
S2140180B8D811D811D811D811D811D811D811D8116A
S2140180C8D811D811D811D811D811D811D811D8115A
S2140180D8D811D811D811D811D811D811D811D8114A
S2140180E8D811D811D811D811D811D811D811D8113A
S2140180F8D811D811D811D811D811D811D811D8112A
S214018108D811D811D811D811D811D811D811D81119
S214018118D811D811D811D811D811D811D811D81109
S214018128D811D811D811D811D811D811D811D811F9
S214018138D811D811D811D811D811D811D811D811E9
S214018148D811D811D811D811D811D811D811D811D9
S214018158D811D811D811D811D811D811D811D811C9
S214018168D811D811D811D811D811D811D811D811B9
S214018178D811D811D811D811D811D811D811D811A9
S214018188D811F919F919D811D811D811D811D81147
S214018198D811D811D811D811D811D811D811D81189
S2140181A8D811D811D811D811D811D811D811D81179
S2140181B8D811D811D811D811D811D811D811D81169
S2140181C8D811D811D811D811D811D811D811D81159
S2140181D8D811D811D811D811D811D811D811D81149
S2140181E8D811D811D811D811D811D811D811D81139
S2140181F8D811D811D811D811D811D811D811D81129
S214018208D811D811D811D811D811D811D811D81118
S214018218D811D811D811D811D811D811D811D81108
S214018228D811D811D811D811D811D811D811D811F8
S214018238D811D811D811D811D811D811D811D811E8
S214018248D80DDA4A3A5B195B1A577A739A7F9B7F7D
S2140182589A7F7B779A77D93A971A3716D911F911EF
S214018268F811D811D811D811D811D811D811D81198
S214018278D811D811D811D811D811D811D811D811A8
S214018288D811D811D811D811D811D811D811D81198
S214018298D811D811D811D811D811D811D811D81188
S2140182A8D811D811D811D811D811D811D811D81178
S2140182B8D811D811D811D811D811D811D811D81168
S2140182C8D811D811D811D811D811D811D811D81158
S2140182D8D811D811D811D811D811D811D811D81148
S2140182E8D811D811D811D811D811D811D811D81138
S2140182F8D811D811D811D811D811D811D811D81128
S214018308D811D811D811D811D811D811D811D81117
S214018318D811D811D811D811D811D811D811D81107
S214018328D811D811D811D811D811D811D811D811F7
S214018338D811D811D811D811D811D811D811D811E7
S214018348D811D811D811D811D811D811D811D811D7
S214018358D811D811D811D811D811D811D811D811C7
S214018368D811D811D811D811D811D811D811D811B7
S214018378D811D811D811D811D811D811D811D811A7
S214018388D811D811D811D811D811D811D811D81197
S214018398D811D811D811D811D811D811D811D81187
S2140183A8D811D811D811D811D811D811D811D81177
S2140183B8D811D811D811D811D811D811D811D81167
S2140183C8D811D811D811D811D811D811D811D81157
S2140183D8D811D811D811D811D811D811D811D81147
S2140183E8D811D811D811D811D811D811D811D81137
S2140183F8D811D811D811D811D811D811D811D81127
S214018408D811F919F919D811D811D811D811D811C4
S214018418D811D811D811D811D811D811D811D81106
S214018428D811D811D811D811D811D811D811D811F6
S214018438D811D811D811D811D811D811D811D811E6
S214018448D811D811D811D811D811D811D811D811D6
S214018458D811D811D811D811D811D811D811D80DCA
S214018468D80DD80DD80DD80DD80DD80DD80DD80DD6
S214018478D80DD811D811D811D80DD811D811D811AE
S214018488D811D811D811D80DD80DD80DD80DD80DAA
S214018498D80DD80DD80DD80DD80DD80DD80DD811A2
S2140184A8D811D811D811D811D811D811D811D81176
S2140184B8D811D811D811D811D811D811F811D80D4A
S2140184C8B8053A63DB7FBC7FBA7FBC7B9B7F9B7F0B
S2140184D89B7F9B737A73193BF6223916BA11F711EB
S2140184E8D811D811D811D811D811D811D811D81136
S2140184F8D811D811D811D811D811D811D811D81126
S214018508D811D811D811D811D811D811D811D81115
S214018518D811D811D811D811D811D811D811D81105
S214018528D811D811D811D811D811D811D811D811F5
S214018538D811D811D811D811D811D811D811D811E5
S214018548D811D811D811D811D811D811D811D811D5
S214018558D811D811D811D811D811D811D811D811C5
S214018568D811D811D811D811D811D811D811D811B5
S214018578D811D811D811D811D811D811D811D811A5
S214018588D811D811D811D811D811D811D811D81195
S214018598D811D811D811D811D811D811D811D81185
S2140185A8D811D811D811D811D811D811D811D81175
S2140185B8D811D811D811D811D811D811D811D81165
S2140185C8D811D811D811D811D811D811D811D81155
S2140185D8D811D811D811D811D811D811D811D81145
S2140185E8D811D811D811D811D811D811D811D81135
S2140185F8D811D811D811D811D811D811D811D81125
S214018608D811D811D811D811D811D811D811D81114
S214018618D811D811D811D811D811D811D811D81104
S214018628D811D811D811D811D811D811D811D811F4
S214018638D811D811D811D811D811D811D811D811E4
S214018648D811D811D811D811D811D811D811D811D4
S214018658D811D811D811D811D811D811D811D811C4
S214018668D811D811D811D811D811D811D811D811B4
S214018678D811D811D811D811D811D811D811D811A4
S214018688D811F919F919D811D811D811D811D81142
S214018698D811D811D811D811D811D811D811D81184
S2140186A8D811D811D815F811F815F811D815F811E8
S2140186B8F811D811D811D811D811D811D811D81144
S2140186C8D811D811D815F811F811F811D815F811CC
S2140186D8F811D915DA11D711D811D80DD811FA5AB7
S2140186E85A631B633A63194FF94AF94EFA4AFA4E26
S2140186F8194B181AD811B9421B4F191AD80DD91186
S214018708D811D811D811F9525A633A6339633B63C1
S2140187183B631B5F195BF94E184B184B184F3822F1
S214018728D811F811D811D711D811D815D911D911CE
S214018738D811F911D811D811D811D811D80DDA4E87
S2140187485A637A77BB7F9B7F9B7F9B737B737A6722
S2140187585A6359635A63F83AD7229712560E760A1D
S214018768760E180ED811D911D911D911D811D811D8
S214018778F711D811F811FA0DF811F911F811D715E2
S214018788F911F811D811D811D811D811D811D81152
S214018798D811F811D811D811D811D811D811D81163
S2140187A8D811D811D811D811D811D811D811D81173
S2140187B8D811D811D811D811D811D811D811D81163
S2140187C8D811D811D811D811D811D811D811D81153
S2140187D8D811D811D811D811D811D811D811D81143
S2140187E8D811D811D811D811D811D811D811D81133
S2140187F8D811D811D811D811D811D811D811D81123
S214018808D811D811D811D811D811D811D811D81112
S214018818D811D811D811D811D811D811D811D81102
S214018828D811D811D811D811D811D811D811D811F2
S214018838D811D811D811D811D811D811D811D811E2
S214018848D811D811D811D811D811D811D811D811D2
S214018858D811D811D811D811D811D811D811D811C2
S214018868D811D811D811D811D811D811D811D811B2
S214018878D811D811D811D811D811D811D811D811A2
S214018888D811D811D811D811D811D811D811D81192
S214018898D811D811D811D811D811D811D811D81182
S2140188A8D811D811D811D811D811D811D811D81172
S2140188B8D811D811D811D811D811D811D811D81162
S2140188C8D811D811D811D811D811D811D811D81152
S2140188D8D811D811D811D811D811D811D811D81142
S2140188E8D811D811D811D811D811D811D811D81132
S2140188F8D811D811D811D811D811D811D811D81122
S214018908D811F919181AF811F811F811F811F811FF
S214018918F811F811F811F811F811F811F811F81101
S214018928F811F811D811F811D815F811D915F81148
S214018938F811F811F811F811F811F811F811F811E1
S214018948F811F811D811F811D815F811D915F81128
S214018958F811F811F811F811D811D811D90D5B735F
S214018968BC7FBC7FBB7F7A677A5F785F795F796304
S2140189787963381ED80D38537A6B3722D70DD8113C
S214018988D80DD80DD80D5B6BDC7FBB7FB97FBB7F5D
S214018998BB7F9A779A737A63795B7A5F795F3926B0
S2140189A8D811F80DDA0DD911D911D811F715F80D16
S2140189B8D911D815D811D90DDA0DD90DB70D3B5FD8
S2140189C8DC7FBB7F9B7F9B7F9B7F7A737B6F5A5F26
S2140189D85957595B5B5FF836F71EB612950A950A22
S2140189E8B50E370ED811D811D815D811F811D811D7
S2140189F8D811D815D815D815D715D811F811F811D2
S214018A08D811D811D811D811D811D811D811D81110
S214018A18D811D811F811F811F811F811F811F81140
S214018A28F811F811F811F811F811F811F811F811F0
S214018A38F811F811F811F811F811F811F811F811E0
S214018A48F811F811F811F811F811F811F811F811D0
S214018A58F811F811F811F811F811F811F811F811C0
S214018A68F811F811F811F811F811F811F811F811B0
S214018A78F811F811F811F811F811F811F811F811A0
S214018A88F811F811F811F811F811F811F811F81190
S214018A98F811F811F811F811F811F811F811F81180
S214018AA8F811F811F811F811F811F811F811F81170
S214018AB8F811F811F811F811F811F811F811F81160
S214018AC8F811F811F811F811F811F811F811F81150
S214018AD8F811F811F811F811F811F811F811F81140
S214018AE8F811F811F811F811F811F811F811F81130
S214018AF8F811F811F811F811F811F811F811F81120
S214018B08F811F811F811F811F811F811F811F8110F
S214018B18F811F811F811F811F811F811F811F811FF
S214018B28F811F811F811F811F811F811F811F811EF
S214018B38F811F811F811F811F811F811F811F811DF
S214018B48F811F811F811F811F811F811F811F811CF
S214018B58F811F811F811F811F811F811F811F811BF
S214018B68F811F811F811F811F811F811F811F811AF
S214018B78F811F811F811F811F811F811F811F8119F
S214018B88F811181A191AF811F811F811F811F8113C
S214018B98F811F811F811F811F811F811F811F8117F
S214018BA8F811F811F811F70DF711F80DF811F81179
S214018BB8F811F811F811F811F811F811F811F8115F
S214018BC8F811F811F811F70DF711F80DF811F81159
S214018BD8F811F611F70D195F5B6B5B6B5B6B5967E9
S214018BE859635963795F193F193B183BF93EB71E1C
S214018BF8B716970E760EB616B716F9461A535B676A
S214018C085A675A675B67797B9B7F7B777B6F7B6F3E
S214018C187A6F7A737B6F7A6F7A6B5A5F59635922C8
S214018C28D805D7421A53F95639533A1EF809F70D9B
S214018C38D80DF9567B6B5A675A675B675A6779731B
S214018C487A739B7B9B7F9A739A6F7963595B595B9F
S214018C58595F173BD82EB71A960E970E960A960A9C
S214018C68960A760E7612760E760E760A7606760AC6
S214018C78760A1712F80DF811F80DF811F811F8110F
S214018C88F811F811F811F811F811F811F811F8118E
S214018C98F811F811F811F811F811F811F811F8117E
S214018CA8F811F811F811F811F811F811F811F8116E
S214018CB8F811F811F811F811F811F811F811F8115E
S214018CC8F811F811F811F811F811F811F811F8114E
S214018CD8F811F811F811F811F811F811F811F8113E
S214018CE8F811F811F811F811F811F811F811F8112E
S214018CF8F811F811F811F811F811F811F811F8111E
S214018D08F811F811F811F811F811F811F811F8110D
S214018D18F811F811F811F811F811F811F811F811FD
S214018D28F811F811F811F811F811F811F811F811ED
S214018D38F811F811F811F811F811F811F811F811DD
S214018D48F811F811F811F811F811F811F811F811CD
S214018D58F811F811F811F811F811F811F811F811BD
S214018D68F811F811F811F811F811F811F811F811AD
S214018D78F811F811F811F811F811F811F811F8119D
S214018D88F811F811F811F811F811F811F811F8118D
S214018D98F811F811F811F811F811F811F811F8117D
S214018DA8F811F811F811F811F811F811F811F8116D
S214018DB8F811F811F811F811F811F811F811F8115D
S214018DC8F811F811F811F811F811F811F811F8114D
S214018DD8F811F811F811F811F811F811F811F8113D
S214018DE8F811F811F811F811F811F811F811F8112D
S214018DF8F811F811F811F811F811F811F811F8111D
S214018E08F811191A181AF811F811F811F811F811B9
S214018E18F811F811F811F811F811F811F811F811FC
S214018E28F811F811F815F811F815F90DF911190EC8
S214018E38F911F811F811F811F811F811F811F811DB
S214018E48F811F811F815F811F815F90DF911F90DC9
S214018E58F911F911F9117B6FBC7F9B7FBB7F5963B1
S214018E68595759575957193BF82E172FF832B50E37
S214018E789606960A960E95069602394F5B679A7B72
S214018E88BB7FBB7FBC7F9B7F9B7B7B737B6B7A6F38
S214018E987A6F7973796F79737A6F5A5F5A5F592641
S214018EA8D80D184B7A5F7A5B795F5726F80DF61559
S214018EB8F70D3A63BC7FBB7FBB7FBC7FBC7F7A77ED
S214018EC87A6F9B7B9B7F7B6F7A6B5963595B395FA4
S214018ED85963172FD71EB60E960A760E960E960A61
S214018EE8960A960AB60A960AB50A950E960E960E2A
S214018EF8B60A3712F911F911F815F911F90DF8151D
S214018F08F911F811F711F711F711F711F711F71110
S214018F18F711F811F811F811F811F811F811F811FC
S214018F28F811F811F811F811F811F811F811F811EB
S214018F38F811F811F811F811F811F811F811F811DB
S214018F48F811F811F811F811F811F811F811F811CB
S214018F58F811F811F811F811F811F811F811F811BB
S214018F68F811F811F811F811F811F811F811F811AB
S214018F78F811F811F811F811F811F811F811F8119B
S214018F88F811F811F811F811F811F811F811F8118B
S214018F98F811F811F811F811F811F811F811F8117B
S214018FA8F811F811F811F811F811F811F811F8116B
S214018FB8F811F811F811F811F811F811F811F8115B
S214018FC8F811F811F811F811F811F811F811F8114B
S214018FD8F811F811F811F811F811F811F811F8113B
S214018FE8F811F811F811F811F811F811F811F8112B
S214018FF8F811F811F811F811F811F811F811F8111B
S214019008F811F811F811F811F811F811F811F8110A
S214019018F811F811F811F811F811F811F811F811FA
S214019028F811F811F811F811F811F811F811F811EA
S214019038F811F811F811F811F811F811F811F811DA
S214019048F811F811F811F811F811F811F811F811CA
S214019058F811F811F811F811F811F811F811F811BA
S214019068F811F811F811F811F811F811F811F811AA
S214019078F811F811F811F811F811F811F811F8119A
S214019088F811181A181AF811F811F811F811F81138
S214019098F811F80DF80DF80DF80DF80DF80DF80D96
S2140190A8F9115B677B6F59675A67395739573953CF
S2140190B839531816F80DF80DF80DF80DF80DF80DCA
S2140190C8F90D5B637B6F59675A67395739573953B7
S2140190D8395739533957595F59635A5F5B5B595F3B
S2140190E8595B383F1837971A9612B6129612950A90
S2140190F8760A9706960A9606750A78679C7B9A7B7F
S2140191089C7B7B7379737A737A6F7A6F7A6F7A6FCF
S2140191187A737B6F7B6F3A53394F394758473953C0
S2140191283953595B5A63792AF811D9463A5319576C
S2140191381B4F7B677A737A7379737A737A6F9B6F2F
S2140191489B6F7A6F7A737963595F595B5A5B5A5B7F
S2140191585A5F183FF932B616950696069606960A87
S214019168960A960A9506D71EF62E39537A675967D0
S214019178596759635A633967586F7832F805F71192
S214019188F711F811F911F811F811F811F811F81189
S214019198F811F811F811F811F811F811F811F81179
S2140191A8F811F811F811F811F811F811F811F81169
S2140191B8F811F811F811F811F811F811F811F81159
S2140191C8F811F811F811F811F811F811F811F81149
S2140191D8F811F811F811F811F811F811F811F81139
S2140191E8F811F811F811F811F811F811F811F81129
S2140191F8F811F811F811F811F811F811F811F81119
S214019208F811F811F811F811F811F811F811F81108
S214019218F811F811F811F811F811F811F811F811F8
S214019228F811F811F811F811F811F811F811F811E8
S214019238F811F811F811F811F811F811F811F811D8
S214019248F811F811F811F811F811F811F811F811C8
S214019258F811F811F811F811F811F811F811F811B8
S214019268F811F811F811F811F811F811F811F811A8
S214019278F811F811F811F811F811F811F811F81198
S214019288F811F811F811F811F811F811F811F81188
S214019298F811F811F811F811F811F811F811F81178
S2140192A8F811F811F811F811F811F811F811F81168
S2140192B8F811F811F811F811F811F811F811F81158
S2140192C8F811F811F811F811F811F811F811F81148
S2140192D8F811F811F811F811F811F811F811F81138
S2140192E8F811F811F811F811F811F811F811F81128
S2140192F8F811F811F811F811F811F811F811F81118
S214019308F811181A181AF811F811F811F811F811B5
S214019318F8111816181618161816181618161816F4
S214019328181A7B779B7F79777A73595F595B795BD4
S214019338595B381E18161816181618161816181601
S21401934818167B73BB7F79777A73595F595B595BBC
S214019358595B5A5B5A5B5957595759575A57595B6C
S214019368595B1737F82E9612750A960A9606B50EA1
S214019378B512970E9612971297127967BB7F9A7B4A
S2140193889B7B7A7379737A6F7A6B796F79737A6B59
S2140193987A6F7A6B7A6F394F184B3943393F395B95
S2140193A8595F595B595B5722D80DF84A7A635A6355
S2140193B8595F7B6779737A6B7A6F7A6F7A6F5A6BB4
S2140193C8596F5A6F7B6F595F595B595B5A5B3A5BAA
S2140193D85A5B193FF936B61A950A960E960E960EE8
S2140193E8960E970E960EF82618375A5B9B6F7A7369
S2140193F8996F7A6F7A6F7A739A7B9936F90D181680
S21401940818161816181618161816181618161816DE
S2140194181816F811F811F811F811F811F811F811D1
S214019428F811F811F811F811F811F811F811F811E6
S214019438F811F811F811F811F811F811F811F811D6
S214019448F811F811F811F811F811F811F811F811C6
S214019458F811F811F811F811F811F811F811F811B6
S214019468F811F811F811F811F811F811F811F811A6
S214019478F811F811F811F811F811F811F811F81196
S214019488F811F811F811F811F811F811F811F81186
S214019498F811F811F811F811F811F811F811F81176
S2140194A8F811F811F811F811F811F811F811F81166
S2140194B8F811F811F811F811F811F811F811F81156
S2140194C8F811F811F811F811F811F811F811F81146
S2140194D8F811F811F811F811F811F811F811F81136
S2140194E8F811F811F811F811F811F811F811F81126
S2140194F8F811F811F811F811F811F811F811F81116
S214019508F811F811F811F811F811F811F811F81105
S214019518F811F811F811F811F811F811F811F811F5
S214019528F811F811F811F811F811F811F811F811E5
S214019538F811F811F811F811F811F811F811F811D5
S214019548F811F811F811F811F811F811F811F811C5
S214019558F811F811F811F811F811F811F811F811B5
S214019568F811F811F811F811F811F811F811F811A5
S214019578F811F811F811F811F811F811F811F81195
S214019588F811181A181AF811F811F811F811F81133
S21401959818165A677A6F5A6B5A6B5A6B5A6B5A6B0C
S2140195A85A6B5A5F5A5F7A5B7B57183B18371933E1
S2140195B819375A677A6F5A6B5A6B5A6B5A6B5A6BCA
S2140195C85A6B5A5F5A5F5A5F7B5B183F18371933D5
S2140195D81937F936F83A19371837F736F836183387
S2140195E81933B612960A970A9606960695063957B5
S2140195F85B6F7A677967596B596B7A6B7B6F7A6F92
S2140196087A6F7B6B7A6B7B6F7A6F7A6F79735A4F47
S2140196183A47394B384B3847384B173718331737CB
S214019628173719331833584B395B595F5A5F5A5FE6
S214019638795B7A5B595F595F595F59637B63792A0E
S214019648F80DF9467A5F595B395F595F5A5F1847D3
S214019658173717331737182F182FF832F832F82E0E
S214019668F8265953796B7A6B7A6B5967395F595F64
S214019678595F5A5F5A5F5A5F595F3A5B3A5B395B83
S2140196883A5B395B395B395B395B395B395B395B2B
S214019698595F7832D80DF811F811F811F811F81148
S2140196A8F811F811F811F811F811F811F811F81164
S2140196B8F811F811F811F811F811F811F811F81154
S2140196C8F811F811F811F811F811F811F811F81144
S2140196D8F811F811F811F811F811F811F811F81134
S2140196E8F811F811F811F811F811F811F811F81124
S2140196F8F811F811F811F811F811F811F811F81114
S214019708F811F811F811F811F811F811F811F81103
S214019718F811F811F811F811F811F811F811F811F3
S214019728F811F811F811F811F811F811F811F811E3
S214019738F811F811F811F811F811F811F811F811D3
S214019748F811F811F811F811F811F811F811F811C3
S214019758F811F811F811F811F811F811F811F811B3
S214019768F811F811F811F811F811F811F811F811A3
S214019778F811F811F811F811F811F811F811F81193
S214019788F811F811F811F811F811F811F811F81183
S214019798F811F811F811F811F811F811F811F81173
S2140197A8F811F811F811F811F811F811F811F81163
S2140197B8F811F811F811F811F811F811F811F81153
S2140197C8F811F811F811F811F811F811F811F81143
S2140197D8F811F811F811F811F811F811F811F81133
S2140197E8F811F811F811F811F811F811F811F81123
S2140197F8F811F811F811F811F811F811F811F81113
S214019808F811181A191AF811F811F811F811F811AF
S21401981818163A637A6B7A6B7A6B7A6B7A6B7A6B11
S2140198287A6B595F595B39533A4FF732F82EF82E4F
S214019838F8325A635A6B7A6B7A6B7A6B7A6B7A6BF5
S2140198487A6B595F595B39533A4FF736F82EF82E2B
S214019858D832F72EF72EF82AF82AF836F83A183BAF
S2140198681837B61AB612B712B6169716B6125A633C
S2140198787A737A6F796F7A737A6F7A6F7A6F7A6F8B
S2140198887A6F796F796F7B6F5B6B7B6B796F594BEF
S214019898384338433943384319471937182FF836A8
S2140198A8F8321733F832394F59573B5338573A4F2E
S2140198B839533757395739533A533A53395B58223C
S2140198C8D805D9465A5B5957595B59535A53183BC9
S2140198D8F72AF72EF736182F1833183B183B183780
S2140198E81833595B7A777A737B73795F595759536B
S2140198F839533957385338573A4F395759575A53AE
S21401990859573957395739573957395739573957A9
S2140199185A5B792EF80DF811F811F811F811F811AB
S214019928F811F811F811F811F811F811F811F811E1
S214019938F811F811F811F811F811F811F811F811D1
S214019948F811F811F811F811F811F811F811F811C1
S214019958F811F811F811F811F811F811F811F811B1
S214019968F811F811F811F811F811F811F811F811A1
S214019978F811F811F811F811F811F811F811F81191
S214019988F811F811F811F811F811F811F811F81181
S214019998F811F811F811F811F811F811F811F81171
S2140199A8F811F811F811F811F811F811F811F81161
S2140199B8F811F811F811F811F811F811F811F81151
S2140199C8F811F811F811F811F811F811F811F81141
S2140199D8F811F811F811F811F811F811F811F81131
S2140199E8F811F811F811F811F811F811F811F81121
S2140199F8F811F811F811F811F811F811F811F81111
S214019A08F811F811F811F811F811F811F811F81100
S214019A18F811F811F811F811F811F811F811F811F0
S214019A28F811F811F811F811F811F811F811F811E0
S214019A38F811F811F811F811F811F811F811F811D0
S214019A48F811F811F811F811F811F811F811F811C0
S214019A58F811F811F811F811F811F811F811F811B0
S214019A68F811F811F811F811F811F811F811F811A0
S214019A78F811F811F811F811F811F811F811F81190
S214019A88F811191A38161712171217121712171271
S214019A98181219123716F9321837183718371837AF
S214019AA81837595F5B5B361E1712181219121712F0
S214019AB8181219123716F92E183718371837183793
S214019AC81837595F7B5B36221712181219121712AC
S214019AD81712181216121812180E396399777B6F17
S214019AE87A6F7A6F7A6F7A6F7A6F7A6F7A6F7A731C
S214019AF87A737B737A73997399737B737B737A6FB3
S214019B08796F79739A6F385338473947394B3947DC
S214019B18384718371833173318331837183718379C
S214019B28183317331837B616950E960E970E571222
S214019B3818121812181217121812181217121712CA
S214019B48F70DB82A183718371933B61A960AB60A07
S214019B58B60A960A960AD82AF836384F595B595BD8
S214019B68595B5A5B5A5F595B595B39533A4FD7224F
S214019B78950A960E960E960E960E960E960EB60E9C
S214019B88B50E5712181217121712171217121712A4
S214019B98181218121712171217121712171217126D
S214019BA8171217121712171217121712171217125F
S214019BB8171217121712171217121712171217124F
S214019BC8171217121712171217121712171217123F
S214019BD8171217121712171217121712171217122F
S214019BE8171217121712171217121712171217121F
S214019BF8171217121712171217121712171217120F
S214019C0817121712171217121712171217121712FE
S214019C1817121712171217121712171217121712EE
S214019C2817121712171217121712171217121712DE
S214019C3817121712171217121712171217121712CE
S214019C4817121712171217121712171217121712BE
S214019C5817121712171217121712171217121712AE
S214019C68171217121712171217121712171217129E
S214019C78171217121712171217121712171217128E
S214019C88171217121712171217121712171217127E
S214019C98171217121712171217121712171217126E
S214019CA8171217121712171217121712171217125E
S214019CB8171217121712171217121712171217124E
S214019CC8171217121712171217121712171217123E
S214019CD8171217121712171217121712171217122E
S214019CE8171217121712171217121712171217121E
S214019CF8171217121712171217121712171217120E
S214019D0817123816381617121712171217121712B3
S214019D181812170E1512D82AF72ED72ED82ED82A8B
S214019D28F82E1A4B3B473716170E180E181217122D
S214019D381812170E1512D826F82ED72ED82ED82E6A
S214019D48D82E1A4B3B47371A170E180E1812171229
S214019D581812180E17121812170E195759675A6340
S214019D683963396339633963396339633963396305
S214019D7839633A633A633A633A635A675A6B5A6B7A
S214019D887A6B5A6B7A673853384719471947194710
S214019D983847F832F82EF82EF82ED82ED82ED82E88
S214019DA8F72EF72EF92E9616760E760E760E360EB8
S214019DB8161217121712171217121712171217124E
S214019DC8170EB822F82ED72EF82E9616750E760E82
S214019DD8760E960A760AB826F82A394B5A5B5A57E7
S214019DE83A5B3A5B595B59575A5B39471A3FB71E74
S214019DF89606960A960A960A760A770E770E770ECA
S214019E08770E370E17121712171217121712171284
S214019E1817121712171217121712171217121712EC
S214019E2817121712171217121712171217121712DC
S214019E3817121712171217121712171217121712CC
S214019E4817121712171217121712171217121712BC
S214019E5817121712171217121712171217121712AC
S214019E68171217121712171217121712171217129C
S214019E78171217121712171217121712171217128C
S214019E88171217121712171217121712171217127C
S214019E98171217121712171217121712171217126C
S214019EA8171217121712171217121712171217125C
S214019EB8171217121712171217121712171217124C
S214019EC8171217121712171217121712171217123C
S214019ED8171217121712171217121712171217122C
S214019EE8171217121712171217121712171217121C
S214019EF8171217121712171217121712171217120C
S214019F0817121712171217121712171217121712FB
S214019F1817121712171217121712171217121712EB
S214019F2817121712171217121712171217121712DB
S214019F3817121712171217121712171217121712CB
S214019F4817121712171217121712171217121712BB
S214019F5817121712171217121712171217121712AB
S214019F68171217121712171217121712171217129B
S214019F78171217121712171217121712171217128B
S214019F881712381638161712171217121712171231
S214019F98181219121812171216121712F811181287
S214019FA81812F6151612180E180E170E1712161284
S214019FB8171219121812171216121712F811181268
S214019FC81812F6151612180E180E170E1712161264
S214019FD81712171217121812190AF6151712180E51
S214019FE8190E170E17121712171217121712171221
S214019FF81712170E180E1812F611193B5847574B19
S21401A008384B384B384B39475943183717331833B9
S21401A0181837B616950A960A970E360E170E180EA4
S21401A028180E1712F711180E180E180E170E18120A
S21401A03819121812171217121712171217121712C7
S21401A0481712170E1712171217121812180E180EC3
S21401A05818121712170E760E95061733394F384B06
S21401A068384B384B5847394B3A53D522930AB50AD9
S21401A078B706960A960E560E160E171217121712CE
S21401A088171217121712171217121712171217127A
S21401A098171217121712171217121712171217126A
S21401A0A8171217121712171217121712171217125A
S21401A0B8171217121712171217121712171217124A
S21401A0C8171217121712171217121712171217123A
S21401A0D8171217121712171217121712171217122A
S21401A0E8171217121712171217121712171217121A
S21401A0F8171217121712171217121712171217120A
S21401A10817121712171217121712171217121712F9
S21401A11817121712171217121712171217121712E9
S21401A12817121712171217121712171217121712D9
S21401A13817121712171217121712171217121712C9
S21401A14817121712171217121712171217121712B9
S21401A15817121712171217121712171217121712A9
S21401A1681712171217121712171217121712171299
S21401A1781712171217121712171217121712171289
S21401A1881712171217121712171217121712171279
S21401A1981712171217121712171217121712171269
S21401A1A81712171217121712171217121712171259
S21401A1B81712171217121712171217121712171249
S21401A1C81712171217121712171217121712171239
S21401A1D81712171217121712171217121712171229
S21401A1E81712171217121712171217121712171219
S21401A1F81712171217121712171217121712171209
S21401A20817123816381617121712171217121712AE
S21401A2181712181217121612171217121812180EEA
S21401A228170E170E170E180E170E171217121812EA
S21401A238180E181217121612171217121812180ECD
S21401A248170E170E170E180E170E171217121812CA
S21401A258180E1812180E1712170E1712180E1712B4
S21401A2681712180E18121812181218121812181295
S21401A2781812170E170E1812F711D932F83AF83EB7
S21401A288D93EF93AF93AF93EF93AD82ED72AD82AD0
S21401A298D82E9612760A760E770E370E17121812E1
S21401A2A81812180E18121812181218121712171256
S21401A2B81812171217121712171217121712171247
S21401A2C81712180E180E171217121812181217123C
S21401A2D81712F7151712570E9606D826F93EF83AAA
S21401A2E8F83AF83AF83ED93EDA42B71E7506760EBF
S21401A2F8760E760E770E570E170E181218121812BB
S21401A308180E170E171217121712171217121712FE
S21401A31817121712171217121712171217121712E7
S21401A32817121712171217121712171217121712D7
S21401A33817121712171217121712171217121712C7
S21401A34817121712171217121712171217121712B7
S21401A35817121712171217121712171217121712A7
S21401A3681712171217121712171217121712171297
S21401A3781712171217121712171217121712171287
S21401A3881712171217121712171217121712171277
S21401A3981712171217121712171217121712171267
S21401A3A81712171217121712171217121712171257
S21401A3B81712171217121712171217121712171247
S21401A3C81712171217121712171217121712171237
S21401A3D81712171217121712171217121712171227
S21401A3E81712171217121712171217121712171217
S21401A3F81712171217121712171217121712171207
S21401A40817121712171217121712171217121712F6
S21401A41817121712171217121712171217121712E6
S21401A42817121712171217121712171217121712D6
S21401A43817121712171217121712171217121712C6
S21401A44817121712171217121712171217121712B6
S21401A45817121712171217121712171217121712A6
S21401A4681712171217121712171217121712171296
S21401A4781712171217121712171217121712171286
S21401A488171238163816171217121712171217122C
S21401A498171218121812181218121812181238123F
S21401A4A83712180E180E171217121712171218123B
S21401A4B8180E181218121812181218121812381222
S21401A4C83712180E180E171217121712171218121B
S21401A4D8180E180E380E171217121812380E1712F1
S21401A4E81712171217121712171217121712171216
S21401A4F81712171217121812181217121712170E08
S21401A508170E180E171217161712170E370A380EC7
S21401A518180E1812181218121812181218121812E1
S21401A5281812370E370E171217121712171217129C
S21401A53837121712171217121712171217121712A5
S21401A54817121812181218121812181218121812AE
S21401A55817123712180E181218121712170E180E8D
S21401A568180E170E170E370A380A380E180E181254
S21401A5781812370E360E171218121812181217124A
S21401A588370E171217121712171217121712171259
S21401A5981712171217121712171217121712171265
S21401A5A81712171217121712171217121712171255
S21401A5B81712171217121712171217121712171245
S21401A5C81712171217121712171217121712171235
S21401A5D81712171217121712171217121712171225
S21401A5E81712171217121712171217121712171215
S21401A5F81712171217121712171217121712171205
S21401A60817121712171217121712171217121712F4
S21401A61817121712171217121712171217121712E4
S21401A62817121712171217121712171217121712D4
S21401A63817121712171217121712171217121712C4
S21401A64817121712171217121712171217121712B4
S21401A65817121712171217121712171217121712A4
S21401A6681712171217121712171217121712171294
S21401A6781712171217121712171217121712171284
S21401A6881712171217121712171217121712171274
S21401A6981712171217121712171217121712171264
S21401A6A81712171217121712171217121712171254
S21401A6B81712171217121712171217121712171244
S21401A6C81712171217121712171217121712171234
S21401A6D81712171217121712171217121712171224
S21401A6E81712171217121712171217121712171214
S21401A6F81712171217121712171217121712171204
S21401A70817123816381617121712171217121712A9
S21401A718171218121812181218121812371237129E
S21401A7283712181218121712171217123712181290
S21401A738370E181218121812181218123712371262
S21401A7483712181218121712171217123712181270
S21401A758370E180E370E181217121812371217124C
S21401A768171218121812181218121812181218128C
S21401A778181218121712171237121812181218125E
S21401A788370E380E180E18121712170E380E180E26
S21401A798181218121712370E370E18121812181226
S21401A7A818121712370E1712171218121812180E37
S21401A7B8180E181217121712171217121712171245
S21401A7C8171218121812171217121812181238120E
S21401A7D8370E3612171217121812171217121712E7
S21401A7E81812180E1712180E380E181218123712D9
S21401A7F81712171217121712171217121712171203
S21401A808370E3712171217121712171217121712B6
S21401A81817121712171217121712171217121712E2
S21401A82817121712171217121712171217121712D2
S21401A83817121712171217121712171217121712C2
S21401A84817121712171217121712171217121712B2
S21401A85817121712171217121712171217121712A2
S21401A8681712171217121712171217121712171292
S21401A8781712171217121712171217121712171282
S21401A8881712171217121712171217121712171272
S21401A8981712171217121712171217121712171262
S21401A8A81712171217121712171217121712171252
S21401A8B81712171217121712171217121712171242
S21401A8C81712171217121712171217121712171232
S21401A8D81712171217121712171217121712171222
S21401A8E81712171217121712171217121712171212
S21401A8F81712171217121712171217121712171202
S21401A90817121712171217121712171217121712F1
S21401A91817121712171217121712171217121712E1
S21401A92817121712171217121712171217121712D1
S21401A93817121712171217121712171217121712C1
S21401A94817121712171217121712171217121712B1
S21401A95817121712171217121712171217121712A1
S21401A9681712171217121712171217121712171291
S21401A9781712171217121712171217121712171281
S21401A9881712381638161712171217121712171227
S21401A998171217121812181218121712171217125E
S21401A9A818123712181236121812180E370E1912F4
S21401A9B8171217121812181218121712171217123E
S21401A9C818123712181236121812180E370E1912D4
S21401A9D8171218121712180E370E18121712390EE8
S21401A9E8380E180E180E180E180E180E180E180E09
S21401A9F8180E3712370E370E370E1712171218128F
S21401AA0817121712171218121812181218121812EB
S21401AA18171217123712370E370E17121812181286
S21401AA2817121712370E1712370E370E1812180E7E
S21401AA3817121712171217121712171217121712C0
S21401AA48171218121712371237121812181218126C
S21401AA58180E370E18121812380E370E1712370E30
S21401AA68370E380E1812181218121716370E170E38
S21401AA78171218121812370E370E370E370E180E11
S21401AA88180E181217121712171217121712171272
S21401AA981712171217121712171217121712171260
S21401AAA81712171217121712171217121712171250
S21401AAB81712171217121712171217121712171240
S21401AAC81712171217121712171217121712171230
S21401AAD81712171217121712171217121712171220
S21401AAE81712171217121712171217121712171210
S21401AAF81712171217121712171217121712171200
S21401AB0817121712171217121712171217121712EF
S21401AB1817121712171217121712171217121712DF
S21401AB2817121712171217121712171217121712CF
S21401AB3817121712171217121712171217121712BF
S21401AB4817121712171217121712171217121712AF
S21401AB58171217121712171217121712171217129F
S21401AB68171217121712171217121712171217128F
S21401AB78171217121712171217121712171217127F
S21401AB88171217121712171217121712171217126F
S21401AB98171217121712171217121712171217125F
S21401ABA8171217121712171217121712171217124F
S21401ABB8171217121712171217121712171217123F
S21401ABC8171217121712171217121712171217122F
S21401ABD8171217121712171217121712170A170A2F
S21401ABE8170A170A170A170A170A170A171217123F
S21401ABF817121712171217121712171217121712FF
S21401AC0817123816381617121712171217121712A4
S21401AC18171217121712171217123712371237127E
S21401AC281712181218123712180E180E370E171296
S21401AC38161217121712171217123712371237125F
S21401AC481712181218121712180E180E370E171296
S21401AC58161218121712180E370E17121712380E68
S21401AC68171217121712171217121712171217128E
S21401AC781712181218121812181217121712370E5E
S21401AC88370E17123712370E3712171217121712F6
S21401AC981712181218121812171217121712370E3F
S21401ACA8370E1812181217123712380E18121812F1
S21401ACB8171217121712171217121712171217123E
